{
  "_format": "hh-sol-artifact-1",
  "contractName": "ReentrantUSDT",
  "sourceName": "contracts/test/ReentrantUSDT.sol",
  "abi": [
    {
      "inputs": [],
      "stateMutability": "nonpayable",
      "type": "constructor"
    },
    {
      "inputs": [
        {
          "internalType": "address",
          "name": "spender",
          "type": "address"
        },
        {
          "internalType": "uint256",
          "name": "allowance",
          "type": "uint256"
        },
        {
          "internalType": "uint256",
          "name": "needed",
          "type": "uint256"
        }
      ],
      "name": "ERC20InsufficientAllowance",
      "type": "error"
    },
    {
      "inputs": [
        {
          "internalType": "address",
          "name": "sender",
          "type": "address"
        },
        {
          "internalType": "uint256",
          "name": "balance",
          "type": "uint256"
        },
        {
          "internalType": "uint256",
          "name": "needed",
          "type": "uint256"
        }
      ],
      "name": "ERC20InsufficientBalance",
      "type": "error"
    },
    {
      "inputs": [
        {
          "internalType": "address",
          "name": "approver",
          "type": "address"
        }
      ],
      "name": "ERC20InvalidApprover",
      "type": "error"
    },
    {
      "inputs": [
        {
          "internalType": "address",
          "name": "receiver",
          "type": "address"
        }
      ],
      "name": "ERC20InvalidReceiver",
      "type": "error"
    },
    {
      "inputs": [
        {
          "internalType": "address",
          "name": "sender",
          "type": "address"
        }
      ],
      "name": "ERC20InvalidSender",
      "type": "error"
    },
    {
      "inputs": [
        {
          "internalType": "address",
          "name": "spender",
          "type": "address"
        }
      ],
      "name": "ERC20InvalidSpender",
      "type": "error"
    },
    {
      "anonymous": false,
      "inputs": [
        {
          "indexed": true,
          "internalType": "address",
          "name": "owner",
          "type": "address"
        },
        {
          "indexed": true,
          "internalType": "address",
          "name": "spender",
          "type": "address"
        },
        {
          "indexed": false,
          "internalType": "uint256",
          "name": "value",
          "type": "uint256"
        }
      ],
      "name": "Approval",
      "type": "event"
    },
    {
      "anonymous": false,
      "inputs": [
        {
          "indexed": true,
          "internalType": "address",
          "name": "from",
          "type": "address"
        },
        {
          "indexed": true,
          "internalType": "address",
          "name": "to",
          "type": "address"
        },
        {
          "indexed": false,
          "internalType": "uint256",
          "name": "value",
          "type": "uint256"
        }
      ],
      "name": "Transfer",
      "type": "event"
    },
    {
      "inputs": [
        {
          "internalType": "address",
          "name": "owner",
          "type": "address"
        },
        {
          "internalType": "address",
          "name": "spender",
          "type": "address"
        }
      ],
      "name": "allowance",
      "outputs": [
        {
          "internalType": "uint256",
          "name": "",
          "type": "uint256"
        }
      ],
      "stateMutability": "view",
      "type": "function"
    },
    {
      "inputs": [
        {
          "internalType": "address",
          "name": "spender",
          "type": "address"
        },
        {
          "internalType": "uint256",
          "name": "value",
          "type": "uint256"
        }
      ],
      "name": "approve",
      "outputs": [
        {
          "internalType": "bool",
          "name": "",
          "type": "bool"
        }
      ],
      "stateMutability": "nonpayable",
      "type": "function"
    },
    {
      "inputs": [],
      "name": "attackEnabled",
      "outputs": [
        {
          "internalType": "bool",
          "name": "",
          "type": "bool"
        }
      ],
      "stateMutability": "view",
      "type": "function"
    },
    {
      "inputs": [
        {
          "internalType": "address",
          "name": "account",
          "type": "address"
        }
      ],
      "name": "balanceOf",
      "outputs": [
        {
          "internalType": "uint256",
          "name": "",
          "type": "uint256"
        }
      ],
      "stateMutability": "view",
      "type": "function"
    },
    {
      "inputs": [
        {
          "internalType": "contract IHalalBusinessPackageManager",
          "name": "nextTarget",
          "type": "address"
        },
        {
          "internalType": "address",
          "name": "nextSponsor",
          "type": "address"
        },
        {
          "internalType": "bytes32",
          "name": "nextReferralCode",
          "type": "bytes32"
        }
      ],
      "name": "configureAttack",
      "outputs": [],
      "stateMutability": "nonpayable",
      "type": "function"
    },
    {
      "inputs": [],
      "name": "decimals",
      "outputs": [
        {
          "internalType": "uint8",
          "name": "",
          "type": "uint8"
        }
      ],
      "stateMutability": "pure",
      "type": "function"
    },
    {
      "inputs": [
        {
          "internalType": "address",
          "name": "to",
          "type": "address"
        },
        {
          "internalType": "uint256",
          "name": "amount",
          "type": "uint256"
        }
      ],
      "name": "mint",
      "outputs": [],
      "stateMutability": "nonpayable",
      "type": "function"
    },
    {
      "inputs": [],
      "name": "name",
      "outputs": [
        {
          "internalType": "string",
          "name": "",
          "type": "string"
        }
      ],
      "stateMutability": "view",
      "type": "function"
    },
    {
      "inputs": [],
      "name": "reentryBlocked",
      "outputs": [
        {
          "internalType": "bool",
          "name": "",
          "type": "bool"
        }
      ],
      "stateMutability": "view",
      "type": "function"
    },
    {
      "inputs": [],
      "name": "referralCode",
      "outputs": [
        {
          "internalType": "bytes32",
          "name": "",
          "type": "bytes32"
        }
      ],
      "stateMutability": "view",
      "type": "function"
    },
    {
      "inputs": [
        {
          "internalType": "bool",
          "name": "enabled",
          "type": "bool"
        }
      ],
      "name": "setAttackEnabled",
      "outputs": [],
      "stateMutability": "nonpayable",
      "type": "function"
    },
    {
      "inputs": [],
      "name": "sponsor",
      "outputs": [
        {
          "internalType": "address",
          "name": "",
          "type": "address"
        }
      ],
      "stateMutability": "view",
      "type": "function"
    },
    {
      "inputs": [],
      "name": "symbol",
      "outputs": [
        {
          "internalType": "string",
          "name": "",
          "type": "string"
        }
      ],
      "stateMutability": "view",
      "type": "function"
    },
    {
      "inputs": [],
      "name": "target",
      "outputs": [
        {
          "internalType": "contract IHalalBusinessPackageManager",
          "name": "",
          "type": "address"
        }
      ],
      "stateMutability": "view",
      "type": "function"
    },
    {
      "inputs": [],
      "name": "totalSupply",
      "outputs": [
        {
          "internalType": "uint256",
          "name": "",
          "type": "uint256"
        }
      ],
      "stateMutability": "view",
      "type": "function"
    },
    {
      "inputs": [
        {
          "internalType": "address",
          "name": "to",
          "type": "address"
        },
        {
          "internalType": "uint256",
          "name": "value",
          "type": "uint256"
        }
      ],
      "name": "transfer",
      "outputs": [
        {
          "internalType": "bool",
          "name": "",
          "type": "bool"
        }
      ],
      "stateMutability": "nonpayable",
      "type": "function"
    },
    {
      "inputs": [
        {
          "internalType": "address",
          "name": "from",
          "type": "address"
        },
        {
          "internalType": "address",
          "name": "to",
          "type": "address"
        },
        {
          "internalType": "uint256",
          "name": "value",
          "type": "uint256"
        }
      ],
      "name": "transferFrom",
      "outputs": [
        {
          "internalType": "bool",
          "name": "",
          "type": "bool"
        }
      ],
      "stateMutability": "nonpayable",
      "type": "function"
    }
  ],
  "bytecode": "0x608060405234801561001057600080fd5b506040518060400160405280600e81526020016d1499595b9d1c985b9d081554d11560921b815250604051806040016040528060048152602001631554d11560e21b8152508160039081610064919061011a565b506004610071828261011a565b5050506101d9565b634e487b7160e01b600052604160045260246000fd5b600181811c908216806100a357607f821691505b6020821081036100c357634e487b7160e01b600052602260045260246000fd5b50919050565b601f821115610115576000816000526020600020601f850160051c810160208610156100f25750805b601f850160051c820191505b81811015610111578281556001016100fe565b5050505b505050565b81516001600160401b0381111561013357610133610079565b61014781610141845461008f565b846100c9565b602080601f83116001811461017c57600084156101645750858301515b600019600386901b1c1916600185901b178555610111565b600085815260208120601f198616915b828110156101ab5788860151825594840194600190910190840161018c565b50858210156101c95787850151600019600388901b60f8161c191681555b5050505050600190811b01905550565b6109bc806101e86000396000f3fe608060405234801561001057600080fd5b506004361061010b5760003560e01c806377c93662116100a2578063a9059cbb11610071578063a9059cbb14610272578063d4b8399214610285578063d7751b8514610298578063d8b6d252146102a5578063dd62ed3e146102ae57600080fd5b806377c93662146101d55780637948e4481461020057806390a7561d1461024357806395d89b411461026a57600080fd5b8063313ce567116100de578063313ce5671461017657806332db89f21461018557806340c10f191461019757806370a08231146101ac57600080fd5b806306fdde0314610110578063095ea7b31461012e57806318160ddd1461015157806323b872dd14610163575b600080fd5b6101186102e7565b60405161012591906107d8565b60405180910390f35b61014161013c36600461083f565b610379565b6040519015158152602001610125565b6002545b604051908152602001610125565b61014161017136600461086b565b610393565b60405160128152602001610125565b60085461014190610100900460ff1681565b6101aa6101a536600461083f565b610464565b005b6101556101ba3660046108ac565b6001600160a01b031660009081526020819052604090205490565b6006546101e8906001600160a01b031681565b6040516001600160a01b039091168152602001610125565b6101aa61020e36600461086b565b600580546001600160a01b039485166001600160a01b0319918216179091556006805493909416921691909117909155600755565b6101aa6102513660046108d0565b6008805461ffff191691151561ff001916919091179055565b610118610472565b61014161028036600461083f565b610481565b6005546101e8906001600160a01b031681565b6008546101419060ff1681565b61015560075481565b6101556102bc3660046108f2565b6001600160a01b03918216600090815260016020908152604080832093909416825291909152205490565b6060600380546102f69061092b565b80601f01602080910402602001604051908101604052809291908181526020018280546103229061092b565b801561036f5780601f106103445761010080835404028352916020019161036f565b820191906000526020600020905b81548152906001019060200180831161035257829003601f168201915b5050505050905090565b60003361038781858561048f565b60019150505b92915050565b60085460009060ff1680156103b257506005546001600160a01b031615155b15610451576008805460ff191690556005546006546007546040516354b8cf6d60e01b8152600160048201526001600160a01b03928316602482015260448101919091529116906354b8cf6d90606401600060405180830381600087803b15801561041c57600080fd5b505af192505050801561042d575060015b610445576008805461ff001916610100179055610451565b6008805461ff00191690555b61045c8484846104a1565b949350505050565b61046e82826104c5565b5050565b6060600480546102f69061092b565b600033610387818585610500565b61049c838383600161055f565b505050565b6000336104af858285610635565b6104ba858585610500565b506001949350505050565b6001600160a01b0382166104f45760405163ec442f0560e01b8152600060048201526024015b60405180910390fd5b61046e600083836106ae565b6001600160a01b03831661052a57604051634b637e8f60e11b8152600060048201526024016104eb565b6001600160a01b0382166105545760405163ec442f0560e01b8152600060048201526024016104eb565b61049c8383836106ae565b6001600160a01b0384166105895760405163e602df0560e01b8152600060048201526024016104eb565b6001600160a01b0383166105b357604051634a1406b160e11b8152600060048201526024016104eb565b6001600160a01b038085166000908152600160209081526040808320938716835292905220829055801561062f57826001600160a01b0316846001600160a01b03167f8c5be1e5ebec7d5bd14f71427d1e84f3dd0314c0f7b2291e5b200ac8c7c3b9258460405161062691815260200190565b60405180910390a35b50505050565b6001600160a01b0383811660009081526001602090815260408083209386168352929052205460001981101561062f578181101561069f57604051637dc7a0d960e11b81526001600160a01b038416600482015260248101829052604481018390526064016104eb565b61062f8484848403600061055f565b6001600160a01b0383166106d95780600260008282546106ce9190610965565b9091555061074b9050565b6001600160a01b0383166000908152602081905260409020548181101561072c5760405163391434e360e21b81526001600160a01b038516600482015260248101829052604481018390526064016104eb565b6001600160a01b03841660009081526020819052604090209082900390555b6001600160a01b03821661076757600280548290039055610786565b6001600160a01b03821660009081526020819052604090208054820190555b816001600160a01b0316836001600160a01b03167fddf252ad1be2c89b69c2b068fc378daa952ba7f163c4a11628f55a4df523b3ef836040516107cb91815260200190565b60405180910390a3505050565b60006020808352835180602085015260005b81811015610806578581018301518582016040015282016107ea565b506000604082860101526040601f19601f8301168501019250505092915050565b6001600160a01b038116811461083c57600080fd5b50565b6000806040838503121561085257600080fd5b823561085d81610827565b946020939093013593505050565b60008060006060848603121561088057600080fd5b833561088b81610827565b9250602084013561089b81610827565b929592945050506040919091013590565b6000602082840312156108be57600080fd5b81356108c981610827565b9392505050565b6000602082840312156108e257600080fd5b813580151581146108c957600080fd5b6000806040838503121561090557600080fd5b823561091081610827565b9150602083013561092081610827565b809150509250929050565b600181811c9082168061093f57607f821691505b60208210810361095f57634e487b7160e01b600052602260045260246000fd5b50919050565b8082018082111561038d57634e487b7160e01b600052601160045260246000fdfea2646970667358221220fc784462e4fdf950f4a307248c2e0cc85cc74cb48ac036033cbfa4921d1378b064736f6c63430008180033",
  "linkReferences": {},
  "deployedLinkReferences": {}
}