{"contracts/HBTreasurySplitter.sol":{"HBTreasurySplitter":{"abi":[{"inputs":[{"internalType":"contract IERC20","name":"token","type":"address"},{"internalType":"address","name":"initialOwner","type":"address"}],"stateMutability":"nonpayable","type":"constructor"},{"inputs":[],"name":"EnforcedPause","type":"error"},{"inputs":[],"name":"ExpectedPause","type":"error"},{"inputs":[{"internalType":"address","name":"owner","type":"address"}],"name":"OwnableInvalidOwner","type":"error"},{"inputs":[{"internalType":"address","name":"account","type":"address"}],"name":"OwnableUnauthorizedAccount","type":"error"},{"inputs":[],"name":"ReentrancyGuardReentrantCall","type":"error"},{"inputs":[{"internalType":"address","name":"token","type":"address"}],"name":"SafeERC20FailedOperation","type":"error"},{"anonymous":false,"inputs":[{"indexed":true,"internalType":"bytes32","name":"purchaseId","type":"bytes32"},{"indexed":true,"internalType":"address","name":"buyer","type":"address"},{"indexed":false,"internalType":"uint256","name":"amount","type":"uint256"},{"indexed":false,"internalType":"uint256","name":"directAmount","type":"uint256"},{"indexed":false,"internalType":"uint256","name":"productAmount","type":"uint256"},{"indexed":false,"internalType":"uint256","name":"rechargeAmount","type":"uint256"},{"indexed":false,"internalType":"uint256","name":"levelAmount","type":"uint256"},{"indexed":false,"internalType":"uint256","name":"singleLegAmount","type":"uint256"},{"indexed":false,"internalType":"uint256","name":"companyReserveAmount","type":"uint256"}],"name":"DistributionCreated","type":"event"},{"anonymous":false,"inputs":[{"indexed":true,"internalType":"address","name":"previousOwner","type":"address"},{"indexed":true,"internalType":"address","name":"newOwner","type":"address"}],"name":"OwnershipTransferStarted","type":"event"},{"anonymous":false,"inputs":[{"indexed":true,"internalType":"address","name":"previousOwner","type":"address"},{"indexed":true,"internalType":"address","name":"newOwner","type":"address"}],"name":"OwnershipTransferred","type":"event"},{"anonymous":false,"inputs":[{"indexed":false,"internalType":"address","name":"account","type":"address"}],"name":"Paused","type":"event"},{"anonymous":false,"inputs":[{"indexed":true,"internalType":"bytes32","name":"key","type":"bytes32"},{"indexed":true,"internalType":"address","name":"wallet","type":"address"}],"name":"TreasuryUpdated","type":"event"},{"anonymous":false,"inputs":[{"indexed":false,"internalType":"address","name":"account","type":"address"}],"name":"Unpaused","type":"event"},{"inputs":[],"name":"acceptOwnership","outputs":[],"stateMutability":"nonpayable","type":"function"},{"inputs":[],"name":"companyReserveTreasury","outputs":[{"internalType":"address","name":"","type":"address"}],"stateMutability":"view","type":"function"},{"inputs":[],"name":"directIncomeTreasury","outputs":[{"internalType":"address","name":"","type":"address"}],"stateMutability":"view","type":"function"},{"inputs":[],"name":"levelIncomeTreasury","outputs":[{"internalType":"address","name":"","type":"address"}],"stateMutability":"view","type":"function"},{"inputs":[],"name":"owner","outputs":[{"internalType":"address","name":"","type":"address"}],"stateMutability":"view","type":"function"},{"inputs":[],"name":"pause","outputs":[],"stateMutability":"nonpayable","type":"function"},{"inputs":[],"name":"paused","outputs":[{"internalType":"bool","name":"","type":"bool"}],"stateMutability":"view","type":"function"},{"inputs":[],"name":"paymentToken","outputs":[{"internalType":"contract IERC20","name":"","type":"address"}],"stateMutability":"view","type":"function"},{"inputs":[],"name":"pendingOwner","outputs":[{"internalType":"address","name":"","type":"address"}],"stateMutability":"view","type":"function"},{"inputs":[],"name":"productAllocationTreasury","outputs":[{"internalType":"address","name":"","type":"address"}],"stateMutability":"view","type":"function"},{"inputs":[],"name":"rechargeTreasury","outputs":[{"internalType":"address","name":"","type":"address"}],"stateMutability":"view","type":"function"},{"inputs":[],"name":"renounceOwnership","outputs":[],"stateMutability":"nonpayable","type":"function"},{"inputs":[{"internalType":"address","name":"directWallet","type":"address"},{"internalType":"address","name":"productWallet","type":"address"},{"internalType":"address","name":"rechargeWallet","type":"address"},{"internalType":"address","name":"levelWallet","type":"address"},{"internalType":"address","name":"singleLegWallet","type":"address"},{"internalType":"address","name":"companyWallet","type":"address"}],"name":"setTreasuries","outputs":[],"stateMutability":"nonpayable","type":"function"},{"inputs":[],"name":"singleLegTreasury","outputs":[{"internalType":"address","name":"","type":"address"}],"stateMutability":"view","type":"function"},{"inputs":[{"internalType":"bytes32","name":"purchaseId","type":"bytes32"},{"internalType":"address","name":"buyer","type":"address"},{"internalType":"uint256","name":"amount","type":"uint256"}],"name":"split","outputs":[],"stateMutability":"nonpayable","type":"function"},{"inputs":[{"internalType":"address","name":"newOwner","type":"address"}],"name":"transferOwnership","outputs":[],"stateMutability":"nonpayable","type":"function"},{"inputs":[],"name":"unpause","outputs":[],"stateMutability":"nonpayable","type":"function"}],"evm":{"bytecode":{"linkReferences":{},"object":"60a060405234801561001057600080fd5b50604051610ed9380380610ed983398101604081905261002f91610167565b806001600160a01b03811661005f57604051631e4fbdf760e01b8152600060048201526024015b60405180910390fd5b610068816100e6565b5060017f9b779b17422d0df92223018b32b4d1fa46e071723d6817e2486d003becc55f00556001600160a01b0382166100d45760405162461bcd60e51b815260206004820152600e60248201526d48423a20746f6b656e207a65726f60901b6044820152606401610056565b506001600160a01b03166080526101a1565b600180546001600160a01b03191690556100ff81610102565b50565b600080546001600160a01b038381166001600160a01b0319831681178455604051919092169283917f8be0079c531659141344cd1fd0a4f28419497f9722a3daafe3b4186f6b6457e09190a35050565b6001600160a01b03811681146100ff57600080fd5b6000806040838503121561017a57600080fd5b825161018581610152565b602084015190925061019681610152565b809150509250929050565b608051610cf36101e66000396000818161018001528181610507015281816105410152818161057b015281816105b5015281816105ef015261062f0152610cf36000f3fe608060405234801561001057600080fd5b506004361061010b5760003560e01c8063715018a6116100a25780638456cb59116100715780638456cb59146102105780638da5cb5b14610218578063e30c397814610229578063e91621fb1461023a578063f2fde38b1461024d57600080fd5b8063715018a6146101da57806379ba5097146101e25780637e9f77da146101ea57806383ee2b7c146101fd57600080fd5b80633013ce29116100de5780633013ce291461017b5780633f4ba83a146101a257806346dfb14f146101aa5780635c975abb146101bd57600080fd5b806307bbd843146101105780631f226590146101405780632d0e2499146101535780632ffa3ce114610168575b600080fd5b600454610123906001600160a01b031681565b6040516001600160a01b0390911681526020015b60405180910390f35b600754610123906001600160a01b031681565b610166610161366004610b57565b610260565b005b610166610176366004610bcb565b610411565b6101237f000000000000000000000000000000000000000000000000000000000000000081565b6101666106f7565b600654610123906001600160a01b031681565b600154600160a01b900460ff166040519015158152602001610137565b610166610709565b61016661071b565b600354610123906001600160a01b031681565b600254610123906001600160a01b031681565b610166610764565b6000546001600160a01b0316610123565b6001546001600160a01b0316610123565b600554610123906001600160a01b031681565b61016661025b366004610c00565b610774565b6102686107e5565b61027186610812565b61027a85610812565b61028384610812565b61028c83610812565b61029582610812565b61029e81610812565b600280546001600160a01b03199081166001600160a01b038981169182179093556003805483168985161790556004805483168885161790556005805483168785161790556006805483168685161790556007805490921692841692909217905560405165191a5c9958dd60d21b90600080516020610c9e83398151915290600090a36040516001600160a01b03861690661c1c9bd91d58dd60ca1b90600080516020610c9e83398151915290600090a36040516001600160a01b0385169067726563686172676560c01b90600080516020610c9e83398151915290600090a36040516001600160a01b03841690641b195d995b60da1b90600080516020610c9e83398151915290600090a36040516001600160a01b038316906973696e676c655f6c656760b01b90600080516020610c9e83398151915290600090a36040516001600160a01b0382169066636f6d70616e7960c81b90600080516020610c9e83398151915290600090a3505050505050565b6104196107e5565b61042161085c565b61042961088a565b6104316108b5565b6000606461044083600f610c38565b61044a9190610c55565b90506000606461045b84601e610c38565b6104659190610c55565b90506000606461047685601e610c38565b6104809190610c55565b90506000606461049186600a610c38565b61049b9190610c55565b9050600060646104ac87600f610c38565b6104b69190610c55565b905060008183856104c7888a610c77565b6104d19190610c77565b6104db9190610c77565b6104e59190610c77565b905060006104f38289610c8a565b600254909150610530906001600160a01b037f00000000000000000000000000000000000000000000000000000000000000008116911689610933565b60035461056a906001600160a01b037f00000000000000000000000000000000000000000000000000000000000000008116911688610933565b6004546105a4906001600160a01b037f00000000000000000000000000000000000000000000000000000000000000008116911687610933565b6005546105de906001600160a01b037f00000000000000000000000000000000000000000000000000000000000000008116911686610933565b600654610618906001600160a01b037f00000000000000000000000000000000000000000000000000000000000000008116911685610933565b801561065857600754610658906001600160a01b037f00000000000000000000000000000000000000000000000000000000000000008116911683610933565b6040805189815260208101899052908101879052606081018690526080810185905260a0810184905260c081018290526001600160a01b038a16908b907f0f4c5fa00e9e1418ef51335c9ec69981fe2e678f10409c713345fa459eb8f01f9060e00160405180910390a3505050505050506106f260017f9b779b17422d0df92223018b32b4d1fa46e071723d6817e2486d003becc55f0055565b505050565b6106ff6107e5565b610707610968565b565b6107116107e5565b61070760006109bd565b60015433906001600160a01b031681146107585760405163118cdaa760e01b81526001600160a01b03821660048201526024015b60405180910390fd5b610761816109bd565b50565b61076c6107e5565b6107076109d6565b61077c6107e5565b600180546001600160a01b0383166001600160a01b031990911681179091556107ad6000546001600160a01b031690565b6001600160a01b03167f38d16b8cac22d99fc7c124b9cd0de2d3fa1faef420bfe791d8c362d765e2270060405160405180910390a350565b6000546001600160a01b031633146107075760405163118cdaa760e01b815233600482015260240161074f565b6001600160a01b0381166107615760405162461bcd60e51b815260206004820152601160248201527048423a207472656173757279207a65726f60781b604482015260640161074f565b610864610a19565b60027f9b779b17422d0df92223018b32b4d1fa46e071723d6817e2486d003becc55f0055565b600154600160a01b900460ff16156107075760405163d93c066560e01b815260040160405180910390fd5b6002546108ca906001600160a01b0316610812565b6003546108df906001600160a01b0316610812565b6004546108f4906001600160a01b0316610812565b600554610909906001600160a01b0316610812565b60065461091e906001600160a01b0316610812565b600754610707906001600160a01b0316610812565b6109408383836001610a5b565b6106f257604051635274afe760e01b81526001600160a01b038416600482015260240161074f565b610970610ac1565b6001805460ff60a01b191690557f5db9ee0a495bf2e6ff9c91a7834c1ba4fdd244a5e8aa4e537bd38aeae4b073aa335b6040516001600160a01b03909116815260200160405180910390a1565b600180546001600160a01b031916905561076181610aeb565b6109de61088a565b6001805460ff60a01b1916600160a01b1790557f62e78cea01bee320cd4e420270b5ea74000d11b0c9f74754ebdbfc544b05a2586109a03390565b7f9b779b17422d0df92223018b32b4d1fa46e071723d6817e2486d003becc55f005460020361070757604051633ee5aeb560e01b815260040160405180910390fd5b60405163a9059cbb60e01b60008181526001600160a01b038616600452602485905291602083604481808b5af192506001600051148316610ab5578383151615610aa8573d6000823e3d81fd5b6000873b113d1516831692505b60405250949350505050565b600154600160a01b900460ff1661070757604051638dfc202b60e01b815260040160405180910390fd5b600080546001600160a01b038381166001600160a01b0319831681178455604051919092169283917f8be0079c531659141344cd1fd0a4f28419497f9722a3daafe3b4186f6b6457e09190a35050565b80356001600160a01b0381168114610b5257600080fd5b919050565b60008060008060008060c08789031215610b7057600080fd5b610b7987610b3b565b9550610b8760208801610b3b565b9450610b9560408801610b3b565b9350610ba360608801610b3b565b9250610bb160808801610b3b565b9150610bbf60a08801610b3b565b90509295509295509295565b600080600060608486031215610be057600080fd5b83359250610bf060208501610b3b565b9150604084013590509250925092565b600060208284031215610c1257600080fd5b610c1b82610b3b565b9392505050565b634e487b7160e01b600052601160045260246000fd5b8082028115828204841417610c4f57610c4f610c22565b92915050565b600082610c7257634e487b7160e01b600052601260045260246000fd5b500490565b80820180821115610c4f57610c4f610c22565b81810381811115610c4f57610c4f610c2256fe6410ac85c52ba3fd27b10ab68388b073fb2da3e49390e48506118349eba4a83da2646970667358221220cf97662f8b4124a829315d6bfc16681b491d29fffaaec51aa541ebdcecf7d64b64736f6c63430008180033","opcodes":"PUSH1 0xA0 PUSH1 0x40 MSTORE CALLVALUE DUP1 ISZERO PUSH2 0x10 JUMPI PUSH1 0x0 DUP1 REVERT JUMPDEST POP PUSH1 0x40 MLOAD PUSH2 0xED9 CODESIZE SUB DUP1 PUSH2 0xED9 DUP4 CODECOPY DUP2 ADD PUSH1 0x40 DUP2 SWAP1 MSTORE PUSH2 0x2F SWAP2 PUSH2 0x167 JUMP JUMPDEST DUP1 PUSH1 0x1 PUSH1 0x1 PUSH1 0xA0 SHL SUB DUP2 AND PUSH2 0x5F JUMPI PUSH1 0x40 MLOAD PUSH4 0x1E4FBDF7 PUSH1 0xE0 SHL DUP2 MSTORE PUSH1 0x0 PUSH1 0x4 DUP3 ADD MSTORE PUSH1 0x24 ADD JUMPDEST PUSH1 0x40 MLOAD DUP1 SWAP2 SUB SWAP1 REVERT JUMPDEST PUSH2 0x68 DUP2 PUSH2 0xE6 JUMP JUMPDEST POP PUSH1 0x1 PUSH32 0x9B779B17422D0DF92223018B32B4D1FA46E071723D6817E2486D003BECC55F00 SSTORE PUSH1 0x1 PUSH1 0x1 PUSH1 0xA0 SHL SUB DUP3 AND PUSH2 0xD4 JUMPI PUSH1 0x40 MLOAD PUSH3 0x461BCD PUSH1 0xE5 SHL DUP2 MSTORE PUSH1 0x20 PUSH1 0x4 DUP3 ADD MSTORE PUSH1 0xE PUSH1 0x24 DUP3 ADD MSTORE PUSH14 0x48423A20746F6B656E207A65726F PUSH1 0x90 SHL PUSH1 0x44 DUP3 ADD MSTORE PUSH1 0x64 ADD PUSH2 0x56 JUMP JUMPDEST POP PUSH1 0x1 PUSH1 0x1 PUSH1 0xA0 SHL SUB AND PUSH1 0x80 MSTORE PUSH2 0x1A1 JUMP JUMPDEST PUSH1 0x1 DUP1 SLOAD PUSH1 0x1 PUSH1 0x1 PUSH1 0xA0 SHL SUB NOT AND SWAP1 SSTORE PUSH2 0xFF DUP2 PUSH2 0x102 JUMP JUMPDEST POP JUMP JUMPDEST PUSH1 0x0 DUP1 SLOAD PUSH1 0x1 PUSH1 0x1 PUSH1 0xA0 SHL SUB DUP4 DUP2 AND PUSH1 0x1 PUSH1 0x1 PUSH1 0xA0 SHL SUB NOT DUP4 AND DUP2 OR DUP5 SSTORE PUSH1 0x40 MLOAD SWAP2 SWAP1 SWAP3 AND SWAP3 DUP4 SWAP2 PUSH32 0x8BE0079C531659141344CD1FD0A4F28419497F9722A3DAAFE3B4186F6B6457E0 SWAP2 SWAP1 LOG3 POP POP JUMP JUMPDEST PUSH1 0x1 PUSH1 0x1 PUSH1 0xA0 SHL SUB DUP2 AND DUP2 EQ PUSH2 0xFF JUMPI PUSH1 0x0 DUP1 REVERT JUMPDEST PUSH1 0x0 DUP1 PUSH1 0x40 DUP4 DUP6 SUB SLT ISZERO PUSH2 0x17A JUMPI PUSH1 0x0 DUP1 REVERT JUMPDEST DUP3 MLOAD PUSH2 0x185 DUP2 PUSH2 0x152 JUMP JUMPDEST PUSH1 0x20 DUP5 ADD MLOAD SWAP1 SWAP3 POP PUSH2 0x196 DUP2 PUSH2 0x152 JUMP JUMPDEST DUP1 SWAP2 POP POP SWAP3 POP SWAP3 SWAP1 POP JUMP JUMPDEST PUSH1 0x80 MLOAD PUSH2 0xCF3 PUSH2 0x1E6 PUSH1 0x0 CODECOPY PUSH1 0x0 DUP2 DUP2 PUSH2 0x180 ADD MSTORE DUP2 DUP2 PUSH2 0x507 ADD MSTORE DUP2 DUP2 PUSH2 0x541 ADD MSTORE DUP2 DUP2 PUSH2 0x57B ADD MSTORE DUP2 DUP2 PUSH2 0x5B5 ADD MSTORE DUP2 DUP2 PUSH2 0x5EF ADD MSTORE PUSH2 0x62F ADD MSTORE PUSH2 0xCF3 PUSH1 0x0 RETURN INVALID PUSH1 0x80 PUSH1 0x40 MSTORE CALLVALUE DUP1 ISZERO PUSH2 0x10 JUMPI PUSH1 0x0 DUP1 REVERT JUMPDEST POP PUSH1 0x4 CALLDATASIZE LT PUSH2 0x10B JUMPI PUSH1 0x0 CALLDATALOAD PUSH1 0xE0 SHR DUP1 PUSH4 0x715018A6 GT PUSH2 0xA2 JUMPI DUP1 PUSH4 0x8456CB59 GT PUSH2 0x71 JUMPI DUP1 PUSH4 0x8456CB59 EQ PUSH2 0x210 JUMPI DUP1 PUSH4 0x8DA5CB5B EQ PUSH2 0x218 JUMPI DUP1 PUSH4 0xE30C3978 EQ PUSH2 0x229 JUMPI DUP1 PUSH4 0xE91621FB EQ PUSH2 0x23A JUMPI DUP1 PUSH4 0xF2FDE38B EQ PUSH2 0x24D JUMPI PUSH1 0x0 DUP1 REVERT JUMPDEST DUP1 PUSH4 0x715018A6 EQ PUSH2 0x1DA JUMPI DUP1 PUSH4 0x79BA5097 EQ PUSH2 0x1E2 JUMPI DUP1 PUSH4 0x7E9F77DA EQ PUSH2 0x1EA JUMPI DUP1 PUSH4 0x83EE2B7C EQ PUSH2 0x1FD JUMPI PUSH1 0x0 DUP1 REVERT JUMPDEST DUP1 PUSH4 0x3013CE29 GT PUSH2 0xDE JUMPI DUP1 PUSH4 0x3013CE29 EQ PUSH2 0x17B JUMPI DUP1 PUSH4 0x3F4BA83A EQ PUSH2 0x1A2 JUMPI DUP1 PUSH4 0x46DFB14F EQ PUSH2 0x1AA JUMPI DUP1 PUSH4 0x5C975ABB EQ PUSH2 0x1BD JUMPI PUSH1 0x0 DUP1 REVERT JUMPDEST DUP1 PUSH4 0x7BBD843 EQ PUSH2 0x110 JUMPI DUP1 PUSH4 0x1F226590 EQ PUSH2 0x140 JUMPI DUP1 PUSH4 0x2D0E2499 EQ PUSH2 0x153 JUMPI DUP1 PUSH4 0x2FFA3CE1 EQ PUSH2 0x168 JUMPI JUMPDEST PUSH1 0x0 DUP1 REVERT JUMPDEST PUSH1 0x4 SLOAD PUSH2 0x123 SWAP1 PUSH1 0x1 PUSH1 0x1 PUSH1 0xA0 SHL SUB AND DUP2 JUMP JUMPDEST PUSH1 0x40 MLOAD PUSH1 0x1 PUSH1 0x1 PUSH1 0xA0 SHL SUB SWAP1 SWAP2 AND DUP2 MSTORE PUSH1 0x20 ADD JUMPDEST PUSH1 0x40 MLOAD DUP1 SWAP2 SUB SWAP1 RETURN JUMPDEST PUSH1 0x7 SLOAD PUSH2 0x123 SWAP1 PUSH1 0x1 PUSH1 0x1 PUSH1 0xA0 SHL SUB AND DUP2 JUMP JUMPDEST PUSH2 0x166 PUSH2 0x161 CALLDATASIZE PUSH1 0x4 PUSH2 0xB57 JUMP JUMPDEST PUSH2 0x260 JUMP JUMPDEST STOP JUMPDEST PUSH2 0x166 PUSH2 0x176 CALLDATASIZE PUSH1 0x4 PUSH2 0xBCB JUMP JUMPDEST PUSH2 0x411 JUMP JUMPDEST PUSH2 0x123 PUSH32 0x0 DUP2 JUMP JUMPDEST PUSH2 0x166 PUSH2 0x6F7 JUMP JUMPDEST PUSH1 0x6 SLOAD PUSH2 0x123 SWAP1 PUSH1 0x1 PUSH1 0x1 PUSH1 0xA0 SHL SUB AND DUP2 JUMP JUMPDEST PUSH1 0x1 SLOAD PUSH1 0x1 PUSH1 0xA0 SHL SWAP1 DIV PUSH1 0xFF AND PUSH1 0x40 MLOAD SWAP1 ISZERO ISZERO DUP2 MSTORE PUSH1 0x20 ADD PUSH2 0x137 JUMP JUMPDEST PUSH2 0x166 PUSH2 0x709 JUMP JUMPDEST PUSH2 0x166 PUSH2 0x71B JUMP JUMPDEST PUSH1 0x3 SLOAD PUSH2 0x123 SWAP1 PUSH1 0x1 PUSH1 0x1 PUSH1 0xA0 SHL SUB AND DUP2 JUMP JUMPDEST PUSH1 0x2 SLOAD PUSH2 0x123 SWAP1 PUSH1 0x1 PUSH1 0x1 PUSH1 0xA0 SHL SUB AND DUP2 JUMP JUMPDEST PUSH2 0x166 PUSH2 0x764 JUMP JUMPDEST PUSH1 0x0 SLOAD PUSH1 0x1 PUSH1 0x1 PUSH1 0xA0 SHL SUB AND PUSH2 0x123 JUMP JUMPDEST PUSH1 0x1 SLOAD PUSH1 0x1 PUSH1 0x1 PUSH1 0xA0 SHL SUB AND PUSH2 0x123 JUMP JUMPDEST PUSH1 0x5 SLOAD PUSH2 0x123 SWAP1 PUSH1 0x1 PUSH1 0x1 PUSH1 0xA0 SHL SUB AND DUP2 JUMP JUMPDEST PUSH2 0x166 PUSH2 0x25B CALLDATASIZE PUSH1 0x4 PUSH2 0xC00 JUMP JUMPDEST PUSH2 0x774 JUMP JUMPDEST PUSH2 0x268 PUSH2 0x7E5 JUMP JUMPDEST PUSH2 0x271 DUP7 PUSH2 0x812 JUMP JUMPDEST PUSH2 0x27A DUP6 PUSH2 0x812 JUMP JUMPDEST PUSH2 0x283 DUP5 PUSH2 0x812 JUMP JUMPDEST PUSH2 0x28C DUP4 PUSH2 0x812 JUMP JUMPDEST PUSH2 0x295 DUP3 PUSH2 0x812 JUMP JUMPDEST PUSH2 0x29E DUP2 PUSH2 0x812 JUMP JUMPDEST PUSH1 0x2 DUP1 SLOAD PUSH1 0x1 PUSH1 0x1 PUSH1 0xA0 SHL SUB NOT SWAP1 DUP2 AND PUSH1 0x1 PUSH1 0x1 PUSH1 0xA0 SHL SUB DUP10 DUP2 AND SWAP2 DUP3 OR SWAP1 SWAP4 SSTORE PUSH1 0x3 DUP1 SLOAD DUP4 AND DUP10 DUP6 AND OR SWAP1 SSTORE PUSH1 0x4 DUP1 SLOAD DUP4 AND DUP9 DUP6 AND OR SWAP1 SSTORE PUSH1 0x5 DUP1 SLOAD DUP4 AND DUP8 DUP6 AND OR SWAP1 SSTORE PUSH1 0x6 DUP1 SLOAD DUP4 AND DUP7 DUP6 AND OR SWAP1 SSTORE PUSH1 0x7 DUP1 SLOAD SWAP1 SWAP3 AND SWAP3 DUP5 AND SWAP3 SWAP1 SWAP3 OR SWAP1 SSTORE PUSH1 0x40 MLOAD PUSH6 0x191A5C9958DD PUSH1 0xD2 SHL SWAP1 PUSH1 0x0 DUP1 MLOAD PUSH1 0x20 PUSH2 0xC9E DUP4 CODECOPY DUP2 MLOAD SWAP2 MSTORE SWAP1 PUSH1 0x0 SWAP1 LOG3 PUSH1 0x40 MLOAD PUSH1 0x1 PUSH1 0x1 PUSH1 0xA0 SHL SUB DUP7 AND SWAP1 PUSH7 0x1C1C9BD91D58DD PUSH1 0xCA SHL SWAP1 PUSH1 0x0 DUP1 MLOAD PUSH1 0x20 PUSH2 0xC9E DUP4 CODECOPY DUP2 MLOAD SWAP2 MSTORE SWAP1 PUSH1 0x0 SWAP1 LOG3 PUSH1 0x40 MLOAD PUSH1 0x1 PUSH1 0x1 PUSH1 0xA0 SHL SUB DUP6 AND SWAP1 PUSH8 0x7265636861726765 PUSH1 0xC0 SHL SWAP1 PUSH1 0x0 DUP1 MLOAD PUSH1 0x20 PUSH2 0xC9E DUP4 CODECOPY DUP2 MLOAD SWAP2 MSTORE SWAP1 PUSH1 0x0 SWAP1 LOG3 PUSH1 0x40 MLOAD PUSH1 0x1 PUSH1 0x1 PUSH1 0xA0 SHL SUB DUP5 AND SWAP1 PUSH5 0x1B195D995B PUSH1 0xDA SHL SWAP1 PUSH1 0x0 DUP1 MLOAD PUSH1 0x20 PUSH2 0xC9E DUP4 CODECOPY DUP2 MLOAD SWAP2 MSTORE SWAP1 PUSH1 0x0 SWAP1 LOG3 PUSH1 0x40 MLOAD PUSH1 0x1 PUSH1 0x1 PUSH1 0xA0 SHL SUB DUP4 AND SWAP1 PUSH10 0x73696E676C655F6C6567 PUSH1 0xB0 SHL SWAP1 PUSH1 0x0 DUP1 MLOAD PUSH1 0x20 PUSH2 0xC9E DUP4 CODECOPY DUP2 MLOAD SWAP2 MSTORE SWAP1 PUSH1 0x0 SWAP1 LOG3 PUSH1 0x40 MLOAD PUSH1 0x1 PUSH1 0x1 PUSH1 0xA0 SHL SUB DUP3 AND SWAP1 PUSH7 0x636F6D70616E79 PUSH1 0xC8 SHL SWAP1 PUSH1 0x0 DUP1 MLOAD PUSH1 0x20 PUSH2 0xC9E DUP4 CODECOPY DUP2 MLOAD SWAP2 MSTORE SWAP1 PUSH1 0x0 SWAP1 LOG3 POP POP POP POP POP POP JUMP JUMPDEST PUSH2 0x419 PUSH2 0x7E5 JUMP JUMPDEST PUSH2 0x421 PUSH2 0x85C JUMP JUMPDEST PUSH2 0x429 PUSH2 0x88A JUMP JUMPDEST PUSH2 0x431 PUSH2 0x8B5 JUMP JUMPDEST PUSH1 0x0 PUSH1 0x64 PUSH2 0x440 DUP4 PUSH1 0xF PUSH2 0xC38 JUMP JUMPDEST PUSH2 0x44A SWAP2 SWAP1 PUSH2 0xC55 JUMP JUMPDEST SWAP1 POP PUSH1 0x0 PUSH1 0x64 PUSH2 0x45B DUP5 PUSH1 0x1E PUSH2 0xC38 JUMP JUMPDEST PUSH2 0x465 SWAP2 SWAP1 PUSH2 0xC55 JUMP JUMPDEST SWAP1 POP PUSH1 0x0 PUSH1 0x64 PUSH2 0x476 DUP6 PUSH1 0x1E PUSH2 0xC38 JUMP JUMPDEST PUSH2 0x480 SWAP2 SWAP1 PUSH2 0xC55 JUMP JUMPDEST SWAP1 POP PUSH1 0x0 PUSH1 0x64 PUSH2 0x491 DUP7 PUSH1 0xA PUSH2 0xC38 JUMP JUMPDEST PUSH2 0x49B SWAP2 SWAP1 PUSH2 0xC55 JUMP JUMPDEST SWAP1 POP PUSH1 0x0 PUSH1 0x64 PUSH2 0x4AC DUP8 PUSH1 0xF PUSH2 0xC38 JUMP JUMPDEST PUSH2 0x4B6 SWAP2 SWAP1 PUSH2 0xC55 JUMP JUMPDEST SWAP1 POP PUSH1 0x0 DUP2 DUP4 DUP6 PUSH2 0x4C7 DUP9 DUP11 PUSH2 0xC77 JUMP JUMPDEST PUSH2 0x4D1 SWAP2 SWAP1 PUSH2 0xC77 JUMP JUMPDEST PUSH2 0x4DB SWAP2 SWAP1 PUSH2 0xC77 JUMP JUMPDEST PUSH2 0x4E5 SWAP2 SWAP1 PUSH2 0xC77 JUMP JUMPDEST SWAP1 POP PUSH1 0x0 PUSH2 0x4F3 DUP3 DUP10 PUSH2 0xC8A JUMP JUMPDEST PUSH1 0x2 SLOAD SWAP1 SWAP2 POP PUSH2 0x530 SWAP1 PUSH1 0x1 PUSH1 0x1 PUSH1 0xA0 SHL SUB PUSH32 0x0 DUP2 AND SWAP2 AND DUP10 PUSH2 0x933 JUMP JUMPDEST PUSH1 0x3 SLOAD PUSH2 0x56A SWAP1 PUSH1 0x1 PUSH1 0x1 PUSH1 0xA0 SHL SUB PUSH32 0x0 DUP2 AND SWAP2 AND DUP9 PUSH2 0x933 JUMP JUMPDEST PUSH1 0x4 SLOAD PUSH2 0x5A4 SWAP1 PUSH1 0x1 PUSH1 0x1 PUSH1 0xA0 SHL SUB PUSH32 0x0 DUP2 AND SWAP2 AND DUP8 PUSH2 0x933 JUMP JUMPDEST PUSH1 0x5 SLOAD PUSH2 0x5DE SWAP1 PUSH1 0x1 PUSH1 0x1 PUSH1 0xA0 SHL SUB PUSH32 0x0 DUP2 AND SWAP2 AND DUP7 PUSH2 0x933 JUMP JUMPDEST PUSH1 0x6 SLOAD PUSH2 0x618 SWAP1 PUSH1 0x1 PUSH1 0x1 PUSH1 0xA0 SHL SUB PUSH32 0x0 DUP2 AND SWAP2 AND DUP6 PUSH2 0x933 JUMP JUMPDEST DUP1 ISZERO PUSH2 0x658 JUMPI PUSH1 0x7 SLOAD PUSH2 0x658 SWAP1 PUSH1 0x1 PUSH1 0x1 PUSH1 0xA0 SHL SUB PUSH32 0x0 DUP2 AND SWAP2 AND DUP4 PUSH2 0x933 JUMP JUMPDEST PUSH1 0x40 DUP1 MLOAD DUP10 DUP2 MSTORE PUSH1 0x20 DUP2 ADD DUP10 SWAP1 MSTORE SWAP1 DUP2 ADD DUP8 SWAP1 MSTORE PUSH1 0x60 DUP2 ADD DUP7 SWAP1 MSTORE PUSH1 0x80 DUP2 ADD DUP6 SWAP1 MSTORE PUSH1 0xA0 DUP2 ADD DUP5 SWAP1 MSTORE PUSH1 0xC0 DUP2 ADD DUP3 SWAP1 MSTORE PUSH1 0x1 PUSH1 0x1 PUSH1 0xA0 SHL SUB DUP11 AND SWAP1 DUP12 SWAP1 PUSH32 0xF4C5FA00E9E1418EF51335C9EC69981FE2E678F10409C713345FA459EB8F01F SWAP1 PUSH1 0xE0 ADD PUSH1 0x40 MLOAD DUP1 SWAP2 SUB SWAP1 LOG3 POP POP POP POP POP POP POP PUSH2 0x6F2 PUSH1 0x1 PUSH32 0x9B779B17422D0DF92223018B32B4D1FA46E071723D6817E2486D003BECC55F00 SSTORE JUMP JUMPDEST POP POP POP JUMP JUMPDEST PUSH2 0x6FF PUSH2 0x7E5 JUMP JUMPDEST PUSH2 0x707 PUSH2 0x968 JUMP JUMPDEST JUMP JUMPDEST PUSH2 0x711 PUSH2 0x7E5 JUMP JUMPDEST PUSH2 0x707 PUSH1 0x0 PUSH2 0x9BD JUMP JUMPDEST PUSH1 0x1 SLOAD CALLER SWAP1 PUSH1 0x1 PUSH1 0x1 PUSH1 0xA0 SHL SUB AND DUP2 EQ PUSH2 0x758 JUMPI PUSH1 0x40 MLOAD PUSH4 0x118CDAA7 PUSH1 0xE0 SHL DUP2 MSTORE PUSH1 0x1 PUSH1 0x1 PUSH1 0xA0 SHL SUB DUP3 AND PUSH1 0x4 DUP3 ADD MSTORE PUSH1 0x24 ADD JUMPDEST PUSH1 0x40 MLOAD DUP1 SWAP2 SUB SWAP1 REVERT JUMPDEST PUSH2 0x761 DUP2 PUSH2 0x9BD JUMP JUMPDEST POP JUMP JUMPDEST PUSH2 0x76C PUSH2 0x7E5 JUMP JUMPDEST PUSH2 0x707 PUSH2 0x9D6 JUMP JUMPDEST PUSH2 0x77C PUSH2 0x7E5 JUMP JUMPDEST PUSH1 0x1 DUP1 SLOAD PUSH1 0x1 PUSH1 0x1 PUSH1 0xA0 SHL SUB DUP4 AND PUSH1 0x1 PUSH1 0x1 PUSH1 0xA0 SHL SUB NOT SWAP1 SWAP2 AND DUP2 OR SWAP1 SWAP2 SSTORE PUSH2 0x7AD PUSH1 0x0 SLOAD PUSH1 0x1 PUSH1 0x1 PUSH1 0xA0 SHL SUB AND SWAP1 JUMP JUMPDEST PUSH1 0x1 PUSH1 0x1 PUSH1 0xA0 SHL SUB AND PUSH32 0x38D16B8CAC22D99FC7C124B9CD0DE2D3FA1FAEF420BFE791D8C362D765E22700 PUSH1 0x40 MLOAD PUSH1 0x40 MLOAD DUP1 SWAP2 SUB SWAP1 LOG3 POP JUMP JUMPDEST PUSH1 0x0 SLOAD PUSH1 0x1 PUSH1 0x1 PUSH1 0xA0 SHL SUB AND CALLER EQ PUSH2 0x707 JUMPI PUSH1 0x40 MLOAD PUSH4 0x118CDAA7 PUSH1 0xE0 SHL DUP2 MSTORE CALLER PUSH1 0x4 DUP3 ADD MSTORE PUSH1 0x24 ADD PUSH2 0x74F JUMP JUMPDEST PUSH1 0x1 PUSH1 0x1 PUSH1 0xA0 SHL SUB DUP2 AND PUSH2 0x761 JUMPI PUSH1 0x40 MLOAD PUSH3 0x461BCD PUSH1 0xE5 SHL DUP2 MSTORE PUSH1 0x20 PUSH1 0x4 DUP3 ADD MSTORE PUSH1 0x11 PUSH1 0x24 DUP3 ADD MSTORE PUSH17 0x48423A207472656173757279207A65726F PUSH1 0x78 SHL PUSH1 0x44 DUP3 ADD MSTORE PUSH1 0x64 ADD PUSH2 0x74F JUMP JUMPDEST PUSH2 0x864 PUSH2 0xA19 JUMP JUMPDEST PUSH1 0x2 PUSH32 0x9B779B17422D0DF92223018B32B4D1FA46E071723D6817E2486D003BECC55F00 SSTORE JUMP JUMPDEST PUSH1 0x1 SLOAD PUSH1 0x1 PUSH1 0xA0 SHL SWAP1 DIV PUSH1 0xFF AND ISZERO PUSH2 0x707 JUMPI PUSH1 0x40 MLOAD PUSH4 0xD93C0665 PUSH1 0xE0 SHL DUP2 MSTORE PUSH1 0x4 ADD PUSH1 0x40 MLOAD DUP1 SWAP2 SUB SWAP1 REVERT JUMPDEST PUSH1 0x2 SLOAD PUSH2 0x8CA SWAP1 PUSH1 0x1 PUSH1 0x1 PUSH1 0xA0 SHL SUB AND PUSH2 0x812 JUMP JUMPDEST PUSH1 0x3 SLOAD PUSH2 0x8DF SWAP1 PUSH1 0x1 PUSH1 0x1 PUSH1 0xA0 SHL SUB AND PUSH2 0x812 JUMP JUMPDEST PUSH1 0x4 SLOAD PUSH2 0x8F4 SWAP1 PUSH1 0x1 PUSH1 0x1 PUSH1 0xA0 SHL SUB AND PUSH2 0x812 JUMP JUMPDEST PUSH1 0x5 SLOAD PUSH2 0x909 SWAP1 PUSH1 0x1 PUSH1 0x1 PUSH1 0xA0 SHL SUB AND PUSH2 0x812 JUMP JUMPDEST PUSH1 0x6 SLOAD PUSH2 0x91E SWAP1 PUSH1 0x1 PUSH1 0x1 PUSH1 0xA0 SHL SUB AND PUSH2 0x812 JUMP JUMPDEST PUSH1 0x7 SLOAD PUSH2 0x707 SWAP1 PUSH1 0x1 PUSH1 0x1 PUSH1 0xA0 SHL SUB AND PUSH2 0x812 JUMP JUMPDEST PUSH2 0x940 DUP4 DUP4 DUP4 PUSH1 0x1 PUSH2 0xA5B JUMP JUMPDEST PUSH2 0x6F2 JUMPI PUSH1 0x40 MLOAD PUSH4 0x5274AFE7 PUSH1 0xE0 SHL DUP2 MSTORE PUSH1 0x1 PUSH1 0x1 PUSH1 0xA0 SHL SUB DUP5 AND PUSH1 0x4 DUP3 ADD MSTORE PUSH1 0x24 ADD PUSH2 0x74F JUMP JUMPDEST PUSH2 0x970 PUSH2 0xAC1 JUMP JUMPDEST PUSH1 0x1 DUP1 SLOAD PUSH1 0xFF PUSH1 0xA0 SHL NOT AND SWAP1 SSTORE PUSH32 0x5DB9EE0A495BF2E6FF9C91A7834C1BA4FDD244A5E8AA4E537BD38AEAE4B073AA CALLER JUMPDEST PUSH1 0x40 MLOAD PUSH1 0x1 PUSH1 0x1 PUSH1 0xA0 SHL SUB SWAP1 SWAP2 AND DUP2 MSTORE PUSH1 0x20 ADD PUSH1 0x40 MLOAD DUP1 SWAP2 SUB SWAP1 LOG1 JUMP JUMPDEST PUSH1 0x1 DUP1 SLOAD PUSH1 0x1 PUSH1 0x1 PUSH1 0xA0 SHL SUB NOT AND SWAP1 SSTORE PUSH2 0x761 DUP2 PUSH2 0xAEB JUMP JUMPDEST PUSH2 0x9DE PUSH2 0x88A JUMP JUMPDEST PUSH1 0x1 DUP1 SLOAD PUSH1 0xFF PUSH1 0xA0 SHL NOT AND PUSH1 0x1 PUSH1 0xA0 SHL OR SWAP1 SSTORE PUSH32 0x62E78CEA01BEE320CD4E420270B5EA74000D11B0C9F74754EBDBFC544B05A258 PUSH2 0x9A0 CALLER SWAP1 JUMP JUMPDEST PUSH32 0x9B779B17422D0DF92223018B32B4D1FA46E071723D6817E2486D003BECC55F00 SLOAD PUSH1 0x2 SUB PUSH2 0x707 JUMPI PUSH1 0x40 MLOAD PUSH4 0x3EE5AEB5 PUSH1 0xE0 SHL DUP2 MSTORE PUSH1 0x4 ADD PUSH1 0x40 MLOAD DUP1 SWAP2 SUB SWAP1 REVERT JUMPDEST PUSH1 0x40 MLOAD PUSH4 0xA9059CBB PUSH1 0xE0 SHL PUSH1 0x0 DUP2 DUP2 MSTORE PUSH1 0x1 PUSH1 0x1 PUSH1 0xA0 SHL SUB DUP7 AND PUSH1 0x4 MSTORE PUSH1 0x24 DUP6 SWAP1 MSTORE SWAP2 PUSH1 0x20 DUP4 PUSH1 0x44 DUP2 DUP1 DUP12 GAS CALL SWAP3 POP PUSH1 0x1 PUSH1 0x0 MLOAD EQ DUP4 AND PUSH2 0xAB5 JUMPI DUP4 DUP4 ISZERO AND ISZERO PUSH2 0xAA8 JUMPI RETURNDATASIZE PUSH1 0x0 DUP3 RETURNDATACOPY RETURNDATASIZE DUP2 REVERT JUMPDEST PUSH1 0x0 DUP8 EXTCODESIZE GT RETURNDATASIZE ISZERO AND DUP4 AND SWAP3 POP JUMPDEST PUSH1 0x40 MSTORE POP SWAP5 SWAP4 POP POP POP POP JUMP JUMPDEST PUSH1 0x1 SLOAD PUSH1 0x1 PUSH1 0xA0 SHL SWAP1 DIV PUSH1 0xFF AND PUSH2 0x707 JUMPI PUSH1 0x40 MLOAD PUSH4 0x8DFC202B PUSH1 0xE0 SHL DUP2 MSTORE PUSH1 0x4 ADD PUSH1 0x40 MLOAD DUP1 SWAP2 SUB SWAP1 REVERT JUMPDEST PUSH1 0x0 DUP1 SLOAD PUSH1 0x1 PUSH1 0x1 PUSH1 0xA0 SHL SUB DUP4 DUP2 AND PUSH1 0x1 PUSH1 0x1 PUSH1 0xA0 SHL SUB NOT DUP4 AND DUP2 OR DUP5 SSTORE PUSH1 0x40 MLOAD SWAP2 SWAP1 SWAP3 AND SWAP3 DUP4 SWAP2 PUSH32 0x8BE0079C531659141344CD1FD0A4F28419497F9722A3DAAFE3B4186F6B6457E0 SWAP2 SWAP1 LOG3 POP POP JUMP JUMPDEST DUP1 CALLDATALOAD PUSH1 0x1 PUSH1 0x1 PUSH1 0xA0 SHL SUB DUP2 AND DUP2 EQ PUSH2 0xB52 JUMPI PUSH1 0x0 DUP1 REVERT JUMPDEST SWAP2 SWAP1 POP JUMP JUMPDEST PUSH1 0x0 DUP1 PUSH1 0x0 DUP1 PUSH1 0x0 DUP1 PUSH1 0xC0 DUP8 DUP10 SUB SLT ISZERO PUSH2 0xB70 JUMPI PUSH1 0x0 DUP1 REVERT JUMPDEST PUSH2 0xB79 DUP8 PUSH2 0xB3B JUMP JUMPDEST SWAP6 POP PUSH2 0xB87 PUSH1 0x20 DUP9 ADD PUSH2 0xB3B JUMP JUMPDEST SWAP5 POP PUSH2 0xB95 PUSH1 0x40 DUP9 ADD PUSH2 0xB3B JUMP JUMPDEST SWAP4 POP PUSH2 0xBA3 PUSH1 0x60 DUP9 ADD PUSH2 0xB3B JUMP JUMPDEST SWAP3 POP PUSH2 0xBB1 PUSH1 0x80 DUP9 ADD PUSH2 0xB3B JUMP JUMPDEST SWAP2 POP PUSH2 0xBBF PUSH1 0xA0 DUP9 ADD PUSH2 0xB3B JUMP JUMPDEST SWAP1 POP SWAP3 SWAP6 POP SWAP3 SWAP6 POP SWAP3 SWAP6 JUMP JUMPDEST PUSH1 0x0 DUP1 PUSH1 0x0 PUSH1 0x60 DUP5 DUP7 SUB SLT ISZERO PUSH2 0xBE0 JUMPI PUSH1 0x0 DUP1 REVERT JUMPDEST DUP4 CALLDATALOAD SWAP3 POP PUSH2 0xBF0 PUSH1 0x20 DUP6 ADD PUSH2 0xB3B JUMP JUMPDEST SWAP2 POP PUSH1 0x40 DUP5 ADD CALLDATALOAD SWAP1 POP SWAP3 POP SWAP3 POP SWAP3 JUMP JUMPDEST PUSH1 0x0 PUSH1 0x20 DUP3 DUP5 SUB SLT ISZERO PUSH2 0xC12 JUMPI PUSH1 0x0 DUP1 REVERT JUMPDEST PUSH2 0xC1B DUP3 PUSH2 0xB3B JUMP JUMPDEST SWAP4 SWAP3 POP POP POP JUMP JUMPDEST PUSH4 0x4E487B71 PUSH1 0xE0 SHL PUSH1 0x0 MSTORE PUSH1 0x11 PUSH1 0x4 MSTORE PUSH1 0x24 PUSH1 0x0 REVERT JUMPDEST DUP1 DUP3 MUL DUP2 ISZERO DUP3 DUP3 DIV DUP5 EQ OR PUSH2 0xC4F JUMPI PUSH2 0xC4F PUSH2 0xC22 JUMP JUMPDEST SWAP3 SWAP2 POP POP JUMP JUMPDEST PUSH1 0x0 DUP3 PUSH2 0xC72 JUMPI PUSH4 0x4E487B71 PUSH1 0xE0 SHL PUSH1 0x0 MSTORE PUSH1 0x12 PUSH1 0x4 MSTORE PUSH1 0x24 PUSH1 0x0 REVERT JUMPDEST POP DIV SWAP1 JUMP JUMPDEST DUP1 DUP3 ADD DUP1 DUP3 GT ISZERO PUSH2 0xC4F JUMPI PUSH2 0xC4F PUSH2 0xC22 JUMP JUMPDEST DUP2 DUP2 SUB DUP2 DUP2 GT ISZERO PUSH2 0xC4F JUMPI PUSH2 0xC4F PUSH2 0xC22 JUMP INVALID PUSH5 0x10AC85C52B LOG3 REVERT 0x27 0xB1 EXP 0xB6 DUP4 DUP9 0xB0 PUSH20 0xFB2DA3E49390E48506118349EBA4A83DA2646970 PUSH7 0x7358221220CF97 PUSH7 0x2F8B4124A82931 TSTORE PUSH12 0xFC16681B491D29FFFAAEC51A 0xA5 COINBASE 0xEB 0xDC 0xEC 0xF7 0xD6 0x4B PUSH5 0x736F6C6343 STOP ADDMOD XOR STOP CALLER "},"methodIdentifiers":{"acceptOwnership()":"79ba5097","companyReserveTreasury()":"1f226590","directIncomeTreasury()":"83ee2b7c","levelIncomeTreasury()":"e91621fb","owner()":"8da5cb5b","pause()":"8456cb59","paused()":"5c975abb","paymentToken()":"3013ce29","pendingOwner()":"e30c3978","productAllocationTreasury()":"7e9f77da","rechargeTreasury()":"07bbd843","renounceOwnership()":"715018a6","setTreasuries(address,address,address,address,address,address)":"2d0e2499","singleLegTreasury()":"46dfb14f","split(bytes32,address,uint256)":"2ffa3ce1","transferOwnership(address)":"f2fde38b","unpause()":"3f4ba83a"}}}}}