{"contracts/HalalBusinessPackageManager.sol":{"HalalBusinessPackageManager":{"abi":[{"inputs":[{"internalType":"contract IERC20","name":"token","type":"address"},{"internalType":"contract HBReferralRegistry","name":"registry","type":"address"},{"internalType":"contract HBTreasurySplitter","name":"splitter","type":"address"},{"internalType":"address","name":"initialOwner","type":"address"}],"stateMutability":"nonpayable","type":"constructor"},{"inputs":[],"name":"EnforcedPause","type":"error"},{"inputs":[],"name":"ExpectedPause","type":"error"},{"inputs":[{"internalType":"address","name":"owner","type":"address"}],"name":"OwnableInvalidOwner","type":"error"},{"inputs":[{"internalType":"address","name":"account","type":"address"}],"name":"OwnableUnauthorizedAccount","type":"error"},{"inputs":[],"name":"ReentrancyGuardReentrantCall","type":"error"},{"inputs":[{"internalType":"address","name":"token","type":"address"}],"name":"SafeERC20FailedOperation","type":"error"},{"anonymous":false,"inputs":[{"indexed":true,"internalType":"bytes32","name":"purchaseId","type":"bytes32"},{"indexed":true,"internalType":"address","name":"buyer","type":"address"},{"indexed":false,"internalType":"uint256","name":"packageId","type":"uint256"},{"indexed":false,"internalType":"uint256","name":"directAmount","type":"uint256"},{"indexed":false,"internalType":"uint256","name":"productAmount","type":"uint256"},{"indexed":false,"internalType":"uint256","name":"rechargeAmount","type":"uint256"},{"indexed":false,"internalType":"uint256","name":"levelAmount","type":"uint256"},{"indexed":false,"internalType":"uint256","name":"singleLegAmount","type":"uint256"}],"name":"DistributionCreated","type":"event"},{"anonymous":false,"inputs":[{"indexed":true,"internalType":"address","name":"previousOwner","type":"address"},{"indexed":true,"internalType":"address","name":"newOwner","type":"address"}],"name":"OwnershipTransferStarted","type":"event"},{"anonymous":false,"inputs":[{"indexed":true,"internalType":"address","name":"previousOwner","type":"address"},{"indexed":true,"internalType":"address","name":"newOwner","type":"address"}],"name":"OwnershipTransferred","type":"event"},{"anonymous":false,"inputs":[{"indexed":true,"internalType":"uint256","name":"packageId","type":"uint256"},{"indexed":false,"internalType":"uint256","name":"price","type":"uint256"},{"indexed":false,"internalType":"bool","name":"active","type":"bool"}],"name":"PackageConfigured","type":"event"},{"anonymous":false,"inputs":[{"indexed":true,"internalType":"bytes32","name":"purchaseId","type":"bytes32"},{"indexed":true,"internalType":"address","name":"buyer","type":"address"},{"indexed":true,"internalType":"uint256","name":"packageId","type":"uint256"},{"indexed":false,"internalType":"uint256","name":"price","type":"uint256"},{"indexed":false,"internalType":"address","name":"sponsor","type":"address"},{"indexed":false,"internalType":"bytes32","name":"referralCode","type":"bytes32"}],"name":"PackagePurchased","type":"event"},{"anonymous":false,"inputs":[{"indexed":false,"internalType":"address","name":"account","type":"address"}],"name":"Paused","type":"event"},{"anonymous":false,"inputs":[{"indexed":true,"internalType":"address","name":"buyer","type":"address"},{"indexed":true,"internalType":"address","name":"sponsor","type":"address"},{"indexed":true,"internalType":"bytes32","name":"referralCode","type":"bytes32"}],"name":"SponsorLinked","type":"event"},{"anonymous":false,"inputs":[{"indexed":false,"internalType":"address","name":"account","type":"address"}],"name":"Unpaused","type":"event"},{"inputs":[],"name":"acceptOwnership","outputs":[],"stateMutability":"nonpayable","type":"function"},{"inputs":[],"name":"acceptTreasurySplitterOwnership","outputs":[],"stateMutability":"nonpayable","type":"function"},{"inputs":[{"internalType":"uint256","name":"packageId","type":"uint256"},{"internalType":"address","name":"sponsorAddress","type":"address"},{"internalType":"bytes32","name":"referralCode","type":"bytes32"}],"name":"buyPackage","outputs":[],"stateMutability":"nonpayable","type":"function"},{"inputs":[{"internalType":"address","name":"","type":"address"}],"name":"currentPackageId","outputs":[{"internalType":"uint256","name":"","type":"uint256"}],"stateMutability":"view","type":"function"},{"inputs":[{"internalType":"address","name":"","type":"address"}],"name":"currentPackagePrice","outputs":[{"internalType":"uint256","name":"","type":"uint256"}],"stateMutability":"view","type":"function"},{"inputs":[],"name":"owner","outputs":[{"internalType":"address","name":"","type":"address"}],"stateMutability":"view","type":"function"},{"inputs":[{"internalType":"uint256","name":"","type":"uint256"}],"name":"packages","outputs":[{"internalType":"uint256","name":"price","type":"uint256"},{"internalType":"bool","name":"active","type":"bool"}],"stateMutability":"view","type":"function"},{"inputs":[],"name":"pause","outputs":[],"stateMutability":"nonpayable","type":"function"},{"inputs":[],"name":"pauseTreasurySplitter","outputs":[],"stateMutability":"nonpayable","type":"function"},{"inputs":[],"name":"paused","outputs":[{"internalType":"bool","name":"","type":"bool"}],"stateMutability":"view","type":"function"},{"inputs":[],"name":"paymentToken","outputs":[{"internalType":"contract IERC20","name":"","type":"address"}],"stateMutability":"view","type":"function"},{"inputs":[],"name":"pendingOwner","outputs":[{"internalType":"address","name":"","type":"address"}],"stateMutability":"view","type":"function"},{"inputs":[],"name":"referralRegistry","outputs":[{"internalType":"contract HBReferralRegistry","name":"","type":"address"}],"stateMutability":"view","type":"function"},{"inputs":[],"name":"renounceOwnership","outputs":[],"stateMutability":"nonpayable","type":"function"},{"inputs":[{"internalType":"contract HBReferralRegistry","name":"registry","type":"address"},{"internalType":"contract HBTreasurySplitter","name":"splitter","type":"address"}],"name":"setDependencies","outputs":[],"stateMutability":"nonpayable","type":"function"},{"inputs":[{"internalType":"uint256","name":"packageId","type":"uint256"},{"internalType":"uint256","name":"price","type":"uint256"},{"internalType":"bool","name":"active","type":"bool"}],"name":"setPackage","outputs":[],"stateMutability":"nonpayable","type":"function"},{"inputs":[{"internalType":"address","name":"newOwner","type":"address"}],"name":"transferOwnership","outputs":[],"stateMutability":"nonpayable","type":"function"},{"inputs":[],"name":"treasurySplitter","outputs":[{"internalType":"contract HBTreasurySplitter","name":"","type":"address"}],"stateMutability":"view","type":"function"},{"inputs":[],"name":"unpause","outputs":[],"stateMutability":"nonpayable","type":"function"},{"inputs":[],"name":"unpauseTreasurySplitter","outputs":[],"stateMutability":"nonpayable","type":"function"}],"evm":{"bytecode":{"linkReferences":{},"object":"60a06040523480156200001157600080fd5b5060405162001499380380620014998339810160408190526200003491620003c8565b806001600160a01b0381166200006557604051631e4fbdf760e01b8152600060048201526024015b60405180910390fd5b620000708162000244565b5060017f9b779b17422d0df92223018b32b4d1fa46e071723d6817e2486d003becc55f00556001600160a01b038416620000de5760405162461bcd60e51b815260206004820152600e60248201526d48423a20746f6b656e207a65726f60901b60448201526064016200005c565b6001600160a01b0383166200012a5760405162461bcd60e51b815260206004820152601160248201527048423a207265676973747279207a65726f60781b60448201526064016200005c565b6001600160a01b038216620001765760405162461bcd60e51b815260206004820152601160248201527048423a2073706c6974746572207a65726f60781b60448201526064016200005c565b6001600160a01b03848116608052600280546001600160a01b03199081168684161790915560038054909116918416919091179055620001c16001673782dace9d9000008162000262565b620001d960026801158e460913d00000600162000262565b620001f1600368056bc75e2d63100000600162000262565b620002096004681b1ae4d6e2ef500000600162000262565b62000221600568878678326eac900000600162000262565b6200023a60066902a5a058fc295ed00000600162000262565b5050505062000430565b600180546001600160a01b03191690556200025f8162000362565b50565b60008311620002a75760405162461bcd60e51b815260206004820152601060248201526f48423a207061636b616765207a65726f60801b60448201526064016200005c565b60008211620002ea5760405162461bcd60e51b815260206004820152600e60248201526d48423a207072696365207a65726f60901b60448201526064016200005c565b604080518082018252838152821515602080830182815260008881526004835285902093518455516001909301805460ff19169315159390931790925582518581529182015284917fbcf71c11d7eebe400b8d795c951de0289247c17af6a78342577367bcb4cda9c8910160405180910390a2505050565b600080546001600160a01b038381166001600160a01b0319831681178455604051919092169283917f8be0079c531659141344cd1fd0a4f28419497f9722a3daafe3b4186f6b6457e09190a35050565b6001600160a01b03811681146200025f57600080fd5b60008060008060808587031215620003df57600080fd5b8451620003ec81620003b2565b6020860151909450620003ff81620003b2565b60408601519093506200041281620003b2565b60608601519092506200042581620003b2565b939692955090935050565b608051611046620004536000396000818161014801526106e101526110466000f3fe608060405234801561001057600080fd5b506004361061012c5760003560e01c8063715018a6116100ad578063c01f760811610071578063c01f76081461026f578063c216212a14610277578063e30c3978146102b6578063e87c28a7146102c7578063f2fde38b146102da57600080fd5b8063715018a61461023357806379ba50971461023b5780638456cb59146102435780638b1b38661461024b5780638da5cb5b1461025e57600080fd5b80634e627e62116100f45780634e627e62146101bd57806354b8cf6d146101d057806357aed207146101e35780635b5d06cc146101f65780635c975abb1461021657600080fd5b8063022f7a0414610131578063234d61091461013b5780633013ce29146101435780633c942a08146101875780633f4ba83a146101b5575b600080fd5b6101396102ed565b005b61013961035f565b61016a7f000000000000000000000000000000000000000000000000000000000000000081565b6040516001600160a01b0390911681526020015b60405180910390f35b6101a7610195366004610eba565b60066020526000908152604090205481565b60405190815260200161017e565b6101396103b7565b60025461016a906001600160a01b031681565b6101396101de366004610ede565b6103c9565b6101396101f1366004610f16565b610902565b6101a7610204366004610eba565b60056020526000908152604090205481565b600154600160a01b900460ff16604051901515815260200161017e565b610139610915565b610139610927565b61013961096b565b60035461016a906001600160a01b031681565b6000546001600160a01b031661016a565b61013961097b565b6102a1610285366004610f54565b6004602052600090815260409020805460019091015460ff1682565b6040805192835290151560208301520161017e565b6001546001600160a01b031661016a565b6101396102d5366004610f6d565b6109d3565b6101396102e8366004610eba565b610a9d565b6102f5610b0e565b600360009054906101000a90046001600160a01b03166001600160a01b0316638456cb596040518163ffffffff1660e01b8152600401600060405180830381600087803b15801561034557600080fd5b505af1158015610359573d6000803e3d6000fd5b50505050565b610367610b0e565b600360009054906101000a90046001600160a01b03166001600160a01b03166379ba50976040518163ffffffff1660e01b8152600401600060405180830381600087803b15801561034557600080fd5b6103bf610b0e565b6103c7610b3b565b565b6103d1610b90565b6103d9610bbe565b6000838152600460209081526040918290208251808401909352805483526001015460ff16151590820181905261044d5760405162461bcd60e51b815260206004820152601360248201527248423a20696e76616c6964207061636b61676560681b60448201526064015b60405180910390fd5b805161048f5760405162461bcd60e51b815260206004820152601160248201527048423a207072696365206d697373696e6760781b6044820152606401610444565b826001600160a01b0381161580156104a657508215155b1561051b5760025460405163c4f343fd60e01b8152600481018590526001600160a01b039091169063c4f343fd90602401602060405180830381865afa1580156104f4573d6000803e3d6000fd5b505050506040513d601f19601f820116820180604052508101906105189190610fa6565b90505b6001600160a01b038116158015906105a65750600254604051631a70845360e11b81523360048201526000916001600160a01b0316906334e108a690602401602060405180830381865afa158015610577573d6000803e3d6000fd5b505050506040513d601f19601f8201168201806040525081019061059b9190610fa6565b6001600160a01b0316145b156106505760025460405163ce900f5760e01b81523360048201526001600160a01b038381166024830152604482018690529091169063ce900f5790606401600060405180830381600087803b1580156105ff57600080fd5b505af1158015610613573d6000803e3d6000fd5b50506040518592506001600160a01b038416915033907f50db5bae9e391b946ce57405afd82a03203aebc4af75e18b7285fb0c76b9d91f90600090a45b33600081815260066020908152604080832054905192936106b393469330938c92439201958652606094851b6bffffffffffffffffffffffff1990811660208801529390941b909216603485015260488401526068830152608882015260a80190565b60408051808303601f190181529190528051602090910120600354845191925061070d916001600160a01b037f00000000000000000000000000000000000000000000000000000000000000008116923392911690610be9565b6003548351604051632ffa3ce160e01b81526004810184905233602482015260448101919091526001600160a01b0390911690632ffa3ce190606401600060405180830381600087803b15801561076357600080fd5b505af1158015610777573d6000803e3d6000fd5b50503360008181526005602090815260408083208c90558851600683529281902092909255875182519081526001600160a01b0388169181019190915290810188905289935090915083907f9fa0a7cff4e0fc146dee3178cf33484b3ad3abb6266ab2f2dfcca541e64907039060600160405180910390a4336001600160a01b0316817f58f6fb519bf89db3b04f7a6c34a2e0857ed55c00b6ad0051d8cf2d96470dbc7e8860648760000151600f61082f9190610fc3565b6108399190610fee565b875160649061084990601e610fc3565b6108539190610fee565b885160649061086390601e610fc3565b61086d9190610fee565b895160649061087d90600a610fc3565b6108879190610fee565b8a5160649061089790600f610fc3565b6108a19190610fee565b604080519687526020870195909552938501929092526060840152608083015260a082015260c00160405180910390a35050506108fd60017f9b779b17422d0df92223018b32b4d1fa46e071723d6817e2486d003becc55f0055565b505050565b61090a610b0e565b6108fd838383610c1f565b61091d610b0e565b6103c76000610d1b565b60015433906001600160a01b0316811461095f5760405163118cdaa760e01b81526001600160a01b0382166004820152602401610444565b61096881610d1b565b50565b610973610b0e565b6103c7610d34565b610983610b0e565b600360009054906101000a90046001600160a01b03166001600160a01b0316633f4ba83a6040518163ffffffff1660e01b8152600401600060405180830381600087803b15801561034557600080fd5b6109db610b0e565b6001600160a01b038216610a255760405162461bcd60e51b815260206004820152601160248201527048423a207265676973747279207a65726f60781b6044820152606401610444565b6001600160a01b038116610a6f5760405162461bcd60e51b815260206004820152601160248201527048423a2073706c6974746572207a65726f60781b6044820152606401610444565b600280546001600160a01b039384166001600160a01b03199182161790915560038054929093169116179055565b610aa5610b0e565b600180546001600160a01b0383166001600160a01b03199091168117909155610ad66000546001600160a01b031690565b6001600160a01b03167f38d16b8cac22d99fc7c124b9cd0de2d3fa1faef420bfe791d8c362d765e2270060405160405180910390a350565b6000546001600160a01b031633146103c75760405163118cdaa760e01b8152336004820152602401610444565b610b43610d77565b6001805460ff60a01b191690557f5db9ee0a495bf2e6ff9c91a7834c1ba4fdd244a5e8aa4e537bd38aeae4b073aa335b6040516001600160a01b03909116815260200160405180910390a1565b610b98610da1565b60027f9b779b17422d0df92223018b32b4d1fa46e071723d6817e2486d003becc55f0055565b600154600160a01b900460ff16156103c75760405163d93c066560e01b815260040160405180910390fd5b610bf7848484846001610de3565b61035957604051635274afe760e01b81526001600160a01b0385166004820152602401610444565b60008311610c625760405162461bcd60e51b815260206004820152601060248201526f48423a207061636b616765207a65726f60801b6044820152606401610444565b60008211610ca35760405162461bcd60e51b815260206004820152600e60248201526d48423a207072696365207a65726f60901b6044820152606401610444565b604080518082018252838152821515602080830182815260008881526004835285902093518455516001909301805460ff19169315159390931790925582518581529182015284917fbcf71c11d7eebe400b8d795c951de0289247c17af6a78342577367bcb4cda9c8910160405180910390a2505050565b600180546001600160a01b031916905561096881610e55565b610d3c610bbe565b6001805460ff60a01b1916600160a01b1790557f62e78cea01bee320cd4e420270b5ea74000d11b0c9f74754ebdbfc544b05a258610b733390565b600154600160a01b900460ff166103c757604051638dfc202b60e01b815260040160405180910390fd5b7f9b779b17422d0df92223018b32b4d1fa46e071723d6817e2486d003becc55f00546002036103c757604051633ee5aeb560e01b815260040160405180910390fd5b6040516323b872dd60e01b60008181526001600160a01b038781166004528616602452604485905291602083606481808c5af192506001600051148316610e43578383151615610e36573d6000823e3d81fd5b6000883b113d1516831692505b60405250600060605295945050505050565b600080546001600160a01b038381166001600160a01b0319831681178455604051919092169283917f8be0079c531659141344cd1fd0a4f28419497f9722a3daafe3b4186f6b6457e09190a35050565b6001600160a01b038116811461096857600080fd5b600060208284031215610ecc57600080fd5b8135610ed781610ea5565b9392505050565b600080600060608486031215610ef357600080fd5b833592506020840135610f0581610ea5565b929592945050506040919091013590565b600080600060608486031215610f2b57600080fd5b833592506020840135915060408401358015158114610f4957600080fd5b809150509250925092565b600060208284031215610f6657600080fd5b5035919050565b60008060408385031215610f8057600080fd5b8235610f8b81610ea5565b91506020830135610f9b81610ea5565b809150509250929050565b600060208284031215610fb857600080fd5b8151610ed781610ea5565b8082028115828204841417610fe857634e487b7160e01b600052601160045260246000fd5b92915050565b60008261100b57634e487b7160e01b600052601260045260246000fd5b50049056fea26469706673582212204c83927dfe1a8c0f19fdf5d59a010ad6a7e863261ee748d19fb68dcde9f216d064736f6c63430008180033","opcodes":"PUSH1 0xA0 PUSH1 0x40 MSTORE CALLVALUE DUP1 ISZERO PUSH3 0x11 JUMPI PUSH1 0x0 DUP1 REVERT JUMPDEST POP PUSH1 0x40 MLOAD PUSH3 0x1499 CODESIZE SUB DUP1 PUSH3 0x1499 DUP4 CODECOPY DUP2 ADD PUSH1 0x40 DUP2 SWAP1 MSTORE PUSH3 0x34 SWAP2 PUSH3 0x3C8 JUMP JUMPDEST DUP1 PUSH1 0x1 PUSH1 0x1 PUSH1 0xA0 SHL SUB DUP2 AND PUSH3 0x65 JUMPI PUSH1 0x40 MLOAD PUSH4 0x1E4FBDF7 PUSH1 0xE0 SHL DUP2 MSTORE PUSH1 0x0 PUSH1 0x4 DUP3 ADD MSTORE PUSH1 0x24 ADD JUMPDEST PUSH1 0x40 MLOAD DUP1 SWAP2 SUB SWAP1 REVERT JUMPDEST PUSH3 0x70 DUP2 PUSH3 0x244 JUMP JUMPDEST POP PUSH1 0x1 PUSH32 0x9B779B17422D0DF92223018B32B4D1FA46E071723D6817E2486D003BECC55F00 SSTORE PUSH1 0x1 PUSH1 0x1 PUSH1 0xA0 SHL SUB DUP5 AND PUSH3 0xDE JUMPI PUSH1 0x40 MLOAD PUSH3 0x461BCD PUSH1 0xE5 SHL DUP2 MSTORE PUSH1 0x20 PUSH1 0x4 DUP3 ADD MSTORE PUSH1 0xE PUSH1 0x24 DUP3 ADD MSTORE PUSH14 0x48423A20746F6B656E207A65726F PUSH1 0x90 SHL PUSH1 0x44 DUP3 ADD MSTORE PUSH1 0x64 ADD PUSH3 0x5C JUMP JUMPDEST PUSH1 0x1 PUSH1 0x1 PUSH1 0xA0 SHL SUB DUP4 AND PUSH3 0x12A JUMPI PUSH1 0x40 MLOAD PUSH3 0x461BCD PUSH1 0xE5 SHL DUP2 MSTORE PUSH1 0x20 PUSH1 0x4 DUP3 ADD MSTORE PUSH1 0x11 PUSH1 0x24 DUP3 ADD MSTORE PUSH17 0x48423A207265676973747279207A65726F PUSH1 0x78 SHL PUSH1 0x44 DUP3 ADD MSTORE PUSH1 0x64 ADD PUSH3 0x5C JUMP JUMPDEST PUSH1 0x1 PUSH1 0x1 PUSH1 0xA0 SHL SUB DUP3 AND PUSH3 0x176 JUMPI PUSH1 0x40 MLOAD PUSH3 0x461BCD PUSH1 0xE5 SHL DUP2 MSTORE PUSH1 0x20 PUSH1 0x4 DUP3 ADD MSTORE PUSH1 0x11 PUSH1 0x24 DUP3 ADD MSTORE PUSH17 0x48423A2073706C6974746572207A65726F PUSH1 0x78 SHL PUSH1 0x44 DUP3 ADD MSTORE PUSH1 0x64 ADD PUSH3 0x5C JUMP JUMPDEST PUSH1 0x1 PUSH1 0x1 PUSH1 0xA0 SHL SUB DUP5 DUP2 AND PUSH1 0x80 MSTORE PUSH1 0x2 DUP1 SLOAD PUSH1 0x1 PUSH1 0x1 PUSH1 0xA0 SHL SUB NOT SWAP1 DUP2 AND DUP7 DUP5 AND OR SWAP1 SWAP2 SSTORE PUSH1 0x3 DUP1 SLOAD SWAP1 SWAP2 AND SWAP2 DUP5 AND SWAP2 SWAP1 SWAP2 OR SWAP1 SSTORE PUSH3 0x1C1 PUSH1 0x1 PUSH8 0x3782DACE9D900000 DUP2 PUSH3 0x262 JUMP JUMPDEST PUSH3 0x1D9 PUSH1 0x2 PUSH9 0x1158E460913D00000 PUSH1 0x1 PUSH3 0x262 JUMP JUMPDEST PUSH3 0x1F1 PUSH1 0x3 PUSH9 0x56BC75E2D63100000 PUSH1 0x1 PUSH3 0x262 JUMP JUMPDEST PUSH3 0x209 PUSH1 0x4 PUSH9 0x1B1AE4D6E2EF500000 PUSH1 0x1 PUSH3 0x262 JUMP JUMPDEST PUSH3 0x221 PUSH1 0x5 PUSH9 0x878678326EAC900000 PUSH1 0x1 PUSH3 0x262 JUMP JUMPDEST PUSH3 0x23A PUSH1 0x6 PUSH10 0x2A5A058FC295ED00000 PUSH1 0x1 PUSH3 0x262 JUMP JUMPDEST POP POP POP POP PUSH3 0x430 JUMP JUMPDEST PUSH1 0x1 DUP1 SLOAD PUSH1 0x1 PUSH1 0x1 PUSH1 0xA0 SHL SUB NOT AND SWAP1 SSTORE PUSH3 0x25F DUP2 PUSH3 0x362 JUMP JUMPDEST POP JUMP JUMPDEST PUSH1 0x0 DUP4 GT PUSH3 0x2A7 JUMPI PUSH1 0x40 MLOAD PUSH3 0x461BCD PUSH1 0xE5 SHL DUP2 MSTORE PUSH1 0x20 PUSH1 0x4 DUP3 ADD MSTORE PUSH1 0x10 PUSH1 0x24 DUP3 ADD MSTORE PUSH16 0x48423A207061636B616765207A65726F PUSH1 0x80 SHL PUSH1 0x44 DUP3 ADD MSTORE PUSH1 0x64 ADD PUSH3 0x5C JUMP JUMPDEST PUSH1 0x0 DUP3 GT PUSH3 0x2EA JUMPI PUSH1 0x40 MLOAD PUSH3 0x461BCD PUSH1 0xE5 SHL DUP2 MSTORE PUSH1 0x20 PUSH1 0x4 DUP3 ADD MSTORE PUSH1 0xE PUSH1 0x24 DUP3 ADD MSTORE PUSH14 0x48423A207072696365207A65726F PUSH1 0x90 SHL PUSH1 0x44 DUP3 ADD MSTORE PUSH1 0x64 ADD PUSH3 0x5C JUMP JUMPDEST PUSH1 0x40 DUP1 MLOAD DUP1 DUP3 ADD DUP3 MSTORE DUP4 DUP2 MSTORE DUP3 ISZERO ISZERO PUSH1 0x20 DUP1 DUP4 ADD DUP3 DUP2 MSTORE PUSH1 0x0 DUP9 DUP2 MSTORE PUSH1 0x4 DUP4 MSTORE DUP6 SWAP1 KECCAK256 SWAP4 MLOAD DUP5 SSTORE MLOAD PUSH1 0x1 SWAP1 SWAP4 ADD DUP1 SLOAD PUSH1 0xFF NOT AND SWAP4 ISZERO ISZERO SWAP4 SWAP1 SWAP4 OR SWAP1 SWAP3 SSTORE DUP3 MLOAD DUP6 DUP2 MSTORE SWAP2 DUP3 ADD MSTORE DUP5 SWAP2 PUSH32 0xBCF71C11D7EEBE400B8D795C951DE0289247C17AF6A78342577367BCB4CDA9C8 SWAP2 ADD PUSH1 0x40 MLOAD DUP1 SWAP2 SUB SWAP1 LOG2 POP POP POP JUMP JUMPDEST PUSH1 0x0 DUP1 SLOAD PUSH1 0x1 PUSH1 0x1 PUSH1 0xA0 SHL SUB DUP4 DUP2 AND PUSH1 0x1 PUSH1 0x1 PUSH1 0xA0 SHL SUB NOT DUP4 AND DUP2 OR DUP5 SSTORE PUSH1 0x40 MLOAD SWAP2 SWAP1 SWAP3 AND SWAP3 DUP4 SWAP2 PUSH32 0x8BE0079C531659141344CD1FD0A4F28419497F9722A3DAAFE3B4186F6B6457E0 SWAP2 SWAP1 LOG3 POP POP JUMP JUMPDEST PUSH1 0x1 PUSH1 0x1 PUSH1 0xA0 SHL SUB DUP2 AND DUP2 EQ PUSH3 0x25F JUMPI PUSH1 0x0 DUP1 REVERT JUMPDEST PUSH1 0x0 DUP1 PUSH1 0x0 DUP1 PUSH1 0x80 DUP6 DUP8 SUB SLT ISZERO PUSH3 0x3DF JUMPI PUSH1 0x0 DUP1 REVERT JUMPDEST DUP5 MLOAD PUSH3 0x3EC DUP2 PUSH3 0x3B2 JUMP JUMPDEST PUSH1 0x20 DUP7 ADD MLOAD SWAP1 SWAP5 POP PUSH3 0x3FF DUP2 PUSH3 0x3B2 JUMP JUMPDEST PUSH1 0x40 DUP7 ADD MLOAD SWAP1 SWAP4 POP PUSH3 0x412 DUP2 PUSH3 0x3B2 JUMP JUMPDEST PUSH1 0x60 DUP7 ADD MLOAD SWAP1 SWAP3 POP PUSH3 0x425 DUP2 PUSH3 0x3B2 JUMP JUMPDEST SWAP4 SWAP7 SWAP3 SWAP6 POP SWAP1 SWAP4 POP POP JUMP JUMPDEST PUSH1 0x80 MLOAD PUSH2 0x1046 PUSH3 0x453 PUSH1 0x0 CODECOPY PUSH1 0x0 DUP2 DUP2 PUSH2 0x148 ADD MSTORE PUSH2 0x6E1 ADD MSTORE PUSH2 0x1046 PUSH1 0x0 RETURN INVALID PUSH1 0x80 PUSH1 0x40 MSTORE CALLVALUE DUP1 ISZERO PUSH2 0x10 JUMPI PUSH1 0x0 DUP1 REVERT JUMPDEST POP PUSH1 0x4 CALLDATASIZE LT PUSH2 0x12C JUMPI PUSH1 0x0 CALLDATALOAD PUSH1 0xE0 SHR DUP1 PUSH4 0x715018A6 GT PUSH2 0xAD JUMPI DUP1 PUSH4 0xC01F7608 GT PUSH2 0x71 JUMPI DUP1 PUSH4 0xC01F7608 EQ PUSH2 0x26F JUMPI DUP1 PUSH4 0xC216212A EQ PUSH2 0x277 JUMPI DUP1 PUSH4 0xE30C3978 EQ PUSH2 0x2B6 JUMPI DUP1 PUSH4 0xE87C28A7 EQ PUSH2 0x2C7 JUMPI DUP1 PUSH4 0xF2FDE38B EQ PUSH2 0x2DA JUMPI PUSH1 0x0 DUP1 REVERT JUMPDEST DUP1 PUSH4 0x715018A6 EQ PUSH2 0x233 JUMPI DUP1 PUSH4 0x79BA5097 EQ PUSH2 0x23B JUMPI DUP1 PUSH4 0x8456CB59 EQ PUSH2 0x243 JUMPI DUP1 PUSH4 0x8B1B3866 EQ PUSH2 0x24B JUMPI DUP1 PUSH4 0x8DA5CB5B EQ PUSH2 0x25E JUMPI PUSH1 0x0 DUP1 REVERT JUMPDEST DUP1 PUSH4 0x4E627E62 GT PUSH2 0xF4 JUMPI DUP1 PUSH4 0x4E627E62 EQ PUSH2 0x1BD JUMPI DUP1 PUSH4 0x54B8CF6D EQ PUSH2 0x1D0 JUMPI DUP1 PUSH4 0x57AED207 EQ PUSH2 0x1E3 JUMPI DUP1 PUSH4 0x5B5D06CC EQ PUSH2 0x1F6 JUMPI DUP1 PUSH4 0x5C975ABB EQ PUSH2 0x216 JUMPI PUSH1 0x0 DUP1 REVERT JUMPDEST DUP1 PUSH4 0x22F7A04 EQ PUSH2 0x131 JUMPI DUP1 PUSH4 0x234D6109 EQ PUSH2 0x13B JUMPI DUP1 PUSH4 0x3013CE29 EQ PUSH2 0x143 JUMPI DUP1 PUSH4 0x3C942A08 EQ PUSH2 0x187 JUMPI DUP1 PUSH4 0x3F4BA83A EQ PUSH2 0x1B5 JUMPI JUMPDEST PUSH1 0x0 DUP1 REVERT JUMPDEST PUSH2 0x139 PUSH2 0x2ED JUMP JUMPDEST STOP JUMPDEST PUSH2 0x139 PUSH2 0x35F JUMP JUMPDEST PUSH2 0x16A PUSH32 0x0 DUP2 JUMP JUMPDEST PUSH1 0x40 MLOAD PUSH1 0x1 PUSH1 0x1 PUSH1 0xA0 SHL SUB SWAP1 SWAP2 AND DUP2 MSTORE PUSH1 0x20 ADD JUMPDEST PUSH1 0x40 MLOAD DUP1 SWAP2 SUB SWAP1 RETURN JUMPDEST PUSH2 0x1A7 PUSH2 0x195 CALLDATASIZE PUSH1 0x4 PUSH2 0xEBA JUMP JUMPDEST PUSH1 0x6 PUSH1 0x20 MSTORE PUSH1 0x0 SWAP1 DUP2 MSTORE PUSH1 0x40 SWAP1 KECCAK256 SLOAD DUP2 JUMP JUMPDEST PUSH1 0x40 MLOAD SWAP1 DUP2 MSTORE PUSH1 0x20 ADD PUSH2 0x17E JUMP JUMPDEST PUSH2 0x139 PUSH2 0x3B7 JUMP JUMPDEST PUSH1 0x2 SLOAD PUSH2 0x16A SWAP1 PUSH1 0x1 PUSH1 0x1 PUSH1 0xA0 SHL SUB AND DUP2 JUMP JUMPDEST PUSH2 0x139 PUSH2 0x1DE CALLDATASIZE PUSH1 0x4 PUSH2 0xEDE JUMP JUMPDEST PUSH2 0x3C9 JUMP JUMPDEST PUSH2 0x139 PUSH2 0x1F1 CALLDATASIZE PUSH1 0x4 PUSH2 0xF16 JUMP JUMPDEST PUSH2 0x902 JUMP JUMPDEST PUSH2 0x1A7 PUSH2 0x204 CALLDATASIZE PUSH1 0x4 PUSH2 0xEBA JUMP JUMPDEST PUSH1 0x5 PUSH1 0x20 MSTORE PUSH1 0x0 SWAP1 DUP2 MSTORE PUSH1 0x40 SWAP1 KECCAK256 SLOAD DUP2 JUMP JUMPDEST PUSH1 0x1 SLOAD PUSH1 0x1 PUSH1 0xA0 SHL SWAP1 DIV PUSH1 0xFF AND PUSH1 0x40 MLOAD SWAP1 ISZERO ISZERO DUP2 MSTORE PUSH1 0x20 ADD PUSH2 0x17E JUMP JUMPDEST PUSH2 0x139 PUSH2 0x915 JUMP JUMPDEST PUSH2 0x139 PUSH2 0x927 JUMP JUMPDEST PUSH2 0x139 PUSH2 0x96B JUMP JUMPDEST PUSH1 0x3 SLOAD PUSH2 0x16A SWAP1 PUSH1 0x1 PUSH1 0x1 PUSH1 0xA0 SHL SUB AND DUP2 JUMP JUMPDEST PUSH1 0x0 SLOAD PUSH1 0x1 PUSH1 0x1 PUSH1 0xA0 SHL SUB AND PUSH2 0x16A JUMP JUMPDEST PUSH2 0x139 PUSH2 0x97B JUMP JUMPDEST PUSH2 0x2A1 PUSH2 0x285 CALLDATASIZE PUSH1 0x4 PUSH2 0xF54 JUMP JUMPDEST PUSH1 0x4 PUSH1 0x20 MSTORE PUSH1 0x0 SWAP1 DUP2 MSTORE PUSH1 0x40 SWAP1 KECCAK256 DUP1 SLOAD PUSH1 0x1 SWAP1 SWAP2 ADD SLOAD PUSH1 0xFF AND DUP3 JUMP JUMPDEST PUSH1 0x40 DUP1 MLOAD SWAP3 DUP4 MSTORE SWAP1 ISZERO ISZERO PUSH1 0x20 DUP4 ADD MSTORE ADD PUSH2 0x17E JUMP JUMPDEST PUSH1 0x1 SLOAD PUSH1 0x1 PUSH1 0x1 PUSH1 0xA0 SHL SUB AND PUSH2 0x16A JUMP JUMPDEST PUSH2 0x139 PUSH2 0x2D5 CALLDATASIZE PUSH1 0x4 PUSH2 0xF6D JUMP JUMPDEST PUSH2 0x9D3 JUMP JUMPDEST PUSH2 0x139 PUSH2 0x2E8 CALLDATASIZE PUSH1 0x4 PUSH2 0xEBA JUMP JUMPDEST PUSH2 0xA9D JUMP JUMPDEST PUSH2 0x2F5 PUSH2 0xB0E JUMP JUMPDEST PUSH1 0x3 PUSH1 0x0 SWAP1 SLOAD SWAP1 PUSH2 0x100 EXP SWAP1 DIV PUSH1 0x1 PUSH1 0x1 PUSH1 0xA0 SHL SUB AND PUSH1 0x1 PUSH1 0x1 PUSH1 0xA0 SHL SUB AND PUSH4 0x8456CB59 PUSH1 0x40 MLOAD DUP2 PUSH4 0xFFFFFFFF AND PUSH1 0xE0 SHL DUP2 MSTORE PUSH1 0x4 ADD PUSH1 0x0 PUSH1 0x40 MLOAD DUP1 DUP4 SUB DUP2 PUSH1 0x0 DUP8 DUP1 EXTCODESIZE ISZERO DUP1 ISZERO PUSH2 0x345 JUMPI PUSH1 0x0 DUP1 REVERT JUMPDEST POP GAS CALL ISZERO DUP1 ISZERO PUSH2 0x359 JUMPI RETURNDATASIZE PUSH1 0x0 DUP1 RETURNDATACOPY RETURNDATASIZE PUSH1 0x0 REVERT JUMPDEST POP POP POP POP JUMP JUMPDEST PUSH2 0x367 PUSH2 0xB0E JUMP JUMPDEST PUSH1 0x3 PUSH1 0x0 SWAP1 SLOAD SWAP1 PUSH2 0x100 EXP SWAP1 DIV PUSH1 0x1 PUSH1 0x1 PUSH1 0xA0 SHL SUB AND PUSH1 0x1 PUSH1 0x1 PUSH1 0xA0 SHL SUB AND PUSH4 0x79BA5097 PUSH1 0x40 MLOAD DUP2 PUSH4 0xFFFFFFFF AND PUSH1 0xE0 SHL DUP2 MSTORE PUSH1 0x4 ADD PUSH1 0x0 PUSH1 0x40 MLOAD DUP1 DUP4 SUB DUP2 PUSH1 0x0 DUP8 DUP1 EXTCODESIZE ISZERO DUP1 ISZERO PUSH2 0x345 JUMPI PUSH1 0x0 DUP1 REVERT JUMPDEST PUSH2 0x3BF PUSH2 0xB0E JUMP JUMPDEST PUSH2 0x3C7 PUSH2 0xB3B JUMP JUMPDEST JUMP JUMPDEST PUSH2 0x3D1 PUSH2 0xB90 JUMP JUMPDEST PUSH2 0x3D9 PUSH2 0xBBE JUMP JUMPDEST PUSH1 0x0 DUP4 DUP2 MSTORE PUSH1 0x4 PUSH1 0x20 SWAP1 DUP2 MSTORE PUSH1 0x40 SWAP2 DUP3 SWAP1 KECCAK256 DUP3 MLOAD DUP1 DUP5 ADD SWAP1 SWAP4 MSTORE DUP1 SLOAD DUP4 MSTORE PUSH1 0x1 ADD SLOAD PUSH1 0xFF AND ISZERO ISZERO SWAP1 DUP3 ADD DUP2 SWAP1 MSTORE PUSH2 0x44D JUMPI PUSH1 0x40 MLOAD PUSH3 0x461BCD PUSH1 0xE5 SHL DUP2 MSTORE PUSH1 0x20 PUSH1 0x4 DUP3 ADD MSTORE PUSH1 0x13 PUSH1 0x24 DUP3 ADD MSTORE PUSH19 0x48423A20696E76616C6964207061636B616765 PUSH1 0x68 SHL PUSH1 0x44 DUP3 ADD MSTORE PUSH1 0x64 ADD JUMPDEST PUSH1 0x40 MLOAD DUP1 SWAP2 SUB SWAP1 REVERT JUMPDEST DUP1 MLOAD PUSH2 0x48F JUMPI PUSH1 0x40 MLOAD PUSH3 0x461BCD PUSH1 0xE5 SHL DUP2 MSTORE PUSH1 0x20 PUSH1 0x4 DUP3 ADD MSTORE PUSH1 0x11 PUSH1 0x24 DUP3 ADD MSTORE PUSH17 0x48423A207072696365206D697373696E67 PUSH1 0x78 SHL PUSH1 0x44 DUP3 ADD MSTORE PUSH1 0x64 ADD PUSH2 0x444 JUMP JUMPDEST DUP3 PUSH1 0x1 PUSH1 0x1 PUSH1 0xA0 SHL SUB DUP2 AND ISZERO DUP1 ISZERO PUSH2 0x4A6 JUMPI POP DUP3 ISZERO ISZERO JUMPDEST ISZERO PUSH2 0x51B JUMPI PUSH1 0x2 SLOAD PUSH1 0x40 MLOAD PUSH4 0xC4F343FD PUSH1 0xE0 SHL DUP2 MSTORE PUSH1 0x4 DUP2 ADD DUP6 SWAP1 MSTORE PUSH1 0x1 PUSH1 0x1 PUSH1 0xA0 SHL SUB SWAP1 SWAP2 AND SWAP1 PUSH4 0xC4F343FD SWAP1 PUSH1 0x24 ADD PUSH1 0x20 PUSH1 0x40 MLOAD DUP1 DUP4 SUB DUP2 DUP7 GAS STATICCALL ISZERO DUP1 ISZERO PUSH2 0x4F4 JUMPI RETURNDATASIZE PUSH1 0x0 DUP1 RETURNDATACOPY RETURNDATASIZE PUSH1 0x0 REVERT JUMPDEST POP POP POP POP PUSH1 0x40 MLOAD RETURNDATASIZE PUSH1 0x1F NOT PUSH1 0x1F DUP3 ADD AND DUP3 ADD DUP1 PUSH1 0x40 MSTORE POP DUP2 ADD SWAP1 PUSH2 0x518 SWAP2 SWAP1 PUSH2 0xFA6 JUMP JUMPDEST SWAP1 POP JUMPDEST PUSH1 0x1 PUSH1 0x1 PUSH1 0xA0 SHL SUB DUP2 AND ISZERO DUP1 ISZERO SWAP1 PUSH2 0x5A6 JUMPI POP PUSH1 0x2 SLOAD PUSH1 0x40 MLOAD PUSH4 0x1A708453 PUSH1 0xE1 SHL DUP2 MSTORE CALLER PUSH1 0x4 DUP3 ADD MSTORE PUSH1 0x0 SWAP2 PUSH1 0x1 PUSH1 0x1 PUSH1 0xA0 SHL SUB AND SWAP1 PUSH4 0x34E108A6 SWAP1 PUSH1 0x24 ADD PUSH1 0x20 PUSH1 0x40 MLOAD DUP1 DUP4 SUB DUP2 DUP7 GAS STATICCALL ISZERO DUP1 ISZERO PUSH2 0x577 JUMPI RETURNDATASIZE PUSH1 0x0 DUP1 RETURNDATACOPY RETURNDATASIZE PUSH1 0x0 REVERT JUMPDEST POP POP POP POP PUSH1 0x40 MLOAD RETURNDATASIZE PUSH1 0x1F NOT PUSH1 0x1F DUP3 ADD AND DUP3 ADD DUP1 PUSH1 0x40 MSTORE POP DUP2 ADD SWAP1 PUSH2 0x59B SWAP2 SWAP1 PUSH2 0xFA6 JUMP JUMPDEST PUSH1 0x1 PUSH1 0x1 PUSH1 0xA0 SHL SUB AND EQ JUMPDEST ISZERO PUSH2 0x650 JUMPI PUSH1 0x2 SLOAD PUSH1 0x40 MLOAD PUSH4 0xCE900F57 PUSH1 0xE0 SHL DUP2 MSTORE CALLER PUSH1 0x4 DUP3 ADD MSTORE PUSH1 0x1 PUSH1 0x1 PUSH1 0xA0 SHL SUB DUP4 DUP2 AND PUSH1 0x24 DUP4 ADD MSTORE PUSH1 0x44 DUP3 ADD DUP7 SWAP1 MSTORE SWAP1 SWAP2 AND SWAP1 PUSH4 0xCE900F57 SWAP1 PUSH1 0x64 ADD PUSH1 0x0 PUSH1 0x40 MLOAD DUP1 DUP4 SUB DUP2 PUSH1 0x0 DUP8 DUP1 EXTCODESIZE ISZERO DUP1 ISZERO PUSH2 0x5FF JUMPI PUSH1 0x0 DUP1 REVERT JUMPDEST POP GAS CALL ISZERO DUP1 ISZERO PUSH2 0x613 JUMPI RETURNDATASIZE PUSH1 0x0 DUP1 RETURNDATACOPY RETURNDATASIZE PUSH1 0x0 REVERT JUMPDEST POP POP PUSH1 0x40 MLOAD DUP6 SWAP3 POP PUSH1 0x1 PUSH1 0x1 PUSH1 0xA0 SHL SUB DUP5 AND SWAP2 POP CALLER SWAP1 PUSH32 0x50DB5BAE9E391B946CE57405AFD82A03203AEBC4AF75E18B7285FB0C76B9D91F SWAP1 PUSH1 0x0 SWAP1 LOG4 JUMPDEST CALLER PUSH1 0x0 DUP2 DUP2 MSTORE PUSH1 0x6 PUSH1 0x20 SWAP1 DUP2 MSTORE PUSH1 0x40 DUP1 DUP4 KECCAK256 SLOAD SWAP1 MLOAD SWAP3 SWAP4 PUSH2 0x6B3 SWAP4 CHAINID SWAP4 ADDRESS SWAP4 DUP13 SWAP3 NUMBER SWAP3 ADD SWAP6 DUP7 MSTORE PUSH1 0x60 SWAP5 DUP6 SHL PUSH12 0xFFFFFFFFFFFFFFFFFFFFFFFF NOT SWAP1 DUP2 AND PUSH1 0x20 DUP9 ADD MSTORE SWAP4 SWAP1 SWAP5 SHL SWAP1 SWAP3 AND PUSH1 0x34 DUP6 ADD MSTORE PUSH1 0x48 DUP5 ADD MSTORE PUSH1 0x68 DUP4 ADD MSTORE PUSH1 0x88 DUP3 ADD MSTORE PUSH1 0xA8 ADD SWAP1 JUMP JUMPDEST PUSH1 0x40 DUP1 MLOAD DUP1 DUP4 SUB PUSH1 0x1F NOT ADD DUP2 MSTORE SWAP2 SWAP1 MSTORE DUP1 MLOAD PUSH1 0x20 SWAP1 SWAP2 ADD KECCAK256 PUSH1 0x3 SLOAD DUP5 MLOAD SWAP2 SWAP3 POP PUSH2 0x70D SWAP2 PUSH1 0x1 PUSH1 0x1 PUSH1 0xA0 SHL SUB PUSH32 0x0 DUP2 AND SWAP3 CALLER SWAP3 SWAP2 AND SWAP1 PUSH2 0xBE9 JUMP JUMPDEST PUSH1 0x3 SLOAD DUP4 MLOAD PUSH1 0x40 MLOAD PUSH4 0x2FFA3CE1 PUSH1 0xE0 SHL DUP2 MSTORE PUSH1 0x4 DUP2 ADD DUP5 SWAP1 MSTORE CALLER PUSH1 0x24 DUP3 ADD MSTORE PUSH1 0x44 DUP2 ADD SWAP2 SWAP1 SWAP2 MSTORE PUSH1 0x1 PUSH1 0x1 PUSH1 0xA0 SHL SUB SWAP1 SWAP2 AND SWAP1 PUSH4 0x2FFA3CE1 SWAP1 PUSH1 0x64 ADD PUSH1 0x0 PUSH1 0x40 MLOAD DUP1 DUP4 SUB DUP2 PUSH1 0x0 DUP8 DUP1 EXTCODESIZE ISZERO DUP1 ISZERO PUSH2 0x763 JUMPI PUSH1 0x0 DUP1 REVERT JUMPDEST POP GAS CALL ISZERO DUP1 ISZERO PUSH2 0x777 JUMPI RETURNDATASIZE PUSH1 0x0 DUP1 RETURNDATACOPY RETURNDATASIZE PUSH1 0x0 REVERT JUMPDEST POP POP CALLER PUSH1 0x0 DUP2 DUP2 MSTORE PUSH1 0x5 PUSH1 0x20 SWAP1 DUP2 MSTORE PUSH1 0x40 DUP1 DUP4 KECCAK256 DUP13 SWAP1 SSTORE DUP9 MLOAD PUSH1 0x6 DUP4 MSTORE SWAP3 DUP2 SWAP1 KECCAK256 SWAP3 SWAP1 SWAP3 SSTORE DUP8 MLOAD DUP3 MLOAD SWAP1 DUP2 MSTORE PUSH1 0x1 PUSH1 0x1 PUSH1 0xA0 SHL SUB DUP9 AND SWAP2 DUP2 ADD SWAP2 SWAP1 SWAP2 MSTORE SWAP1 DUP2 ADD DUP9 SWAP1 MSTORE DUP10 SWAP4 POP SWAP1 SWAP2 POP DUP4 SWAP1 PUSH32 0x9FA0A7CFF4E0FC146DEE3178CF33484B3AD3ABB6266AB2F2DFCCA541E6490703 SWAP1 PUSH1 0x60 ADD PUSH1 0x40 MLOAD DUP1 SWAP2 SUB SWAP1 LOG4 CALLER PUSH1 0x1 PUSH1 0x1 PUSH1 0xA0 SHL SUB AND DUP2 PUSH32 0x58F6FB519BF89DB3B04F7A6C34A2E0857ED55C00B6AD0051D8CF2D96470DBC7E DUP9 PUSH1 0x64 DUP8 PUSH1 0x0 ADD MLOAD PUSH1 0xF PUSH2 0x82F SWAP2 SWAP1 PUSH2 0xFC3 JUMP JUMPDEST PUSH2 0x839 SWAP2 SWAP1 PUSH2 0xFEE JUMP JUMPDEST DUP8 MLOAD PUSH1 0x64 SWAP1 PUSH2 0x849 SWAP1 PUSH1 0x1E PUSH2 0xFC3 JUMP JUMPDEST PUSH2 0x853 SWAP2 SWAP1 PUSH2 0xFEE JUMP JUMPDEST DUP9 MLOAD PUSH1 0x64 SWAP1 PUSH2 0x863 SWAP1 PUSH1 0x1E PUSH2 0xFC3 JUMP JUMPDEST PUSH2 0x86D SWAP2 SWAP1 PUSH2 0xFEE JUMP JUMPDEST DUP10 MLOAD PUSH1 0x64 SWAP1 PUSH2 0x87D SWAP1 PUSH1 0xA PUSH2 0xFC3 JUMP JUMPDEST PUSH2 0x887 SWAP2 SWAP1 PUSH2 0xFEE JUMP JUMPDEST DUP11 MLOAD PUSH1 0x64 SWAP1 PUSH2 0x897 SWAP1 PUSH1 0xF PUSH2 0xFC3 JUMP JUMPDEST PUSH2 0x8A1 SWAP2 SWAP1 PUSH2 0xFEE JUMP JUMPDEST PUSH1 0x40 DUP1 MLOAD SWAP7 DUP8 MSTORE PUSH1 0x20 DUP8 ADD SWAP6 SWAP1 SWAP6 MSTORE SWAP4 DUP6 ADD SWAP3 SWAP1 SWAP3 MSTORE PUSH1 0x60 DUP5 ADD MSTORE PUSH1 0x80 DUP4 ADD MSTORE PUSH1 0xA0 DUP3 ADD MSTORE PUSH1 0xC0 ADD PUSH1 0x40 MLOAD DUP1 SWAP2 SUB SWAP1 LOG3 POP POP POP PUSH2 0x8FD PUSH1 0x1 PUSH32 0x9B779B17422D0DF92223018B32B4D1FA46E071723D6817E2486D003BECC55F00 SSTORE JUMP JUMPDEST POP POP POP JUMP JUMPDEST PUSH2 0x90A PUSH2 0xB0E JUMP JUMPDEST PUSH2 0x8FD DUP4 DUP4 DUP4 PUSH2 0xC1F JUMP JUMPDEST PUSH2 0x91D PUSH2 0xB0E JUMP JUMPDEST PUSH2 0x3C7 PUSH1 0x0 PUSH2 0xD1B JUMP JUMPDEST PUSH1 0x1 SLOAD CALLER SWAP1 PUSH1 0x1 PUSH1 0x1 PUSH1 0xA0 SHL SUB AND DUP2 EQ PUSH2 0x95F JUMPI PUSH1 0x40 MLOAD PUSH4 0x118CDAA7 PUSH1 0xE0 SHL DUP2 MSTORE PUSH1 0x1 PUSH1 0x1 PUSH1 0xA0 SHL SUB DUP3 AND PUSH1 0x4 DUP3 ADD MSTORE PUSH1 0x24 ADD PUSH2 0x444 JUMP JUMPDEST PUSH2 0x968 DUP2 PUSH2 0xD1B JUMP JUMPDEST POP JUMP JUMPDEST PUSH2 0x973 PUSH2 0xB0E JUMP JUMPDEST PUSH2 0x3C7 PUSH2 0xD34 JUMP JUMPDEST PUSH2 0x983 PUSH2 0xB0E JUMP JUMPDEST PUSH1 0x3 PUSH1 0x0 SWAP1 SLOAD SWAP1 PUSH2 0x100 EXP SWAP1 DIV PUSH1 0x1 PUSH1 0x1 PUSH1 0xA0 SHL SUB AND PUSH1 0x1 PUSH1 0x1 PUSH1 0xA0 SHL SUB AND PUSH4 0x3F4BA83A PUSH1 0x40 MLOAD DUP2 PUSH4 0xFFFFFFFF AND PUSH1 0xE0 SHL DUP2 MSTORE PUSH1 0x4 ADD PUSH1 0x0 PUSH1 0x40 MLOAD DUP1 DUP4 SUB DUP2 PUSH1 0x0 DUP8 DUP1 EXTCODESIZE ISZERO DUP1 ISZERO PUSH2 0x345 JUMPI PUSH1 0x0 DUP1 REVERT JUMPDEST PUSH2 0x9DB PUSH2 0xB0E JUMP JUMPDEST PUSH1 0x1 PUSH1 0x1 PUSH1 0xA0 SHL SUB DUP3 AND PUSH2 0xA25 JUMPI PUSH1 0x40 MLOAD PUSH3 0x461BCD PUSH1 0xE5 SHL DUP2 MSTORE PUSH1 0x20 PUSH1 0x4 DUP3 ADD MSTORE PUSH1 0x11 PUSH1 0x24 DUP3 ADD MSTORE PUSH17 0x48423A207265676973747279207A65726F PUSH1 0x78 SHL PUSH1 0x44 DUP3 ADD MSTORE PUSH1 0x64 ADD PUSH2 0x444 JUMP JUMPDEST PUSH1 0x1 PUSH1 0x1 PUSH1 0xA0 SHL SUB DUP2 AND PUSH2 0xA6F JUMPI PUSH1 0x40 MLOAD PUSH3 0x461BCD PUSH1 0xE5 SHL DUP2 MSTORE PUSH1 0x20 PUSH1 0x4 DUP3 ADD MSTORE PUSH1 0x11 PUSH1 0x24 DUP3 ADD MSTORE PUSH17 0x48423A2073706C6974746572207A65726F PUSH1 0x78 SHL PUSH1 0x44 DUP3 ADD MSTORE PUSH1 0x64 ADD PUSH2 0x444 JUMP JUMPDEST PUSH1 0x2 DUP1 SLOAD PUSH1 0x1 PUSH1 0x1 PUSH1 0xA0 SHL SUB SWAP4 DUP5 AND PUSH1 0x1 PUSH1 0x1 PUSH1 0xA0 SHL SUB NOT SWAP2 DUP3 AND OR SWAP1 SWAP2 SSTORE PUSH1 0x3 DUP1 SLOAD SWAP3 SWAP1 SWAP4 AND SWAP2 AND OR SWAP1 SSTORE JUMP JUMPDEST PUSH2 0xAA5 PUSH2 0xB0E JUMP JUMPDEST PUSH1 0x1 DUP1 SLOAD PUSH1 0x1 PUSH1 0x1 PUSH1 0xA0 SHL SUB DUP4 AND PUSH1 0x1 PUSH1 0x1 PUSH1 0xA0 SHL SUB NOT SWAP1 SWAP2 AND DUP2 OR SWAP1 SWAP2 SSTORE PUSH2 0xAD6 PUSH1 0x0 SLOAD PUSH1 0x1 PUSH1 0x1 PUSH1 0xA0 SHL SUB AND SWAP1 JUMP JUMPDEST PUSH1 0x1 PUSH1 0x1 PUSH1 0xA0 SHL SUB AND PUSH32 0x38D16B8CAC22D99FC7C124B9CD0DE2D3FA1FAEF420BFE791D8C362D765E22700 PUSH1 0x40 MLOAD PUSH1 0x40 MLOAD DUP1 SWAP2 SUB SWAP1 LOG3 POP JUMP JUMPDEST PUSH1 0x0 SLOAD PUSH1 0x1 PUSH1 0x1 PUSH1 0xA0 SHL SUB AND CALLER EQ PUSH2 0x3C7 JUMPI PUSH1 0x40 MLOAD PUSH4 0x118CDAA7 PUSH1 0xE0 SHL DUP2 MSTORE CALLER PUSH1 0x4 DUP3 ADD MSTORE PUSH1 0x24 ADD PUSH2 0x444 JUMP JUMPDEST PUSH2 0xB43 PUSH2 0xD77 JUMP JUMPDEST PUSH1 0x1 DUP1 SLOAD PUSH1 0xFF PUSH1 0xA0 SHL NOT AND SWAP1 SSTORE PUSH32 0x5DB9EE0A495BF2E6FF9C91A7834C1BA4FDD244A5E8AA4E537BD38AEAE4B073AA CALLER JUMPDEST PUSH1 0x40 MLOAD PUSH1 0x1 PUSH1 0x1 PUSH1 0xA0 SHL SUB SWAP1 SWAP2 AND DUP2 MSTORE PUSH1 0x20 ADD PUSH1 0x40 MLOAD DUP1 SWAP2 SUB SWAP1 LOG1 JUMP JUMPDEST PUSH2 0xB98 PUSH2 0xDA1 JUMP JUMPDEST PUSH1 0x2 PUSH32 0x9B779B17422D0DF92223018B32B4D1FA46E071723D6817E2486D003BECC55F00 SSTORE JUMP JUMPDEST PUSH1 0x1 SLOAD PUSH1 0x1 PUSH1 0xA0 SHL SWAP1 DIV PUSH1 0xFF AND ISZERO PUSH2 0x3C7 JUMPI PUSH1 0x40 MLOAD PUSH4 0xD93C0665 PUSH1 0xE0 SHL DUP2 MSTORE PUSH1 0x4 ADD PUSH1 0x40 MLOAD DUP1 SWAP2 SUB SWAP1 REVERT JUMPDEST PUSH2 0xBF7 DUP5 DUP5 DUP5 DUP5 PUSH1 0x1 PUSH2 0xDE3 JUMP JUMPDEST PUSH2 0x359 JUMPI PUSH1 0x40 MLOAD PUSH4 0x5274AFE7 PUSH1 0xE0 SHL DUP2 MSTORE PUSH1 0x1 PUSH1 0x1 PUSH1 0xA0 SHL SUB DUP6 AND PUSH1 0x4 DUP3 ADD MSTORE PUSH1 0x24 ADD PUSH2 0x444 JUMP JUMPDEST PUSH1 0x0 DUP4 GT PUSH2 0xC62 JUMPI PUSH1 0x40 MLOAD PUSH3 0x461BCD PUSH1 0xE5 SHL DUP2 MSTORE PUSH1 0x20 PUSH1 0x4 DUP3 ADD MSTORE PUSH1 0x10 PUSH1 0x24 DUP3 ADD MSTORE PUSH16 0x48423A207061636B616765207A65726F PUSH1 0x80 SHL PUSH1 0x44 DUP3 ADD MSTORE PUSH1 0x64 ADD PUSH2 0x444 JUMP JUMPDEST PUSH1 0x0 DUP3 GT PUSH2 0xCA3 JUMPI PUSH1 0x40 MLOAD PUSH3 0x461BCD PUSH1 0xE5 SHL DUP2 MSTORE PUSH1 0x20 PUSH1 0x4 DUP3 ADD MSTORE PUSH1 0xE PUSH1 0x24 DUP3 ADD MSTORE PUSH14 0x48423A207072696365207A65726F PUSH1 0x90 SHL PUSH1 0x44 DUP3 ADD MSTORE PUSH1 0x64 ADD PUSH2 0x444 JUMP JUMPDEST PUSH1 0x40 DUP1 MLOAD DUP1 DUP3 ADD DUP3 MSTORE DUP4 DUP2 MSTORE DUP3 ISZERO ISZERO PUSH1 0x20 DUP1 DUP4 ADD DUP3 DUP2 MSTORE PUSH1 0x0 DUP9 DUP2 MSTORE PUSH1 0x4 DUP4 MSTORE DUP6 SWAP1 KECCAK256 SWAP4 MLOAD DUP5 SSTORE MLOAD PUSH1 0x1 SWAP1 SWAP4 ADD DUP1 SLOAD PUSH1 0xFF NOT AND SWAP4 ISZERO ISZERO SWAP4 SWAP1 SWAP4 OR SWAP1 SWAP3 SSTORE DUP3 MLOAD DUP6 DUP2 MSTORE SWAP2 DUP3 ADD MSTORE DUP5 SWAP2 PUSH32 0xBCF71C11D7EEBE400B8D795C951DE0289247C17AF6A78342577367BCB4CDA9C8 SWAP2 ADD PUSH1 0x40 MLOAD DUP1 SWAP2 SUB SWAP1 LOG2 POP POP POP JUMP JUMPDEST PUSH1 0x1 DUP1 SLOAD PUSH1 0x1 PUSH1 0x1 PUSH1 0xA0 SHL SUB NOT AND SWAP1 SSTORE PUSH2 0x968 DUP2 PUSH2 0xE55 JUMP JUMPDEST PUSH2 0xD3C PUSH2 0xBBE JUMP JUMPDEST PUSH1 0x1 DUP1 SLOAD PUSH1 0xFF PUSH1 0xA0 SHL NOT AND PUSH1 0x1 PUSH1 0xA0 SHL OR SWAP1 SSTORE PUSH32 0x62E78CEA01BEE320CD4E420270B5EA74000D11B0C9F74754EBDBFC544B05A258 PUSH2 0xB73 CALLER SWAP1 JUMP JUMPDEST PUSH1 0x1 SLOAD PUSH1 0x1 PUSH1 0xA0 SHL SWAP1 DIV PUSH1 0xFF AND PUSH2 0x3C7 JUMPI PUSH1 0x40 MLOAD PUSH4 0x8DFC202B PUSH1 0xE0 SHL DUP2 MSTORE PUSH1 0x4 ADD PUSH1 0x40 MLOAD DUP1 SWAP2 SUB SWAP1 REVERT JUMPDEST PUSH32 0x9B779B17422D0DF92223018B32B4D1FA46E071723D6817E2486D003BECC55F00 SLOAD PUSH1 0x2 SUB PUSH2 0x3C7 JUMPI PUSH1 0x40 MLOAD PUSH4 0x3EE5AEB5 PUSH1 0xE0 SHL DUP2 MSTORE PUSH1 0x4 ADD PUSH1 0x40 MLOAD DUP1 SWAP2 SUB SWAP1 REVERT JUMPDEST PUSH1 0x40 MLOAD PUSH4 0x23B872DD PUSH1 0xE0 SHL PUSH1 0x0 DUP2 DUP2 MSTORE PUSH1 0x1 PUSH1 0x1 PUSH1 0xA0 SHL SUB DUP8 DUP2 AND PUSH1 0x4 MSTORE DUP7 AND PUSH1 0x24 MSTORE PUSH1 0x44 DUP6 SWAP1 MSTORE SWAP2 PUSH1 0x20 DUP4 PUSH1 0x64 DUP2 DUP1 DUP13 GAS CALL SWAP3 POP PUSH1 0x1 PUSH1 0x0 MLOAD EQ DUP4 AND PUSH2 0xE43 JUMPI DUP4 DUP4 ISZERO AND ISZERO PUSH2 0xE36 JUMPI RETURNDATASIZE PUSH1 0x0 DUP3 RETURNDATACOPY RETURNDATASIZE DUP2 REVERT JUMPDEST PUSH1 0x0 DUP9 EXTCODESIZE GT RETURNDATASIZE ISZERO AND DUP4 AND SWAP3 POP JUMPDEST PUSH1 0x40 MSTORE POP PUSH1 0x0 PUSH1 0x60 MSTORE SWAP6 SWAP5 POP POP POP POP POP JUMP JUMPDEST PUSH1 0x0 DUP1 SLOAD PUSH1 0x1 PUSH1 0x1 PUSH1 0xA0 SHL SUB DUP4 DUP2 AND PUSH1 0x1 PUSH1 0x1 PUSH1 0xA0 SHL SUB NOT DUP4 AND DUP2 OR DUP5 SSTORE PUSH1 0x40 MLOAD SWAP2 SWAP1 SWAP3 AND SWAP3 DUP4 SWAP2 PUSH32 0x8BE0079C531659141344CD1FD0A4F28419497F9722A3DAAFE3B4186F6B6457E0 SWAP2 SWAP1 LOG3 POP POP JUMP JUMPDEST PUSH1 0x1 PUSH1 0x1 PUSH1 0xA0 SHL SUB DUP2 AND DUP2 EQ PUSH2 0x968 JUMPI PUSH1 0x0 DUP1 REVERT JUMPDEST PUSH1 0x0 PUSH1 0x20 DUP3 DUP5 SUB SLT ISZERO PUSH2 0xECC JUMPI PUSH1 0x0 DUP1 REVERT JUMPDEST DUP2 CALLDATALOAD PUSH2 0xED7 DUP2 PUSH2 0xEA5 JUMP JUMPDEST SWAP4 SWAP3 POP POP POP JUMP JUMPDEST PUSH1 0x0 DUP1 PUSH1 0x0 PUSH1 0x60 DUP5 DUP7 SUB SLT ISZERO PUSH2 0xEF3 JUMPI PUSH1 0x0 DUP1 REVERT JUMPDEST DUP4 CALLDATALOAD SWAP3 POP PUSH1 0x20 DUP5 ADD CALLDATALOAD PUSH2 0xF05 DUP2 PUSH2 0xEA5 JUMP JUMPDEST SWAP3 SWAP6 SWAP3 SWAP5 POP POP POP PUSH1 0x40 SWAP2 SWAP1 SWAP2 ADD CALLDATALOAD SWAP1 JUMP JUMPDEST PUSH1 0x0 DUP1 PUSH1 0x0 PUSH1 0x60 DUP5 DUP7 SUB SLT ISZERO PUSH2 0xF2B JUMPI PUSH1 0x0 DUP1 REVERT JUMPDEST DUP4 CALLDATALOAD SWAP3 POP PUSH1 0x20 DUP5 ADD CALLDATALOAD SWAP2 POP PUSH1 0x40 DUP5 ADD CALLDATALOAD DUP1 ISZERO ISZERO DUP2 EQ PUSH2 0xF49 JUMPI PUSH1 0x0 DUP1 REVERT JUMPDEST DUP1 SWAP2 POP POP SWAP3 POP SWAP3 POP SWAP3 JUMP JUMPDEST PUSH1 0x0 PUSH1 0x20 DUP3 DUP5 SUB SLT ISZERO PUSH2 0xF66 JUMPI PUSH1 0x0 DUP1 REVERT JUMPDEST POP CALLDATALOAD SWAP2 SWAP1 POP JUMP JUMPDEST PUSH1 0x0 DUP1 PUSH1 0x40 DUP4 DUP6 SUB SLT ISZERO PUSH2 0xF80 JUMPI PUSH1 0x0 DUP1 REVERT JUMPDEST DUP3 CALLDATALOAD PUSH2 0xF8B DUP2 PUSH2 0xEA5 JUMP JUMPDEST SWAP2 POP PUSH1 0x20 DUP4 ADD CALLDATALOAD PUSH2 0xF9B DUP2 PUSH2 0xEA5 JUMP JUMPDEST DUP1 SWAP2 POP POP SWAP3 POP SWAP3 SWAP1 POP JUMP JUMPDEST PUSH1 0x0 PUSH1 0x20 DUP3 DUP5 SUB SLT ISZERO PUSH2 0xFB8 JUMPI PUSH1 0x0 DUP1 REVERT JUMPDEST DUP2 MLOAD PUSH2 0xED7 DUP2 PUSH2 0xEA5 JUMP JUMPDEST DUP1 DUP3 MUL DUP2 ISZERO DUP3 DUP3 DIV DUP5 EQ OR PUSH2 0xFE8 JUMPI PUSH4 0x4E487B71 PUSH1 0xE0 SHL PUSH1 0x0 MSTORE PUSH1 0x11 PUSH1 0x4 MSTORE PUSH1 0x24 PUSH1 0x0 REVERT JUMPDEST SWAP3 SWAP2 POP POP JUMP JUMPDEST PUSH1 0x0 DUP3 PUSH2 0x100B JUMPI PUSH4 0x4E487B71 PUSH1 0xE0 SHL PUSH1 0x0 MSTORE PUSH1 0x12 PUSH1 0x4 MSTORE PUSH1 0x24 PUSH1 0x0 REVERT JUMPDEST POP DIV SWAP1 JUMP INVALID LOG2 PUSH5 0x6970667358 0x22 SLT KECCAK256 0x4C DUP4 SWAP3 PUSH30 0xFE1A8C0F19FDF5D59A010AD6A7E863261EE748D19FB68DCDE9F216D06473 PUSH16 0x6C634300081800330000000000000000 "},"methodIdentifiers":{"acceptOwnership()":"79ba5097","acceptTreasurySplitterOwnership()":"234d6109","buyPackage(uint256,address,bytes32)":"54b8cf6d","currentPackageId(address)":"5b5d06cc","currentPackagePrice(address)":"3c942a08","owner()":"8da5cb5b","packages(uint256)":"c216212a","pause()":"8456cb59","pauseTreasurySplitter()":"022f7a04","paused()":"5c975abb","paymentToken()":"3013ce29","pendingOwner()":"e30c3978","referralRegistry()":"4e627e62","renounceOwnership()":"715018a6","setDependencies(address,address)":"e87c28a7","setPackage(uint256,uint256,bool)":"57aed207","transferOwnership(address)":"f2fde38b","treasurySplitter()":"8b1b3866","unpause()":"3f4ba83a","unpauseTreasurySplitter()":"c01f7608"}}}}}