{"contracts/HBTreasurySplitter.sol":{"HBTreasurySplitter":{"abi":[{"inputs":[{"internalType":"contract IERC20","name":"token","type":"address"},{"internalType":"address","name":"initialOwner","type":"address"}],"stateMutability":"nonpayable","type":"constructor"},{"inputs":[],"name":"EnforcedPause","type":"error"},{"inputs":[],"name":"ExpectedPause","type":"error"},{"inputs":[{"internalType":"address","name":"owner","type":"address"}],"name":"OwnableInvalidOwner","type":"error"},{"inputs":[{"internalType":"address","name":"account","type":"address"}],"name":"OwnableUnauthorizedAccount","type":"error"},{"inputs":[],"name":"ReentrancyGuardReentrantCall","type":"error"},{"inputs":[{"internalType":"address","name":"token","type":"address"}],"name":"SafeERC20FailedOperation","type":"error"},{"anonymous":false,"inputs":[{"indexed":true,"internalType":"bytes32","name":"purchaseId","type":"bytes32"},{"indexed":true,"internalType":"address","name":"buyer","type":"address"},{"indexed":false,"internalType":"uint256","name":"amount","type":"uint256"},{"indexed":false,"internalType":"uint256","name":"directAmount","type":"uint256"},{"indexed":false,"internalType":"uint256","name":"productAmount","type":"uint256"},{"indexed":false,"internalType":"uint256","name":"rechargeAmount","type":"uint256"},{"indexed":false,"internalType":"uint256","name":"levelAmount","type":"uint256"},{"indexed":false,"internalType":"uint256","name":"singleLegAmount","type":"uint256"},{"indexed":false,"internalType":"uint256","name":"companyReserveAmount","type":"uint256"}],"name":"DistributionCreated","type":"event"},{"anonymous":false,"inputs":[{"indexed":true,"internalType":"address","name":"previousOwner","type":"address"},{"indexed":true,"internalType":"address","name":"newOwner","type":"address"}],"name":"OwnershipTransferred","type":"event"},{"anonymous":false,"inputs":[{"indexed":false,"internalType":"address","name":"account","type":"address"}],"name":"Paused","type":"event"},{"anonymous":false,"inputs":[{"indexed":true,"internalType":"bytes32","name":"key","type":"bytes32"},{"indexed":true,"internalType":"address","name":"wallet","type":"address"}],"name":"TreasuryUpdated","type":"event"},{"anonymous":false,"inputs":[{"indexed":false,"internalType":"address","name":"account","type":"address"}],"name":"Unpaused","type":"event"},{"inputs":[],"name":"companyReserveTreasury","outputs":[{"internalType":"address","name":"","type":"address"}],"stateMutability":"view","type":"function"},{"inputs":[],"name":"directIncomeTreasury","outputs":[{"internalType":"address","name":"","type":"address"}],"stateMutability":"view","type":"function"},{"inputs":[],"name":"levelIncomeTreasury","outputs":[{"internalType":"address","name":"","type":"address"}],"stateMutability":"view","type":"function"},{"inputs":[],"name":"owner","outputs":[{"internalType":"address","name":"","type":"address"}],"stateMutability":"view","type":"function"},{"inputs":[],"name":"pause","outputs":[],"stateMutability":"nonpayable","type":"function"},{"inputs":[],"name":"paused","outputs":[{"internalType":"bool","name":"","type":"bool"}],"stateMutability":"view","type":"function"},{"inputs":[],"name":"paymentToken","outputs":[{"internalType":"contract IERC20","name":"","type":"address"}],"stateMutability":"view","type":"function"},{"inputs":[],"name":"productAllocationTreasury","outputs":[{"internalType":"address","name":"","type":"address"}],"stateMutability":"view","type":"function"},{"inputs":[],"name":"rechargeTreasury","outputs":[{"internalType":"address","name":"","type":"address"}],"stateMutability":"view","type":"function"},{"inputs":[],"name":"renounceOwnership","outputs":[],"stateMutability":"nonpayable","type":"function"},{"inputs":[{"internalType":"address","name":"directWallet","type":"address"},{"internalType":"address","name":"productWallet","type":"address"},{"internalType":"address","name":"rechargeWallet","type":"address"},{"internalType":"address","name":"levelWallet","type":"address"},{"internalType":"address","name":"singleLegWallet","type":"address"},{"internalType":"address","name":"companyWallet","type":"address"}],"name":"setTreasuries","outputs":[],"stateMutability":"nonpayable","type":"function"},{"inputs":[],"name":"singleLegTreasury","outputs":[{"internalType":"address","name":"","type":"address"}],"stateMutability":"view","type":"function"},{"inputs":[{"internalType":"bytes32","name":"purchaseId","type":"bytes32"},{"internalType":"address","name":"buyer","type":"address"},{"internalType":"uint256","name":"amount","type":"uint256"}],"name":"split","outputs":[],"stateMutability":"nonpayable","type":"function"},{"inputs":[{"internalType":"address","name":"newOwner","type":"address"}],"name":"transferOwnership","outputs":[],"stateMutability":"nonpayable","type":"function"},{"inputs":[],"name":"unpause","outputs":[],"stateMutability":"nonpayable","type":"function"}],"evm":{"bytecode":{"linkReferences":{},"object":"60a060405234801561001057600080fd5b50604051610e01380380610e0183398101604081905261002f9161014e565b806001600160a01b03811661005f57604051631e4fbdf760e01b8152600060048201526024015b60405180910390fd5b610068816100e6565b5060017f9b779b17422d0df92223018b32b4d1fa46e071723d6817e2486d003becc55f00556001600160a01b0382166100d45760405162461bcd60e51b815260206004820152600e60248201526d48423a20746f6b656e207a65726f60901b6044820152606401610056565b506001600160a01b0316608052610188565b600080546001600160a01b038381166001600160a01b0319831681178455604051919092169283917f8be0079c531659141344cd1fd0a4f28419497f9722a3daafe3b4186f6b6457e09190a35050565b6001600160a01b038116811461014b57600080fd5b50565b6000806040838503121561016157600080fd5b825161016c81610136565b602084015190925061017d81610136565b809150509250929050565b608051610c346101cd6000396000818161016a015281816104d8015281816105120152818161054c01528181610586015281816105c001526106000152610c346000f3fe608060405234801561001057600080fd5b50600436106100f55760003560e01c80635c975abb116100975780638456cb59116100665780638456cb59146101f25780638da5cb5b146101fa578063e91621fb1461020b578063f2fde38b1461021e57600080fd5b80635c975abb146101a7578063715018a6146101c45780637e9f77da146101cc57806383ee2b7c146101df57600080fd5b80632ffa3ce1116100d35780632ffa3ce1146101525780633013ce29146101655780633f4ba83a1461018c57806346dfb14f1461019457600080fd5b806307bbd843146100fa5780631f2265901461012a5780632d0e24991461013d575b600080fd5b60035461010d906001600160a01b031681565b6040516001600160a01b0390911681526020015b60405180910390f35b60065461010d906001600160a01b031681565b61015061014b366004610a98565b610231565b005b610150610160366004610b0c565b6103e2565b61010d7f000000000000000000000000000000000000000000000000000000000000000081565b6101506106c8565b60055461010d906001600160a01b031681565b600054600160a01b900460ff166040519015158152602001610121565b6101506106da565b60025461010d906001600160a01b031681565b60015461010d906001600160a01b031681565b6101506106ec565b6000546001600160a01b031661010d565b60045461010d906001600160a01b031681565b61015061022c366004610b41565b6106fc565b61023961073f565b6102428661076c565b61024b8561076c565b6102548461076c565b61025d8361076c565b6102668261076c565b61026f8161076c565b600180546001600160a01b03199081166001600160a01b038981169182179093556002805483168985161790556003805483168885161790556004805483168785161790556005805483168685161790556006805490921692841692909217905560405165191a5c9958dd60d21b90600080516020610bdf83398151915290600090a36040516001600160a01b03861690661c1c9bd91d58dd60ca1b90600080516020610bdf83398151915290600090a36040516001600160a01b0385169067726563686172676560c01b90600080516020610bdf83398151915290600090a36040516001600160a01b03841690641b195d995b60da1b90600080516020610bdf83398151915290600090a36040516001600160a01b038316906973696e676c655f6c656760b01b90600080516020610bdf83398151915290600090a36040516001600160a01b0382169066636f6d70616e7960c81b90600080516020610bdf83398151915290600090a3505050505050565b6103ea61073f565b6103f26107b6565b6103fa6107e4565b61040261080f565b6000606461041183600f610b79565b61041b9190610b96565b90506000606461042c84601e610b79565b6104369190610b96565b90506000606461044785601e610b79565b6104519190610b96565b90506000606461046286600a610b79565b61046c9190610b96565b90506000606461047d87600f610b79565b6104879190610b96565b90506000818385610498888a610bb8565b6104a29190610bb8565b6104ac9190610bb8565b6104b69190610bb8565b905060006104c48289610bcb565b600154909150610501906001600160a01b037f0000000000000000000000000000000000000000000000000000000000000000811691168961088d565b60025461053b906001600160a01b037f0000000000000000000000000000000000000000000000000000000000000000811691168861088d565b600354610575906001600160a01b037f0000000000000000000000000000000000000000000000000000000000000000811691168761088d565b6004546105af906001600160a01b037f0000000000000000000000000000000000000000000000000000000000000000811691168661088d565b6005546105e9906001600160a01b037f0000000000000000000000000000000000000000000000000000000000000000811691168561088d565b801561062957600654610629906001600160a01b037f0000000000000000000000000000000000000000000000000000000000000000811691168361088d565b6040805189815260208101899052908101879052606081018690526080810185905260a0810184905260c081018290526001600160a01b038a16908b907f0f4c5fa00e9e1418ef51335c9ec69981fe2e678f10409c713345fa459eb8f01f9060e00160405180910390a3505050505050506106c360017f9b779b17422d0df92223018b32b4d1fa46e071723d6817e2486d003becc55f0055565b505050565b6106d061073f565b6106d86108c2565b565b6106e261073f565b6106d86000610917565b6106f461073f565b6106d8610967565b61070461073f565b6001600160a01b03811661073357604051631e4fbdf760e01b8152600060048201526024015b60405180910390fd5b61073c81610917565b50565b6000546001600160a01b031633146106d85760405163118cdaa760e01b815233600482015260240161072a565b6001600160a01b03811661073c5760405162461bcd60e51b815260206004820152601160248201527048423a207472656173757279207a65726f60781b604482015260640161072a565b6107be6109aa565b60027f9b779b17422d0df92223018b32b4d1fa46e071723d6817e2486d003becc55f0055565b600054600160a01b900460ff16156106d85760405163d93c066560e01b815260040160405180910390fd5b600154610824906001600160a01b031661076c565b600254610839906001600160a01b031661076c565b60035461084e906001600160a01b031661076c565b600454610863906001600160a01b031661076c565b600554610878906001600160a01b031661076c565b6006546106d8906001600160a01b031661076c565b61089a83838360016109ec565b6106c357604051635274afe760e01b81526001600160a01b038416600482015260240161072a565b6108ca610a52565b6000805460ff60a01b191690557f5db9ee0a495bf2e6ff9c91a7834c1ba4fdd244a5e8aa4e537bd38aeae4b073aa335b6040516001600160a01b03909116815260200160405180910390a1565b600080546001600160a01b038381166001600160a01b0319831681178455604051919092169283917f8be0079c531659141344cd1fd0a4f28419497f9722a3daafe3b4186f6b6457e09190a35050565b61096f6107e4565b6000805460ff60a01b1916600160a01b1790557f62e78cea01bee320cd4e420270b5ea74000d11b0c9f74754ebdbfc544b05a2586108fa3390565b7f9b779b17422d0df92223018b32b4d1fa46e071723d6817e2486d003becc55f00546002036106d857604051633ee5aeb560e01b815260040160405180910390fd5b60405163a9059cbb60e01b60008181526001600160a01b038616600452602485905291602083604481808b5af192506001600051148316610a46578383151615610a39573d6000823e3d81fd5b6000873b113d1516831692505b60405250949350505050565b600054600160a01b900460ff166106d857604051638dfc202b60e01b815260040160405180910390fd5b80356001600160a01b0381168114610a9357600080fd5b919050565b60008060008060008060c08789031215610ab157600080fd5b610aba87610a7c565b9550610ac860208801610a7c565b9450610ad660408801610a7c565b9350610ae460608801610a7c565b9250610af260808801610a7c565b9150610b0060a08801610a7c565b90509295509295509295565b600080600060608486031215610b2157600080fd5b83359250610b3160208501610a7c565b9150604084013590509250925092565b600060208284031215610b5357600080fd5b610b5c82610a7c565b9392505050565b634e487b7160e01b600052601160045260246000fd5b8082028115828204841417610b9057610b90610b63565b92915050565b600082610bb357634e487b7160e01b600052601260045260246000fd5b500490565b80820180821115610b9057610b90610b63565b81810381811115610b9057610b90610b6356fe6410ac85c52ba3fd27b10ab68388b073fb2da3e49390e48506118349eba4a83da264697066735822122076f4aace9df4af013b5de792b502bcbe2b92ff139a633d4565bb8026c0ecba4764736f6c63430008180033","opcodes":"PUSH1 0xA0 PUSH1 0x40 MSTORE CALLVALUE DUP1 ISZERO PUSH2 0x10 JUMPI PUSH1 0x0 DUP1 REVERT JUMPDEST POP PUSH1 0x40 MLOAD PUSH2 0xE01 CODESIZE SUB DUP1 PUSH2 0xE01 DUP4 CODECOPY DUP2 ADD PUSH1 0x40 DUP2 SWAP1 MSTORE PUSH2 0x2F SWAP2 PUSH2 0x14E JUMP JUMPDEST DUP1 PUSH1 0x1 PUSH1 0x1 PUSH1 0xA0 SHL SUB DUP2 AND PUSH2 0x5F JUMPI PUSH1 0x40 MLOAD PUSH4 0x1E4FBDF7 PUSH1 0xE0 SHL DUP2 MSTORE PUSH1 0x0 PUSH1 0x4 DUP3 ADD MSTORE PUSH1 0x24 ADD JUMPDEST PUSH1 0x40 MLOAD DUP1 SWAP2 SUB SWAP1 REVERT JUMPDEST PUSH2 0x68 DUP2 PUSH2 0xE6 JUMP JUMPDEST POP PUSH1 0x1 PUSH32 0x9B779B17422D0DF92223018B32B4D1FA46E071723D6817E2486D003BECC55F00 SSTORE PUSH1 0x1 PUSH1 0x1 PUSH1 0xA0 SHL SUB DUP3 AND PUSH2 0xD4 JUMPI PUSH1 0x40 MLOAD PUSH3 0x461BCD PUSH1 0xE5 SHL DUP2 MSTORE PUSH1 0x20 PUSH1 0x4 DUP3 ADD MSTORE PUSH1 0xE PUSH1 0x24 DUP3 ADD MSTORE PUSH14 0x48423A20746F6B656E207A65726F PUSH1 0x90 SHL PUSH1 0x44 DUP3 ADD MSTORE PUSH1 0x64 ADD PUSH2 0x56 JUMP JUMPDEST POP PUSH1 0x1 PUSH1 0x1 PUSH1 0xA0 SHL SUB AND PUSH1 0x80 MSTORE PUSH2 0x188 JUMP JUMPDEST PUSH1 0x0 DUP1 SLOAD PUSH1 0x1 PUSH1 0x1 PUSH1 0xA0 SHL SUB DUP4 DUP2 AND PUSH1 0x1 PUSH1 0x1 PUSH1 0xA0 SHL SUB NOT DUP4 AND DUP2 OR DUP5 SSTORE PUSH1 0x40 MLOAD SWAP2 SWAP1 SWAP3 AND SWAP3 DUP4 SWAP2 PUSH32 0x8BE0079C531659141344CD1FD0A4F28419497F9722A3DAAFE3B4186F6B6457E0 SWAP2 SWAP1 LOG3 POP POP JUMP JUMPDEST PUSH1 0x1 PUSH1 0x1 PUSH1 0xA0 SHL SUB DUP2 AND DUP2 EQ PUSH2 0x14B JUMPI PUSH1 0x0 DUP1 REVERT JUMPDEST POP JUMP JUMPDEST PUSH1 0x0 DUP1 PUSH1 0x40 DUP4 DUP6 SUB SLT ISZERO PUSH2 0x161 JUMPI PUSH1 0x0 DUP1 REVERT JUMPDEST DUP3 MLOAD PUSH2 0x16C DUP2 PUSH2 0x136 JUMP JUMPDEST PUSH1 0x20 DUP5 ADD MLOAD SWAP1 SWAP3 POP PUSH2 0x17D DUP2 PUSH2 0x136 JUMP JUMPDEST DUP1 SWAP2 POP POP SWAP3 POP SWAP3 SWAP1 POP JUMP JUMPDEST PUSH1 0x80 MLOAD PUSH2 0xC34 PUSH2 0x1CD PUSH1 0x0 CODECOPY PUSH1 0x0 DUP2 DUP2 PUSH2 0x16A ADD MSTORE DUP2 DUP2 PUSH2 0x4D8 ADD MSTORE DUP2 DUP2 PUSH2 0x512 ADD MSTORE DUP2 DUP2 PUSH2 0x54C ADD MSTORE DUP2 DUP2 PUSH2 0x586 ADD MSTORE DUP2 DUP2 PUSH2 0x5C0 ADD MSTORE PUSH2 0x600 ADD MSTORE PUSH2 0xC34 PUSH1 0x0 RETURN INVALID PUSH1 0x80 PUSH1 0x40 MSTORE CALLVALUE DUP1 ISZERO PUSH2 0x10 JUMPI PUSH1 0x0 DUP1 REVERT JUMPDEST POP PUSH1 0x4 CALLDATASIZE LT PUSH2 0xF5 JUMPI PUSH1 0x0 CALLDATALOAD PUSH1 0xE0 SHR DUP1 PUSH4 0x5C975ABB GT PUSH2 0x97 JUMPI DUP1 PUSH4 0x8456CB59 GT PUSH2 0x66 JUMPI DUP1 PUSH4 0x8456CB59 EQ PUSH2 0x1F2 JUMPI DUP1 PUSH4 0x8DA5CB5B EQ PUSH2 0x1FA JUMPI DUP1 PUSH4 0xE91621FB EQ PUSH2 0x20B JUMPI DUP1 PUSH4 0xF2FDE38B EQ PUSH2 0x21E JUMPI PUSH1 0x0 DUP1 REVERT JUMPDEST DUP1 PUSH4 0x5C975ABB EQ PUSH2 0x1A7 JUMPI DUP1 PUSH4 0x715018A6 EQ PUSH2 0x1C4 JUMPI DUP1 PUSH4 0x7E9F77DA EQ PUSH2 0x1CC JUMPI DUP1 PUSH4 0x83EE2B7C EQ PUSH2 0x1DF JUMPI PUSH1 0x0 DUP1 REVERT JUMPDEST DUP1 PUSH4 0x2FFA3CE1 GT PUSH2 0xD3 JUMPI DUP1 PUSH4 0x2FFA3CE1 EQ PUSH2 0x152 JUMPI DUP1 PUSH4 0x3013CE29 EQ PUSH2 0x165 JUMPI DUP1 PUSH4 0x3F4BA83A EQ PUSH2 0x18C JUMPI DUP1 PUSH4 0x46DFB14F EQ PUSH2 0x194 JUMPI PUSH1 0x0 DUP1 REVERT JUMPDEST DUP1 PUSH4 0x7BBD843 EQ PUSH2 0xFA JUMPI DUP1 PUSH4 0x1F226590 EQ PUSH2 0x12A JUMPI DUP1 PUSH4 0x2D0E2499 EQ PUSH2 0x13D JUMPI JUMPDEST PUSH1 0x0 DUP1 REVERT JUMPDEST PUSH1 0x3 SLOAD PUSH2 0x10D SWAP1 PUSH1 0x1 PUSH1 0x1 PUSH1 0xA0 SHL SUB AND DUP2 JUMP JUMPDEST PUSH1 0x40 MLOAD PUSH1 0x1 PUSH1 0x1 PUSH1 0xA0 SHL SUB SWAP1 SWAP2 AND DUP2 MSTORE PUSH1 0x20 ADD JUMPDEST PUSH1 0x40 MLOAD DUP1 SWAP2 SUB SWAP1 RETURN JUMPDEST PUSH1 0x6 SLOAD PUSH2 0x10D SWAP1 PUSH1 0x1 PUSH1 0x1 PUSH1 0xA0 SHL SUB AND DUP2 JUMP JUMPDEST PUSH2 0x150 PUSH2 0x14B CALLDATASIZE PUSH1 0x4 PUSH2 0xA98 JUMP JUMPDEST PUSH2 0x231 JUMP JUMPDEST STOP JUMPDEST PUSH2 0x150 PUSH2 0x160 CALLDATASIZE PUSH1 0x4 PUSH2 0xB0C JUMP JUMPDEST PUSH2 0x3E2 JUMP JUMPDEST PUSH2 0x10D PUSH32 0x0 DUP2 JUMP JUMPDEST PUSH2 0x150 PUSH2 0x6C8 JUMP JUMPDEST PUSH1 0x5 SLOAD PUSH2 0x10D SWAP1 PUSH1 0x1 PUSH1 0x1 PUSH1 0xA0 SHL SUB AND DUP2 JUMP JUMPDEST PUSH1 0x0 SLOAD PUSH1 0x1 PUSH1 0xA0 SHL SWAP1 DIV PUSH1 0xFF AND PUSH1 0x40 MLOAD SWAP1 ISZERO ISZERO DUP2 MSTORE PUSH1 0x20 ADD PUSH2 0x121 JUMP JUMPDEST PUSH2 0x150 PUSH2 0x6DA JUMP JUMPDEST PUSH1 0x2 SLOAD PUSH2 0x10D SWAP1 PUSH1 0x1 PUSH1 0x1 PUSH1 0xA0 SHL SUB AND DUP2 JUMP JUMPDEST PUSH1 0x1 SLOAD PUSH2 0x10D SWAP1 PUSH1 0x1 PUSH1 0x1 PUSH1 0xA0 SHL SUB AND DUP2 JUMP JUMPDEST PUSH2 0x150 PUSH2 0x6EC JUMP JUMPDEST PUSH1 0x0 SLOAD PUSH1 0x1 PUSH1 0x1 PUSH1 0xA0 SHL SUB AND PUSH2 0x10D JUMP JUMPDEST PUSH1 0x4 SLOAD PUSH2 0x10D SWAP1 PUSH1 0x1 PUSH1 0x1 PUSH1 0xA0 SHL SUB AND DUP2 JUMP JUMPDEST PUSH2 0x150 PUSH2 0x22C CALLDATASIZE PUSH1 0x4 PUSH2 0xB41 JUMP JUMPDEST PUSH2 0x6FC JUMP JUMPDEST PUSH2 0x239 PUSH2 0x73F JUMP JUMPDEST PUSH2 0x242 DUP7 PUSH2 0x76C JUMP JUMPDEST PUSH2 0x24B DUP6 PUSH2 0x76C JUMP JUMPDEST PUSH2 0x254 DUP5 PUSH2 0x76C JUMP JUMPDEST PUSH2 0x25D DUP4 PUSH2 0x76C JUMP JUMPDEST PUSH2 0x266 DUP3 PUSH2 0x76C JUMP JUMPDEST PUSH2 0x26F DUP2 PUSH2 0x76C JUMP JUMPDEST PUSH1 0x1 DUP1 SLOAD PUSH1 0x1 PUSH1 0x1 PUSH1 0xA0 SHL SUB NOT SWAP1 DUP2 AND PUSH1 0x1 PUSH1 0x1 PUSH1 0xA0 SHL SUB DUP10 DUP2 AND SWAP2 DUP3 OR SWAP1 SWAP4 SSTORE PUSH1 0x2 DUP1 SLOAD DUP4 AND DUP10 DUP6 AND OR SWAP1 SSTORE PUSH1 0x3 DUP1 SLOAD DUP4 AND DUP9 DUP6 AND OR SWAP1 SSTORE PUSH1 0x4 DUP1 SLOAD DUP4 AND DUP8 DUP6 AND OR SWAP1 SSTORE PUSH1 0x5 DUP1 SLOAD DUP4 AND DUP7 DUP6 AND OR SWAP1 SSTORE PUSH1 0x6 DUP1 SLOAD SWAP1 SWAP3 AND SWAP3 DUP5 AND SWAP3 SWAP1 SWAP3 OR SWAP1 SSTORE PUSH1 0x40 MLOAD PUSH6 0x191A5C9958DD PUSH1 0xD2 SHL SWAP1 PUSH1 0x0 DUP1 MLOAD PUSH1 0x20 PUSH2 0xBDF DUP4 CODECOPY DUP2 MLOAD SWAP2 MSTORE SWAP1 PUSH1 0x0 SWAP1 LOG3 PUSH1 0x40 MLOAD PUSH1 0x1 PUSH1 0x1 PUSH1 0xA0 SHL SUB DUP7 AND SWAP1 PUSH7 0x1C1C9BD91D58DD PUSH1 0xCA SHL SWAP1 PUSH1 0x0 DUP1 MLOAD PUSH1 0x20 PUSH2 0xBDF DUP4 CODECOPY DUP2 MLOAD SWAP2 MSTORE SWAP1 PUSH1 0x0 SWAP1 LOG3 PUSH1 0x40 MLOAD PUSH1 0x1 PUSH1 0x1 PUSH1 0xA0 SHL SUB DUP6 AND SWAP1 PUSH8 0x7265636861726765 PUSH1 0xC0 SHL SWAP1 PUSH1 0x0 DUP1 MLOAD PUSH1 0x20 PUSH2 0xBDF DUP4 CODECOPY DUP2 MLOAD SWAP2 MSTORE SWAP1 PUSH1 0x0 SWAP1 LOG3 PUSH1 0x40 MLOAD PUSH1 0x1 PUSH1 0x1 PUSH1 0xA0 SHL SUB DUP5 AND SWAP1 PUSH5 0x1B195D995B PUSH1 0xDA SHL SWAP1 PUSH1 0x0 DUP1 MLOAD PUSH1 0x20 PUSH2 0xBDF DUP4 CODECOPY DUP2 MLOAD SWAP2 MSTORE SWAP1 PUSH1 0x0 SWAP1 LOG3 PUSH1 0x40 MLOAD PUSH1 0x1 PUSH1 0x1 PUSH1 0xA0 SHL SUB DUP4 AND SWAP1 PUSH10 0x73696E676C655F6C6567 PUSH1 0xB0 SHL SWAP1 PUSH1 0x0 DUP1 MLOAD PUSH1 0x20 PUSH2 0xBDF DUP4 CODECOPY DUP2 MLOAD SWAP2 MSTORE SWAP1 PUSH1 0x0 SWAP1 LOG3 PUSH1 0x40 MLOAD PUSH1 0x1 PUSH1 0x1 PUSH1 0xA0 SHL SUB DUP3 AND SWAP1 PUSH7 0x636F6D70616E79 PUSH1 0xC8 SHL SWAP1 PUSH1 0x0 DUP1 MLOAD PUSH1 0x20 PUSH2 0xBDF DUP4 CODECOPY DUP2 MLOAD SWAP2 MSTORE SWAP1 PUSH1 0x0 SWAP1 LOG3 POP POP POP POP POP POP JUMP JUMPDEST PUSH2 0x3EA PUSH2 0x73F JUMP JUMPDEST PUSH2 0x3F2 PUSH2 0x7B6 JUMP JUMPDEST PUSH2 0x3FA PUSH2 0x7E4 JUMP JUMPDEST PUSH2 0x402 PUSH2 0x80F JUMP JUMPDEST PUSH1 0x0 PUSH1 0x64 PUSH2 0x411 DUP4 PUSH1 0xF PUSH2 0xB79 JUMP JUMPDEST PUSH2 0x41B SWAP2 SWAP1 PUSH2 0xB96 JUMP JUMPDEST SWAP1 POP PUSH1 0x0 PUSH1 0x64 PUSH2 0x42C DUP5 PUSH1 0x1E PUSH2 0xB79 JUMP JUMPDEST PUSH2 0x436 SWAP2 SWAP1 PUSH2 0xB96 JUMP JUMPDEST SWAP1 POP PUSH1 0x0 PUSH1 0x64 PUSH2 0x447 DUP6 PUSH1 0x1E PUSH2 0xB79 JUMP JUMPDEST PUSH2 0x451 SWAP2 SWAP1 PUSH2 0xB96 JUMP JUMPDEST SWAP1 POP PUSH1 0x0 PUSH1 0x64 PUSH2 0x462 DUP7 PUSH1 0xA PUSH2 0xB79 JUMP JUMPDEST PUSH2 0x46C SWAP2 SWAP1 PUSH2 0xB96 JUMP JUMPDEST SWAP1 POP PUSH1 0x0 PUSH1 0x64 PUSH2 0x47D DUP8 PUSH1 0xF PUSH2 0xB79 JUMP JUMPDEST PUSH2 0x487 SWAP2 SWAP1 PUSH2 0xB96 JUMP JUMPDEST SWAP1 POP PUSH1 0x0 DUP2 DUP4 DUP6 PUSH2 0x498 DUP9 DUP11 PUSH2 0xBB8 JUMP JUMPDEST PUSH2 0x4A2 SWAP2 SWAP1 PUSH2 0xBB8 JUMP JUMPDEST PUSH2 0x4AC SWAP2 SWAP1 PUSH2 0xBB8 JUMP JUMPDEST PUSH2 0x4B6 SWAP2 SWAP1 PUSH2 0xBB8 JUMP JUMPDEST SWAP1 POP PUSH1 0x0 PUSH2 0x4C4 DUP3 DUP10 PUSH2 0xBCB JUMP JUMPDEST PUSH1 0x1 SLOAD SWAP1 SWAP2 POP PUSH2 0x501 SWAP1 PUSH1 0x1 PUSH1 0x1 PUSH1 0xA0 SHL SUB PUSH32 0x0 DUP2 AND SWAP2 AND DUP10 PUSH2 0x88D JUMP JUMPDEST PUSH1 0x2 SLOAD PUSH2 0x53B SWAP1 PUSH1 0x1 PUSH1 0x1 PUSH1 0xA0 SHL SUB PUSH32 0x0 DUP2 AND SWAP2 AND DUP9 PUSH2 0x88D JUMP JUMPDEST PUSH1 0x3 SLOAD PUSH2 0x575 SWAP1 PUSH1 0x1 PUSH1 0x1 PUSH1 0xA0 SHL SUB PUSH32 0x0 DUP2 AND SWAP2 AND DUP8 PUSH2 0x88D JUMP JUMPDEST PUSH1 0x4 SLOAD PUSH2 0x5AF SWAP1 PUSH1 0x1 PUSH1 0x1 PUSH1 0xA0 SHL SUB PUSH32 0x0 DUP2 AND SWAP2 AND DUP7 PUSH2 0x88D JUMP JUMPDEST PUSH1 0x5 SLOAD PUSH2 0x5E9 SWAP1 PUSH1 0x1 PUSH1 0x1 PUSH1 0xA0 SHL SUB PUSH32 0x0 DUP2 AND SWAP2 AND DUP6 PUSH2 0x88D JUMP JUMPDEST DUP1 ISZERO PUSH2 0x629 JUMPI PUSH1 0x6 SLOAD PUSH2 0x629 SWAP1 PUSH1 0x1 PUSH1 0x1 PUSH1 0xA0 SHL SUB PUSH32 0x0 DUP2 AND SWAP2 AND DUP4 PUSH2 0x88D JUMP JUMPDEST PUSH1 0x40 DUP1 MLOAD DUP10 DUP2 MSTORE PUSH1 0x20 DUP2 ADD DUP10 SWAP1 MSTORE SWAP1 DUP2 ADD DUP8 SWAP1 MSTORE PUSH1 0x60 DUP2 ADD DUP7 SWAP1 MSTORE PUSH1 0x80 DUP2 ADD DUP6 SWAP1 MSTORE PUSH1 0xA0 DUP2 ADD DUP5 SWAP1 MSTORE PUSH1 0xC0 DUP2 ADD DUP3 SWAP1 MSTORE PUSH1 0x1 PUSH1 0x1 PUSH1 0xA0 SHL SUB DUP11 AND SWAP1 DUP12 SWAP1 PUSH32 0xF4C5FA00E9E1418EF51335C9EC69981FE2E678F10409C713345FA459EB8F01F SWAP1 PUSH1 0xE0 ADD PUSH1 0x40 MLOAD DUP1 SWAP2 SUB SWAP1 LOG3 POP POP POP POP POP POP POP PUSH2 0x6C3 PUSH1 0x1 PUSH32 0x9B779B17422D0DF92223018B32B4D1FA46E071723D6817E2486D003BECC55F00 SSTORE JUMP JUMPDEST POP POP POP JUMP JUMPDEST PUSH2 0x6D0 PUSH2 0x73F JUMP JUMPDEST PUSH2 0x6D8 PUSH2 0x8C2 JUMP JUMPDEST JUMP JUMPDEST PUSH2 0x6E2 PUSH2 0x73F JUMP JUMPDEST PUSH2 0x6D8 PUSH1 0x0 PUSH2 0x917 JUMP JUMPDEST PUSH2 0x6F4 PUSH2 0x73F JUMP JUMPDEST PUSH2 0x6D8 PUSH2 0x967 JUMP JUMPDEST PUSH2 0x704 PUSH2 0x73F JUMP JUMPDEST PUSH1 0x1 PUSH1 0x1 PUSH1 0xA0 SHL SUB DUP2 AND PUSH2 0x733 JUMPI PUSH1 0x40 MLOAD PUSH4 0x1E4FBDF7 PUSH1 0xE0 SHL DUP2 MSTORE PUSH1 0x0 PUSH1 0x4 DUP3 ADD MSTORE PUSH1 0x24 ADD JUMPDEST PUSH1 0x40 MLOAD DUP1 SWAP2 SUB SWAP1 REVERT JUMPDEST PUSH2 0x73C DUP2 PUSH2 0x917 JUMP JUMPDEST POP JUMP JUMPDEST PUSH1 0x0 SLOAD PUSH1 0x1 PUSH1 0x1 PUSH1 0xA0 SHL SUB AND CALLER EQ PUSH2 0x6D8 JUMPI PUSH1 0x40 MLOAD PUSH4 0x118CDAA7 PUSH1 0xE0 SHL DUP2 MSTORE CALLER PUSH1 0x4 DUP3 ADD MSTORE PUSH1 0x24 ADD PUSH2 0x72A JUMP JUMPDEST PUSH1 0x1 PUSH1 0x1 PUSH1 0xA0 SHL SUB DUP2 AND PUSH2 0x73C JUMPI PUSH1 0x40 MLOAD PUSH3 0x461BCD PUSH1 0xE5 SHL DUP2 MSTORE PUSH1 0x20 PUSH1 0x4 DUP3 ADD MSTORE PUSH1 0x11 PUSH1 0x24 DUP3 ADD MSTORE PUSH17 0x48423A207472656173757279207A65726F PUSH1 0x78 SHL PUSH1 0x44 DUP3 ADD MSTORE PUSH1 0x64 ADD PUSH2 0x72A JUMP JUMPDEST PUSH2 0x7BE PUSH2 0x9AA JUMP JUMPDEST PUSH1 0x2 PUSH32 0x9B779B17422D0DF92223018B32B4D1FA46E071723D6817E2486D003BECC55F00 SSTORE JUMP JUMPDEST PUSH1 0x0 SLOAD PUSH1 0x1 PUSH1 0xA0 SHL SWAP1 DIV PUSH1 0xFF AND ISZERO PUSH2 0x6D8 JUMPI PUSH1 0x40 MLOAD PUSH4 0xD93C0665 PUSH1 0xE0 SHL DUP2 MSTORE PUSH1 0x4 ADD PUSH1 0x40 MLOAD DUP1 SWAP2 SUB SWAP1 REVERT JUMPDEST PUSH1 0x1 SLOAD PUSH2 0x824 SWAP1 PUSH1 0x1 PUSH1 0x1 PUSH1 0xA0 SHL SUB AND PUSH2 0x76C JUMP JUMPDEST PUSH1 0x2 SLOAD PUSH2 0x839 SWAP1 PUSH1 0x1 PUSH1 0x1 PUSH1 0xA0 SHL SUB AND PUSH2 0x76C JUMP JUMPDEST PUSH1 0x3 SLOAD PUSH2 0x84E SWAP1 PUSH1 0x1 PUSH1 0x1 PUSH1 0xA0 SHL SUB AND PUSH2 0x76C JUMP JUMPDEST PUSH1 0x4 SLOAD PUSH2 0x863 SWAP1 PUSH1 0x1 PUSH1 0x1 PUSH1 0xA0 SHL SUB AND PUSH2 0x76C JUMP JUMPDEST PUSH1 0x5 SLOAD PUSH2 0x878 SWAP1 PUSH1 0x1 PUSH1 0x1 PUSH1 0xA0 SHL SUB AND PUSH2 0x76C JUMP JUMPDEST PUSH1 0x6 SLOAD PUSH2 0x6D8 SWAP1 PUSH1 0x1 PUSH1 0x1 PUSH1 0xA0 SHL SUB AND PUSH2 0x76C JUMP JUMPDEST PUSH2 0x89A DUP4 DUP4 DUP4 PUSH1 0x1 PUSH2 0x9EC JUMP JUMPDEST PUSH2 0x6C3 JUMPI PUSH1 0x40 MLOAD PUSH4 0x5274AFE7 PUSH1 0xE0 SHL DUP2 MSTORE PUSH1 0x1 PUSH1 0x1 PUSH1 0xA0 SHL SUB DUP5 AND PUSH1 0x4 DUP3 ADD MSTORE PUSH1 0x24 ADD PUSH2 0x72A JUMP JUMPDEST PUSH2 0x8CA PUSH2 0xA52 JUMP JUMPDEST PUSH1 0x0 DUP1 SLOAD PUSH1 0xFF PUSH1 0xA0 SHL NOT AND SWAP1 SSTORE PUSH32 0x5DB9EE0A495BF2E6FF9C91A7834C1BA4FDD244A5E8AA4E537BD38AEAE4B073AA CALLER JUMPDEST PUSH1 0x40 MLOAD PUSH1 0x1 PUSH1 0x1 PUSH1 0xA0 SHL SUB SWAP1 SWAP2 AND DUP2 MSTORE PUSH1 0x20 ADD PUSH1 0x40 MLOAD DUP1 SWAP2 SUB SWAP1 LOG1 JUMP JUMPDEST PUSH1 0x0 DUP1 SLOAD PUSH1 0x1 PUSH1 0x1 PUSH1 0xA0 SHL SUB DUP4 DUP2 AND PUSH1 0x1 PUSH1 0x1 PUSH1 0xA0 SHL SUB NOT DUP4 AND DUP2 OR DUP5 SSTORE PUSH1 0x40 MLOAD SWAP2 SWAP1 SWAP3 AND SWAP3 DUP4 SWAP2 PUSH32 0x8BE0079C531659141344CD1FD0A4F28419497F9722A3DAAFE3B4186F6B6457E0 SWAP2 SWAP1 LOG3 POP POP JUMP JUMPDEST PUSH2 0x96F PUSH2 0x7E4 JUMP JUMPDEST PUSH1 0x0 DUP1 SLOAD PUSH1 0xFF PUSH1 0xA0 SHL NOT AND PUSH1 0x1 PUSH1 0xA0 SHL OR SWAP1 SSTORE PUSH32 0x62E78CEA01BEE320CD4E420270B5EA74000D11B0C9F74754EBDBFC544B05A258 PUSH2 0x8FA CALLER SWAP1 JUMP JUMPDEST PUSH32 0x9B779B17422D0DF92223018B32B4D1FA46E071723D6817E2486D003BECC55F00 SLOAD PUSH1 0x2 SUB PUSH2 0x6D8 JUMPI PUSH1 0x40 MLOAD PUSH4 0x3EE5AEB5 PUSH1 0xE0 SHL DUP2 MSTORE PUSH1 0x4 ADD PUSH1 0x40 MLOAD DUP1 SWAP2 SUB SWAP1 REVERT JUMPDEST PUSH1 0x40 MLOAD PUSH4 0xA9059CBB PUSH1 0xE0 SHL PUSH1 0x0 DUP2 DUP2 MSTORE PUSH1 0x1 PUSH1 0x1 PUSH1 0xA0 SHL SUB DUP7 AND PUSH1 0x4 MSTORE PUSH1 0x24 DUP6 SWAP1 MSTORE SWAP2 PUSH1 0x20 DUP4 PUSH1 0x44 DUP2 DUP1 DUP12 GAS CALL SWAP3 POP PUSH1 0x1 PUSH1 0x0 MLOAD EQ DUP4 AND PUSH2 0xA46 JUMPI DUP4 DUP4 ISZERO AND ISZERO PUSH2 0xA39 JUMPI RETURNDATASIZE PUSH1 0x0 DUP3 RETURNDATACOPY RETURNDATASIZE DUP2 REVERT JUMPDEST PUSH1 0x0 DUP8 EXTCODESIZE GT RETURNDATASIZE ISZERO AND DUP4 AND SWAP3 POP JUMPDEST PUSH1 0x40 MSTORE POP SWAP5 SWAP4 POP POP POP POP JUMP JUMPDEST PUSH1 0x0 SLOAD PUSH1 0x1 PUSH1 0xA0 SHL SWAP1 DIV PUSH1 0xFF AND PUSH2 0x6D8 JUMPI PUSH1 0x40 MLOAD PUSH4 0x8DFC202B PUSH1 0xE0 SHL DUP2 MSTORE PUSH1 0x4 ADD PUSH1 0x40 MLOAD DUP1 SWAP2 SUB SWAP1 REVERT JUMPDEST DUP1 CALLDATALOAD PUSH1 0x1 PUSH1 0x1 PUSH1 0xA0 SHL SUB DUP2 AND DUP2 EQ PUSH2 0xA93 JUMPI PUSH1 0x0 DUP1 REVERT JUMPDEST SWAP2 SWAP1 POP JUMP JUMPDEST PUSH1 0x0 DUP1 PUSH1 0x0 DUP1 PUSH1 0x0 DUP1 PUSH1 0xC0 DUP8 DUP10 SUB SLT ISZERO PUSH2 0xAB1 JUMPI PUSH1 0x0 DUP1 REVERT JUMPDEST PUSH2 0xABA DUP8 PUSH2 0xA7C JUMP JUMPDEST SWAP6 POP PUSH2 0xAC8 PUSH1 0x20 DUP9 ADD PUSH2 0xA7C JUMP JUMPDEST SWAP5 POP PUSH2 0xAD6 PUSH1 0x40 DUP9 ADD PUSH2 0xA7C JUMP JUMPDEST SWAP4 POP PUSH2 0xAE4 PUSH1 0x60 DUP9 ADD PUSH2 0xA7C JUMP JUMPDEST SWAP3 POP PUSH2 0xAF2 PUSH1 0x80 DUP9 ADD PUSH2 0xA7C JUMP JUMPDEST SWAP2 POP PUSH2 0xB00 PUSH1 0xA0 DUP9 ADD PUSH2 0xA7C JUMP JUMPDEST SWAP1 POP SWAP3 SWAP6 POP SWAP3 SWAP6 POP SWAP3 SWAP6 JUMP JUMPDEST PUSH1 0x0 DUP1 PUSH1 0x0 PUSH1 0x60 DUP5 DUP7 SUB SLT ISZERO PUSH2 0xB21 JUMPI PUSH1 0x0 DUP1 REVERT JUMPDEST DUP4 CALLDATALOAD SWAP3 POP PUSH2 0xB31 PUSH1 0x20 DUP6 ADD PUSH2 0xA7C JUMP JUMPDEST SWAP2 POP PUSH1 0x40 DUP5 ADD CALLDATALOAD SWAP1 POP SWAP3 POP SWAP3 POP SWAP3 JUMP JUMPDEST PUSH1 0x0 PUSH1 0x20 DUP3 DUP5 SUB SLT ISZERO PUSH2 0xB53 JUMPI PUSH1 0x0 DUP1 REVERT JUMPDEST PUSH2 0xB5C DUP3 PUSH2 0xA7C JUMP JUMPDEST SWAP4 SWAP3 POP POP POP JUMP JUMPDEST PUSH4 0x4E487B71 PUSH1 0xE0 SHL PUSH1 0x0 MSTORE PUSH1 0x11 PUSH1 0x4 MSTORE PUSH1 0x24 PUSH1 0x0 REVERT JUMPDEST DUP1 DUP3 MUL DUP2 ISZERO DUP3 DUP3 DIV DUP5 EQ OR PUSH2 0xB90 JUMPI PUSH2 0xB90 PUSH2 0xB63 JUMP JUMPDEST SWAP3 SWAP2 POP POP JUMP JUMPDEST PUSH1 0x0 DUP3 PUSH2 0xBB3 JUMPI PUSH4 0x4E487B71 PUSH1 0xE0 SHL PUSH1 0x0 MSTORE PUSH1 0x12 PUSH1 0x4 MSTORE PUSH1 0x24 PUSH1 0x0 REVERT JUMPDEST POP DIV SWAP1 JUMP JUMPDEST DUP1 DUP3 ADD DUP1 DUP3 GT ISZERO PUSH2 0xB90 JUMPI PUSH2 0xB90 PUSH2 0xB63 JUMP JUMPDEST DUP2 DUP2 SUB DUP2 DUP2 GT ISZERO PUSH2 0xB90 JUMPI PUSH2 0xB90 PUSH2 0xB63 JUMP INVALID PUSH5 0x10AC85C52B LOG3 REVERT 0x27 0xB1 EXP 0xB6 DUP4 DUP9 0xB0 PUSH20 0xFB2DA3E49390E48506118349EBA4A83DA2646970 PUSH7 0x735822122076F4 0xAA 0xCE SWAP14 DELEGATECALL 0xAF ADD EXTCODESIZE TSTORE 0xE7 SWAP3 0xB5 MUL 0xBC 0xBE 0x2B SWAP3 SELFDESTRUCT SGT SWAP11 PUSH4 0x3D4565BB DUP1 0x26 0xC0 0xEC 0xBA SELFBALANCE PUSH5 0x736F6C6343 STOP ADDMOD XOR STOP CALLER "},"methodIdentifiers":{"companyReserveTreasury()":"1f226590","directIncomeTreasury()":"83ee2b7c","levelIncomeTreasury()":"e91621fb","owner()":"8da5cb5b","pause()":"8456cb59","paused()":"5c975abb","paymentToken()":"3013ce29","productAllocationTreasury()":"7e9f77da","rechargeTreasury()":"07bbd843","renounceOwnership()":"715018a6","setTreasuries(address,address,address,address,address,address)":"2d0e2499","singleLegTreasury()":"46dfb14f","split(bytes32,address,uint256)":"2ffa3ce1","transferOwnership(address)":"f2fde38b","unpause()":"3f4ba83a"}}}}}