{"contracts/HalalBusinessPackageManager.sol":{"HalalBusinessPackageManager":{"abi":[{"inputs":[{"internalType":"contract IERC20","name":"token","type":"address"},{"internalType":"contract HBReferralRegistry","name":"registry","type":"address"},{"internalType":"contract HBTreasurySplitter","name":"splitter","type":"address"},{"internalType":"address","name":"initialOwner","type":"address"}],"stateMutability":"nonpayable","type":"constructor"},{"inputs":[],"name":"EnforcedPause","type":"error"},{"inputs":[],"name":"ExpectedPause","type":"error"},{"inputs":[{"internalType":"address","name":"owner","type":"address"}],"name":"OwnableInvalidOwner","type":"error"},{"inputs":[{"internalType":"address","name":"account","type":"address"}],"name":"OwnableUnauthorizedAccount","type":"error"},{"inputs":[],"name":"ReentrancyGuardReentrantCall","type":"error"},{"inputs":[{"internalType":"address","name":"token","type":"address"}],"name":"SafeERC20FailedOperation","type":"error"},{"anonymous":false,"inputs":[{"indexed":true,"internalType":"bytes32","name":"purchaseId","type":"bytes32"},{"indexed":true,"internalType":"address","name":"buyer","type":"address"},{"indexed":false,"internalType":"uint256","name":"packageId","type":"uint256"},{"indexed":false,"internalType":"uint256","name":"directAmount","type":"uint256"},{"indexed":false,"internalType":"uint256","name":"productAmount","type":"uint256"},{"indexed":false,"internalType":"uint256","name":"rechargeAmount","type":"uint256"},{"indexed":false,"internalType":"uint256","name":"levelAmount","type":"uint256"},{"indexed":false,"internalType":"uint256","name":"singleLegAmount","type":"uint256"}],"name":"DistributionCreated","type":"event"},{"anonymous":false,"inputs":[{"indexed":true,"internalType":"address","name":"previousOwner","type":"address"},{"indexed":true,"internalType":"address","name":"newOwner","type":"address"}],"name":"OwnershipTransferred","type":"event"},{"anonymous":false,"inputs":[{"indexed":true,"internalType":"uint256","name":"packageId","type":"uint256"},{"indexed":false,"internalType":"uint256","name":"price","type":"uint256"},{"indexed":false,"internalType":"bool","name":"active","type":"bool"}],"name":"PackageConfigured","type":"event"},{"anonymous":false,"inputs":[{"indexed":true,"internalType":"bytes32","name":"purchaseId","type":"bytes32"},{"indexed":true,"internalType":"address","name":"buyer","type":"address"},{"indexed":true,"internalType":"uint256","name":"packageId","type":"uint256"},{"indexed":false,"internalType":"uint256","name":"price","type":"uint256"},{"indexed":false,"internalType":"address","name":"sponsor","type":"address"},{"indexed":false,"internalType":"bytes32","name":"referralCode","type":"bytes32"}],"name":"PackagePurchased","type":"event"},{"anonymous":false,"inputs":[{"indexed":false,"internalType":"address","name":"account","type":"address"}],"name":"Paused","type":"event"},{"anonymous":false,"inputs":[{"indexed":true,"internalType":"address","name":"buyer","type":"address"},{"indexed":true,"internalType":"address","name":"sponsor","type":"address"},{"indexed":true,"internalType":"bytes32","name":"referralCode","type":"bytes32"}],"name":"SponsorLinked","type":"event"},{"anonymous":false,"inputs":[{"indexed":false,"internalType":"address","name":"account","type":"address"}],"name":"Unpaused","type":"event"},{"inputs":[{"internalType":"uint256","name":"packageId","type":"uint256"},{"internalType":"address","name":"sponsorAddress","type":"address"},{"internalType":"bytes32","name":"referralCode","type":"bytes32"}],"name":"buyPackage","outputs":[],"stateMutability":"nonpayable","type":"function"},{"inputs":[{"internalType":"address","name":"","type":"address"}],"name":"currentPackageId","outputs":[{"internalType":"uint256","name":"","type":"uint256"}],"stateMutability":"view","type":"function"},{"inputs":[{"internalType":"address","name":"","type":"address"}],"name":"currentPackagePrice","outputs":[{"internalType":"uint256","name":"","type":"uint256"}],"stateMutability":"view","type":"function"},{"inputs":[],"name":"owner","outputs":[{"internalType":"address","name":"","type":"address"}],"stateMutability":"view","type":"function"},{"inputs":[{"internalType":"uint256","name":"","type":"uint256"}],"name":"packages","outputs":[{"internalType":"uint256","name":"price","type":"uint256"},{"internalType":"bool","name":"active","type":"bool"}],"stateMutability":"view","type":"function"},{"inputs":[],"name":"pause","outputs":[],"stateMutability":"nonpayable","type":"function"},{"inputs":[],"name":"paused","outputs":[{"internalType":"bool","name":"","type":"bool"}],"stateMutability":"view","type":"function"},{"inputs":[],"name":"paymentToken","outputs":[{"internalType":"contract IERC20","name":"","type":"address"}],"stateMutability":"view","type":"function"},{"inputs":[],"name":"referralRegistry","outputs":[{"internalType":"contract HBReferralRegistry","name":"","type":"address"}],"stateMutability":"view","type":"function"},{"inputs":[],"name":"renounceOwnership","outputs":[],"stateMutability":"nonpayable","type":"function"},{"inputs":[{"internalType":"contract HBReferralRegistry","name":"registry","type":"address"},{"internalType":"contract HBTreasurySplitter","name":"splitter","type":"address"}],"name":"setDependencies","outputs":[],"stateMutability":"nonpayable","type":"function"},{"inputs":[{"internalType":"uint256","name":"packageId","type":"uint256"},{"internalType":"uint256","name":"price","type":"uint256"},{"internalType":"bool","name":"active","type":"bool"}],"name":"setPackage","outputs":[],"stateMutability":"nonpayable","type":"function"},{"inputs":[{"internalType":"address","name":"newOwner","type":"address"}],"name":"transferOwnership","outputs":[],"stateMutability":"nonpayable","type":"function"},{"inputs":[],"name":"treasurySplitter","outputs":[{"internalType":"contract HBTreasurySplitter","name":"","type":"address"}],"stateMutability":"view","type":"function"},{"inputs":[],"name":"unpause","outputs":[],"stateMutability":"nonpayable","type":"function"}],"evm":{"bytecode":{"linkReferences":{},"object":"60a06040523480156200001157600080fd5b5060405162001268380380620012688339810160408190526200003491620003ac565b806001600160a01b0381166200006557604051631e4fbdf760e01b8152600060048201526024015b60405180910390fd5b620000708162000243565b5060017f9b779b17422d0df92223018b32b4d1fa46e071723d6817e2486d003becc55f00556001600160a01b038416620000de5760405162461bcd60e51b815260206004820152600e60248201526d48423a20746f6b656e207a65726f60901b60448201526064016200005c565b6001600160a01b0383166200012a5760405162461bcd60e51b815260206004820152601160248201527048423a207265676973747279207a65726f60781b60448201526064016200005c565b6001600160a01b038216620001765760405162461bcd60e51b815260206004820152601160248201527048423a2073706c6974746572207a65726f60781b60448201526064016200005c565b6001600160a01b03848116608052600180546001600160a01b03199081168684161782556002805490911692851692909217909155620001c090673782dace9d9000008162000293565b620001d860026801158e460913d00000600162000293565b620001f0600368056bc75e2d63100000600162000293565b620002086004681b1ae4d6e2ef500000600162000293565b62000220600568878678326eac900000600162000293565b6200023960066902a5a058fc295ed00000600162000293565b5050505062000414565b600080546001600160a01b038381166001600160a01b0319831681178455604051919092169283917f8be0079c531659141344cd1fd0a4f28419497f9722a3daafe3b4186f6b6457e09190a35050565b60008311620002d85760405162461bcd60e51b815260206004820152601060248201526f48423a207061636b616765207a65726f60801b60448201526064016200005c565b600082116200031b5760405162461bcd60e51b815260206004820152600e60248201526d48423a207072696365207a65726f60901b60448201526064016200005c565b604080518082018252838152821515602080830182815260008881526003835285902093518455516001909301805460ff19169315159390931790925582518581529182015284917fbcf71c11d7eebe400b8d795c951de0289247c17af6a78342577367bcb4cda9c8910160405180910390a2505050565b6001600160a01b0381168114620003a957600080fd5b50565b60008060008060808587031215620003c357600080fd5b8451620003d08162000393565b6020860151909450620003e38162000393565b6040860151909350620003f68162000393565b6060860151909250620004098162000393565b939692955090935050565b608051610e32620004366000396000818160ff01526105af0152610e326000f3fe608060405234801561001057600080fd5b50600436106100f55760003560e01c80635c975abb116100975780638da5cb5b116100665780638da5cb5b1461020f578063c216212a14610220578063e87c28a71461025f578063f2fde38b1461027257600080fd5b80635c975abb146101cf578063715018a6146101ec5780638456cb59146101f45780638b1b3866146101fc57600080fd5b80634e627e62116100d35780634e627e621461017657806354b8cf6d1461018957806357aed2071461019c5780635b5d06cc146101af57600080fd5b80633013ce29146100fa5780633c942a081461013e5780633f4ba83a1461016c575b600080fd5b6101217f000000000000000000000000000000000000000000000000000000000000000081565b6040516001600160a01b0390911681526020015b60405180910390f35b61015e61014c366004610ca6565b60056020526000908152604090205481565b604051908152602001610135565b610174610285565b005b600154610121906001600160a01b031681565b610174610197366004610cca565b610297565b6101746101aa366004610d02565b6107d0565b61015e6101bd366004610ca6565b60046020526000908152604090205481565b600054600160a01b900460ff166040519015158152602001610135565b6101746107e3565b6101746107f5565b600254610121906001600160a01b031681565b6000546001600160a01b0316610121565b61024a61022e366004610d40565b6003602052600090815260409020805460019091015460ff1682565b60408051928352901515602083015201610135565b61017461026d366004610d59565b610805565b610174610280366004610ca6565b6108cf565b61028d61090d565b61029561093a565b565b61029f61098f565b6102a76109bd565b6000838152600360209081526040918290208251808401909352805483526001015460ff16151590820181905261031b5760405162461bcd60e51b815260206004820152601360248201527248423a20696e76616c6964207061636b61676560681b60448201526064015b60405180910390fd5b805161035d5760405162461bcd60e51b815260206004820152601160248201527048423a207072696365206d697373696e6760781b6044820152606401610312565b826001600160a01b03811615801561037457508215155b156103e95760015460405163c4f343fd60e01b8152600481018590526001600160a01b039091169063c4f343fd90602401602060405180830381865afa1580156103c2573d6000803e3d6000fd5b505050506040513d601f19601f820116820180604052508101906103e69190610d92565b90505b6001600160a01b038116158015906104745750600154604051631a70845360e11b81523360048201526000916001600160a01b0316906334e108a690602401602060405180830381865afa158015610445573d6000803e3d6000fd5b505050506040513d601f19601f820116820180604052508101906104699190610d92565b6001600160a01b0316145b1561051e5760015460405163ce900f5760e01b81523360048201526001600160a01b038381166024830152604482018690529091169063ce900f5790606401600060405180830381600087803b1580156104cd57600080fd5b505af11580156104e1573d6000803e3d6000fd5b50506040518592506001600160a01b038416915033907f50db5bae9e391b946ce57405afd82a03203aebc4af75e18b7285fb0c76b9d91f90600090a45b336000818152600560209081526040808320549051929361058193469330938c92439201958652606094851b6bffffffffffffffffffffffff1990811660208801529390941b909216603485015260488401526068830152608882015260a80190565b60408051808303601f19018152919052805160209091012060025484519192506105db916001600160a01b037f000000000000000000000000000000000000000000000000000000000000000081169233929116906109e8565b6002548351604051632ffa3ce160e01b81526004810184905233602482015260448101919091526001600160a01b0390911690632ffa3ce190606401600060405180830381600087803b15801561063157600080fd5b505af1158015610645573d6000803e3d6000fd5b50503360008181526004602090815260408083208c90558851600583529281902092909255875182519081526001600160a01b0388169181019190915290810188905289935090915083907f9fa0a7cff4e0fc146dee3178cf33484b3ad3abb6266ab2f2dfcca541e64907039060600160405180910390a4336001600160a01b0316817f58f6fb519bf89db3b04f7a6c34a2e0857ed55c00b6ad0051d8cf2d96470dbc7e8860648760000151600f6106fd9190610daf565b6107079190610dda565b875160649061071790601e610daf565b6107219190610dda565b885160649061073190601e610daf565b61073b9190610dda565b895160649061074b90600a610daf565b6107559190610dda565b8a5160649061076590600f610daf565b61076f9190610dda565b604080519687526020870195909552938501929092526060840152608083015260a082015260c00160405180910390a35050506107cb60017f9b779b17422d0df92223018b32b4d1fa46e071723d6817e2486d003becc55f0055565b505050565b6107d861090d565b6107cb838383610a24565b6107eb61090d565b6102956000610b20565b6107fd61090d565b610295610b70565b61080d61090d565b6001600160a01b0382166108575760405162461bcd60e51b815260206004820152601160248201527048423a207265676973747279207a65726f60781b6044820152606401610312565b6001600160a01b0381166108a15760405162461bcd60e51b815260206004820152601160248201527048423a2073706c6974746572207a65726f60781b6044820152606401610312565b600180546001600160a01b039384166001600160a01b03199182161790915560028054929093169116179055565b6108d761090d565b6001600160a01b03811661090157604051631e4fbdf760e01b815260006004820152602401610312565b61090a81610b20565b50565b6000546001600160a01b031633146102955760405163118cdaa760e01b8152336004820152602401610312565b610942610bb3565b6000805460ff60a01b191690557f5db9ee0a495bf2e6ff9c91a7834c1ba4fdd244a5e8aa4e537bd38aeae4b073aa335b6040516001600160a01b03909116815260200160405180910390a1565b610997610bdd565b60027f9b779b17422d0df92223018b32b4d1fa46e071723d6817e2486d003becc55f0055565b600054600160a01b900460ff16156102955760405163d93c066560e01b815260040160405180910390fd5b6109f6848484846001610c1f565b610a1e57604051635274afe760e01b81526001600160a01b0385166004820152602401610312565b50505050565b60008311610a675760405162461bcd60e51b815260206004820152601060248201526f48423a207061636b616765207a65726f60801b6044820152606401610312565b60008211610aa85760405162461bcd60e51b815260206004820152600e60248201526d48423a207072696365207a65726f60901b6044820152606401610312565b604080518082018252838152821515602080830182815260008881526003835285902093518455516001909301805460ff19169315159390931790925582518581529182015284917fbcf71c11d7eebe400b8d795c951de0289247c17af6a78342577367bcb4cda9c8910160405180910390a2505050565b600080546001600160a01b038381166001600160a01b0319831681178455604051919092169283917f8be0079c531659141344cd1fd0a4f28419497f9722a3daafe3b4186f6b6457e09190a35050565b610b786109bd565b6000805460ff60a01b1916600160a01b1790557f62e78cea01bee320cd4e420270b5ea74000d11b0c9f74754ebdbfc544b05a2586109723390565b600054600160a01b900460ff1661029557604051638dfc202b60e01b815260040160405180910390fd5b7f9b779b17422d0df92223018b32b4d1fa46e071723d6817e2486d003becc55f005460020361029557604051633ee5aeb560e01b815260040160405180910390fd5b6040516323b872dd60e01b60008181526001600160a01b038781166004528616602452604485905291602083606481808c5af192506001600051148316610c7f578383151615610c72573d6000823e3d81fd5b6000883b113d1516831692505b60405250600060605295945050505050565b6001600160a01b038116811461090a57600080fd5b600060208284031215610cb857600080fd5b8135610cc381610c91565b9392505050565b600080600060608486031215610cdf57600080fd5b833592506020840135610cf181610c91565b929592945050506040919091013590565b600080600060608486031215610d1757600080fd5b833592506020840135915060408401358015158114610d3557600080fd5b809150509250925092565b600060208284031215610d5257600080fd5b5035919050565b60008060408385031215610d6c57600080fd5b8235610d7781610c91565b91506020830135610d8781610c91565b809150509250929050565b600060208284031215610da457600080fd5b8151610cc381610c91565b8082028115828204841417610dd457634e487b7160e01b600052601160045260246000fd5b92915050565b600082610df757634e487b7160e01b600052601260045260246000fd5b50049056fea2646970667358221220e519fe4d72706d37506bf95c06cb05da9942f2f95348c7e53e08107b90c6491f64736f6c63430008180033","opcodes":"PUSH1 0xA0 PUSH1 0x40 MSTORE CALLVALUE DUP1 ISZERO PUSH3 0x11 JUMPI PUSH1 0x0 DUP1 REVERT JUMPDEST POP PUSH1 0x40 MLOAD PUSH3 0x1268 CODESIZE SUB DUP1 PUSH3 0x1268 DUP4 CODECOPY DUP2 ADD PUSH1 0x40 DUP2 SWAP1 MSTORE PUSH3 0x34 SWAP2 PUSH3 0x3AC JUMP JUMPDEST DUP1 PUSH1 0x1 PUSH1 0x1 PUSH1 0xA0 SHL SUB DUP2 AND PUSH3 0x65 JUMPI PUSH1 0x40 MLOAD PUSH4 0x1E4FBDF7 PUSH1 0xE0 SHL DUP2 MSTORE PUSH1 0x0 PUSH1 0x4 DUP3 ADD MSTORE PUSH1 0x24 ADD JUMPDEST PUSH1 0x40 MLOAD DUP1 SWAP2 SUB SWAP1 REVERT JUMPDEST PUSH3 0x70 DUP2 PUSH3 0x243 JUMP JUMPDEST POP PUSH1 0x1 PUSH32 0x9B779B17422D0DF92223018B32B4D1FA46E071723D6817E2486D003BECC55F00 SSTORE PUSH1 0x1 PUSH1 0x1 PUSH1 0xA0 SHL SUB DUP5 AND PUSH3 0xDE JUMPI PUSH1 0x40 MLOAD PUSH3 0x461BCD PUSH1 0xE5 SHL DUP2 MSTORE PUSH1 0x20 PUSH1 0x4 DUP3 ADD MSTORE PUSH1 0xE PUSH1 0x24 DUP3 ADD MSTORE PUSH14 0x48423A20746F6B656E207A65726F PUSH1 0x90 SHL PUSH1 0x44 DUP3 ADD MSTORE PUSH1 0x64 ADD PUSH3 0x5C JUMP JUMPDEST PUSH1 0x1 PUSH1 0x1 PUSH1 0xA0 SHL SUB DUP4 AND PUSH3 0x12A JUMPI PUSH1 0x40 MLOAD PUSH3 0x461BCD PUSH1 0xE5 SHL DUP2 MSTORE PUSH1 0x20 PUSH1 0x4 DUP3 ADD MSTORE PUSH1 0x11 PUSH1 0x24 DUP3 ADD MSTORE PUSH17 0x48423A207265676973747279207A65726F PUSH1 0x78 SHL PUSH1 0x44 DUP3 ADD MSTORE PUSH1 0x64 ADD PUSH3 0x5C JUMP JUMPDEST PUSH1 0x1 PUSH1 0x1 PUSH1 0xA0 SHL SUB DUP3 AND PUSH3 0x176 JUMPI PUSH1 0x40 MLOAD PUSH3 0x461BCD PUSH1 0xE5 SHL DUP2 MSTORE PUSH1 0x20 PUSH1 0x4 DUP3 ADD MSTORE PUSH1 0x11 PUSH1 0x24 DUP3 ADD MSTORE PUSH17 0x48423A2073706C6974746572207A65726F PUSH1 0x78 SHL PUSH1 0x44 DUP3 ADD MSTORE PUSH1 0x64 ADD PUSH3 0x5C JUMP JUMPDEST PUSH1 0x1 PUSH1 0x1 PUSH1 0xA0 SHL SUB DUP5 DUP2 AND PUSH1 0x80 MSTORE PUSH1 0x1 DUP1 SLOAD PUSH1 0x1 PUSH1 0x1 PUSH1 0xA0 SHL SUB NOT SWAP1 DUP2 AND DUP7 DUP5 AND OR DUP3 SSTORE PUSH1 0x2 DUP1 SLOAD SWAP1 SWAP2 AND SWAP3 DUP6 AND SWAP3 SWAP1 SWAP3 OR SWAP1 SWAP2 SSTORE PUSH3 0x1C0 SWAP1 PUSH8 0x3782DACE9D900000 DUP2 PUSH3 0x293 JUMP JUMPDEST PUSH3 0x1D8 PUSH1 0x2 PUSH9 0x1158E460913D00000 PUSH1 0x1 PUSH3 0x293 JUMP JUMPDEST PUSH3 0x1F0 PUSH1 0x3 PUSH9 0x56BC75E2D63100000 PUSH1 0x1 PUSH3 0x293 JUMP JUMPDEST PUSH3 0x208 PUSH1 0x4 PUSH9 0x1B1AE4D6E2EF500000 PUSH1 0x1 PUSH3 0x293 JUMP JUMPDEST PUSH3 0x220 PUSH1 0x5 PUSH9 0x878678326EAC900000 PUSH1 0x1 PUSH3 0x293 JUMP JUMPDEST PUSH3 0x239 PUSH1 0x6 PUSH10 0x2A5A058FC295ED00000 PUSH1 0x1 PUSH3 0x293 JUMP JUMPDEST POP POP POP POP PUSH3 0x414 JUMP JUMPDEST PUSH1 0x0 DUP1 SLOAD PUSH1 0x1 PUSH1 0x1 PUSH1 0xA0 SHL SUB DUP4 DUP2 AND PUSH1 0x1 PUSH1 0x1 PUSH1 0xA0 SHL SUB NOT DUP4 AND DUP2 OR DUP5 SSTORE PUSH1 0x40 MLOAD SWAP2 SWAP1 SWAP3 AND SWAP3 DUP4 SWAP2 PUSH32 0x8BE0079C531659141344CD1FD0A4F28419497F9722A3DAAFE3B4186F6B6457E0 SWAP2 SWAP1 LOG3 POP POP JUMP JUMPDEST PUSH1 0x0 DUP4 GT PUSH3 0x2D8 JUMPI PUSH1 0x40 MLOAD PUSH3 0x461BCD PUSH1 0xE5 SHL DUP2 MSTORE PUSH1 0x20 PUSH1 0x4 DUP3 ADD MSTORE PUSH1 0x10 PUSH1 0x24 DUP3 ADD MSTORE PUSH16 0x48423A207061636B616765207A65726F PUSH1 0x80 SHL PUSH1 0x44 DUP3 ADD MSTORE PUSH1 0x64 ADD PUSH3 0x5C JUMP JUMPDEST PUSH1 0x0 DUP3 GT PUSH3 0x31B JUMPI PUSH1 0x40 MLOAD PUSH3 0x461BCD PUSH1 0xE5 SHL DUP2 MSTORE PUSH1 0x20 PUSH1 0x4 DUP3 ADD MSTORE PUSH1 0xE PUSH1 0x24 DUP3 ADD MSTORE PUSH14 0x48423A207072696365207A65726F PUSH1 0x90 SHL PUSH1 0x44 DUP3 ADD MSTORE PUSH1 0x64 ADD PUSH3 0x5C JUMP JUMPDEST PUSH1 0x40 DUP1 MLOAD DUP1 DUP3 ADD DUP3 MSTORE DUP4 DUP2 MSTORE DUP3 ISZERO ISZERO PUSH1 0x20 DUP1 DUP4 ADD DUP3 DUP2 MSTORE PUSH1 0x0 DUP9 DUP2 MSTORE PUSH1 0x3 DUP4 MSTORE DUP6 SWAP1 KECCAK256 SWAP4 MLOAD DUP5 SSTORE MLOAD PUSH1 0x1 SWAP1 SWAP4 ADD DUP1 SLOAD PUSH1 0xFF NOT AND SWAP4 ISZERO ISZERO SWAP4 SWAP1 SWAP4 OR SWAP1 SWAP3 SSTORE DUP3 MLOAD DUP6 DUP2 MSTORE SWAP2 DUP3 ADD MSTORE DUP5 SWAP2 PUSH32 0xBCF71C11D7EEBE400B8D795C951DE0289247C17AF6A78342577367BCB4CDA9C8 SWAP2 ADD PUSH1 0x40 MLOAD DUP1 SWAP2 SUB SWAP1 LOG2 POP POP POP JUMP JUMPDEST PUSH1 0x1 PUSH1 0x1 PUSH1 0xA0 SHL SUB DUP2 AND DUP2 EQ PUSH3 0x3A9 JUMPI PUSH1 0x0 DUP1 REVERT JUMPDEST POP JUMP JUMPDEST PUSH1 0x0 DUP1 PUSH1 0x0 DUP1 PUSH1 0x80 DUP6 DUP8 SUB SLT ISZERO PUSH3 0x3C3 JUMPI PUSH1 0x0 DUP1 REVERT JUMPDEST DUP5 MLOAD PUSH3 0x3D0 DUP2 PUSH3 0x393 JUMP JUMPDEST PUSH1 0x20 DUP7 ADD MLOAD SWAP1 SWAP5 POP PUSH3 0x3E3 DUP2 PUSH3 0x393 JUMP JUMPDEST PUSH1 0x40 DUP7 ADD MLOAD SWAP1 SWAP4 POP PUSH3 0x3F6 DUP2 PUSH3 0x393 JUMP JUMPDEST PUSH1 0x60 DUP7 ADD MLOAD SWAP1 SWAP3 POP PUSH3 0x409 DUP2 PUSH3 0x393 JUMP JUMPDEST SWAP4 SWAP7 SWAP3 SWAP6 POP SWAP1 SWAP4 POP POP JUMP JUMPDEST PUSH1 0x80 MLOAD PUSH2 0xE32 PUSH3 0x436 PUSH1 0x0 CODECOPY PUSH1 0x0 DUP2 DUP2 PUSH1 0xFF ADD MSTORE PUSH2 0x5AF ADD MSTORE PUSH2 0xE32 PUSH1 0x0 RETURN INVALID PUSH1 0x80 PUSH1 0x40 MSTORE CALLVALUE DUP1 ISZERO PUSH2 0x10 JUMPI PUSH1 0x0 DUP1 REVERT JUMPDEST POP PUSH1 0x4 CALLDATASIZE LT PUSH2 0xF5 JUMPI PUSH1 0x0 CALLDATALOAD PUSH1 0xE0 SHR DUP1 PUSH4 0x5C975ABB GT PUSH2 0x97 JUMPI DUP1 PUSH4 0x8DA5CB5B GT PUSH2 0x66 JUMPI DUP1 PUSH4 0x8DA5CB5B EQ PUSH2 0x20F JUMPI DUP1 PUSH4 0xC216212A EQ PUSH2 0x220 JUMPI DUP1 PUSH4 0xE87C28A7 EQ PUSH2 0x25F JUMPI DUP1 PUSH4 0xF2FDE38B EQ PUSH2 0x272 JUMPI PUSH1 0x0 DUP1 REVERT JUMPDEST DUP1 PUSH4 0x5C975ABB EQ PUSH2 0x1CF JUMPI DUP1 PUSH4 0x715018A6 EQ PUSH2 0x1EC JUMPI DUP1 PUSH4 0x8456CB59 EQ PUSH2 0x1F4 JUMPI DUP1 PUSH4 0x8B1B3866 EQ PUSH2 0x1FC JUMPI PUSH1 0x0 DUP1 REVERT JUMPDEST DUP1 PUSH4 0x4E627E62 GT PUSH2 0xD3 JUMPI DUP1 PUSH4 0x4E627E62 EQ PUSH2 0x176 JUMPI DUP1 PUSH4 0x54B8CF6D EQ PUSH2 0x189 JUMPI DUP1 PUSH4 0x57AED207 EQ PUSH2 0x19C JUMPI DUP1 PUSH4 0x5B5D06CC EQ PUSH2 0x1AF JUMPI PUSH1 0x0 DUP1 REVERT JUMPDEST DUP1 PUSH4 0x3013CE29 EQ PUSH2 0xFA JUMPI DUP1 PUSH4 0x3C942A08 EQ PUSH2 0x13E JUMPI DUP1 PUSH4 0x3F4BA83A EQ PUSH2 0x16C JUMPI JUMPDEST PUSH1 0x0 DUP1 REVERT JUMPDEST PUSH2 0x121 PUSH32 0x0 DUP2 JUMP JUMPDEST PUSH1 0x40 MLOAD PUSH1 0x1 PUSH1 0x1 PUSH1 0xA0 SHL SUB SWAP1 SWAP2 AND DUP2 MSTORE PUSH1 0x20 ADD JUMPDEST PUSH1 0x40 MLOAD DUP1 SWAP2 SUB SWAP1 RETURN JUMPDEST PUSH2 0x15E PUSH2 0x14C CALLDATASIZE PUSH1 0x4 PUSH2 0xCA6 JUMP JUMPDEST PUSH1 0x5 PUSH1 0x20 MSTORE PUSH1 0x0 SWAP1 DUP2 MSTORE PUSH1 0x40 SWAP1 KECCAK256 SLOAD DUP2 JUMP JUMPDEST PUSH1 0x40 MLOAD SWAP1 DUP2 MSTORE PUSH1 0x20 ADD PUSH2 0x135 JUMP JUMPDEST PUSH2 0x174 PUSH2 0x285 JUMP JUMPDEST STOP JUMPDEST PUSH1 0x1 SLOAD PUSH2 0x121 SWAP1 PUSH1 0x1 PUSH1 0x1 PUSH1 0xA0 SHL SUB AND DUP2 JUMP JUMPDEST PUSH2 0x174 PUSH2 0x197 CALLDATASIZE PUSH1 0x4 PUSH2 0xCCA JUMP JUMPDEST PUSH2 0x297 JUMP JUMPDEST PUSH2 0x174 PUSH2 0x1AA CALLDATASIZE PUSH1 0x4 PUSH2 0xD02 JUMP JUMPDEST PUSH2 0x7D0 JUMP JUMPDEST PUSH2 0x15E PUSH2 0x1BD CALLDATASIZE PUSH1 0x4 PUSH2 0xCA6 JUMP JUMPDEST PUSH1 0x4 PUSH1 0x20 MSTORE PUSH1 0x0 SWAP1 DUP2 MSTORE PUSH1 0x40 SWAP1 KECCAK256 SLOAD DUP2 JUMP JUMPDEST PUSH1 0x0 SLOAD PUSH1 0x1 PUSH1 0xA0 SHL SWAP1 DIV PUSH1 0xFF AND PUSH1 0x40 MLOAD SWAP1 ISZERO ISZERO DUP2 MSTORE PUSH1 0x20 ADD PUSH2 0x135 JUMP JUMPDEST PUSH2 0x174 PUSH2 0x7E3 JUMP JUMPDEST PUSH2 0x174 PUSH2 0x7F5 JUMP JUMPDEST PUSH1 0x2 SLOAD PUSH2 0x121 SWAP1 PUSH1 0x1 PUSH1 0x1 PUSH1 0xA0 SHL SUB AND DUP2 JUMP JUMPDEST PUSH1 0x0 SLOAD PUSH1 0x1 PUSH1 0x1 PUSH1 0xA0 SHL SUB AND PUSH2 0x121 JUMP JUMPDEST PUSH2 0x24A PUSH2 0x22E CALLDATASIZE PUSH1 0x4 PUSH2 0xD40 JUMP JUMPDEST PUSH1 0x3 PUSH1 0x20 MSTORE PUSH1 0x0 SWAP1 DUP2 MSTORE PUSH1 0x40 SWAP1 KECCAK256 DUP1 SLOAD PUSH1 0x1 SWAP1 SWAP2 ADD SLOAD PUSH1 0xFF AND DUP3 JUMP JUMPDEST PUSH1 0x40 DUP1 MLOAD SWAP3 DUP4 MSTORE SWAP1 ISZERO ISZERO PUSH1 0x20 DUP4 ADD MSTORE ADD PUSH2 0x135 JUMP JUMPDEST PUSH2 0x174 PUSH2 0x26D CALLDATASIZE PUSH1 0x4 PUSH2 0xD59 JUMP JUMPDEST PUSH2 0x805 JUMP JUMPDEST PUSH2 0x174 PUSH2 0x280 CALLDATASIZE PUSH1 0x4 PUSH2 0xCA6 JUMP JUMPDEST PUSH2 0x8CF JUMP JUMPDEST PUSH2 0x28D PUSH2 0x90D JUMP JUMPDEST PUSH2 0x295 PUSH2 0x93A JUMP JUMPDEST JUMP JUMPDEST PUSH2 0x29F PUSH2 0x98F JUMP JUMPDEST PUSH2 0x2A7 PUSH2 0x9BD JUMP JUMPDEST PUSH1 0x0 DUP4 DUP2 MSTORE PUSH1 0x3 PUSH1 0x20 SWAP1 DUP2 MSTORE PUSH1 0x40 SWAP2 DUP3 SWAP1 KECCAK256 DUP3 MLOAD DUP1 DUP5 ADD SWAP1 SWAP4 MSTORE DUP1 SLOAD DUP4 MSTORE PUSH1 0x1 ADD SLOAD PUSH1 0xFF AND ISZERO ISZERO SWAP1 DUP3 ADD DUP2 SWAP1 MSTORE PUSH2 0x31B JUMPI PUSH1 0x40 MLOAD PUSH3 0x461BCD PUSH1 0xE5 SHL DUP2 MSTORE PUSH1 0x20 PUSH1 0x4 DUP3 ADD MSTORE PUSH1 0x13 PUSH1 0x24 DUP3 ADD MSTORE PUSH19 0x48423A20696E76616C6964207061636B616765 PUSH1 0x68 SHL PUSH1 0x44 DUP3 ADD MSTORE PUSH1 0x64 ADD JUMPDEST PUSH1 0x40 MLOAD DUP1 SWAP2 SUB SWAP1 REVERT JUMPDEST DUP1 MLOAD PUSH2 0x35D JUMPI PUSH1 0x40 MLOAD PUSH3 0x461BCD PUSH1 0xE5 SHL DUP2 MSTORE PUSH1 0x20 PUSH1 0x4 DUP3 ADD MSTORE PUSH1 0x11 PUSH1 0x24 DUP3 ADD MSTORE PUSH17 0x48423A207072696365206D697373696E67 PUSH1 0x78 SHL PUSH1 0x44 DUP3 ADD MSTORE PUSH1 0x64 ADD PUSH2 0x312 JUMP JUMPDEST DUP3 PUSH1 0x1 PUSH1 0x1 PUSH1 0xA0 SHL SUB DUP2 AND ISZERO DUP1 ISZERO PUSH2 0x374 JUMPI POP DUP3 ISZERO ISZERO JUMPDEST ISZERO PUSH2 0x3E9 JUMPI PUSH1 0x1 SLOAD PUSH1 0x40 MLOAD PUSH4 0xC4F343FD PUSH1 0xE0 SHL DUP2 MSTORE PUSH1 0x4 DUP2 ADD DUP6 SWAP1 MSTORE PUSH1 0x1 PUSH1 0x1 PUSH1 0xA0 SHL SUB SWAP1 SWAP2 AND SWAP1 PUSH4 0xC4F343FD SWAP1 PUSH1 0x24 ADD PUSH1 0x20 PUSH1 0x40 MLOAD DUP1 DUP4 SUB DUP2 DUP7 GAS STATICCALL ISZERO DUP1 ISZERO PUSH2 0x3C2 JUMPI RETURNDATASIZE PUSH1 0x0 DUP1 RETURNDATACOPY RETURNDATASIZE PUSH1 0x0 REVERT JUMPDEST POP POP POP POP PUSH1 0x40 MLOAD RETURNDATASIZE PUSH1 0x1F NOT PUSH1 0x1F DUP3 ADD AND DUP3 ADD DUP1 PUSH1 0x40 MSTORE POP DUP2 ADD SWAP1 PUSH2 0x3E6 SWAP2 SWAP1 PUSH2 0xD92 JUMP JUMPDEST SWAP1 POP JUMPDEST PUSH1 0x1 PUSH1 0x1 PUSH1 0xA0 SHL SUB DUP2 AND ISZERO DUP1 ISZERO SWAP1 PUSH2 0x474 JUMPI POP PUSH1 0x1 SLOAD PUSH1 0x40 MLOAD PUSH4 0x1A708453 PUSH1 0xE1 SHL DUP2 MSTORE CALLER PUSH1 0x4 DUP3 ADD MSTORE PUSH1 0x0 SWAP2 PUSH1 0x1 PUSH1 0x1 PUSH1 0xA0 SHL SUB AND SWAP1 PUSH4 0x34E108A6 SWAP1 PUSH1 0x24 ADD PUSH1 0x20 PUSH1 0x40 MLOAD DUP1 DUP4 SUB DUP2 DUP7 GAS STATICCALL ISZERO DUP1 ISZERO PUSH2 0x445 JUMPI RETURNDATASIZE PUSH1 0x0 DUP1 RETURNDATACOPY RETURNDATASIZE PUSH1 0x0 REVERT JUMPDEST POP POP POP POP PUSH1 0x40 MLOAD RETURNDATASIZE PUSH1 0x1F NOT PUSH1 0x1F DUP3 ADD AND DUP3 ADD DUP1 PUSH1 0x40 MSTORE POP DUP2 ADD SWAP1 PUSH2 0x469 SWAP2 SWAP1 PUSH2 0xD92 JUMP JUMPDEST PUSH1 0x1 PUSH1 0x1 PUSH1 0xA0 SHL SUB AND EQ JUMPDEST ISZERO PUSH2 0x51E JUMPI PUSH1 0x1 SLOAD PUSH1 0x40 MLOAD PUSH4 0xCE900F57 PUSH1 0xE0 SHL DUP2 MSTORE CALLER PUSH1 0x4 DUP3 ADD MSTORE PUSH1 0x1 PUSH1 0x1 PUSH1 0xA0 SHL SUB DUP4 DUP2 AND PUSH1 0x24 DUP4 ADD MSTORE PUSH1 0x44 DUP3 ADD DUP7 SWAP1 MSTORE SWAP1 SWAP2 AND SWAP1 PUSH4 0xCE900F57 SWAP1 PUSH1 0x64 ADD PUSH1 0x0 PUSH1 0x40 MLOAD DUP1 DUP4 SUB DUP2 PUSH1 0x0 DUP8 DUP1 EXTCODESIZE ISZERO DUP1 ISZERO PUSH2 0x4CD JUMPI PUSH1 0x0 DUP1 REVERT JUMPDEST POP GAS CALL ISZERO DUP1 ISZERO PUSH2 0x4E1 JUMPI RETURNDATASIZE PUSH1 0x0 DUP1 RETURNDATACOPY RETURNDATASIZE PUSH1 0x0 REVERT JUMPDEST POP POP PUSH1 0x40 MLOAD DUP6 SWAP3 POP PUSH1 0x1 PUSH1 0x1 PUSH1 0xA0 SHL SUB DUP5 AND SWAP2 POP CALLER SWAP1 PUSH32 0x50DB5BAE9E391B946CE57405AFD82A03203AEBC4AF75E18B7285FB0C76B9D91F SWAP1 PUSH1 0x0 SWAP1 LOG4 JUMPDEST CALLER PUSH1 0x0 DUP2 DUP2 MSTORE PUSH1 0x5 PUSH1 0x20 SWAP1 DUP2 MSTORE PUSH1 0x40 DUP1 DUP4 KECCAK256 SLOAD SWAP1 MLOAD SWAP3 SWAP4 PUSH2 0x581 SWAP4 CHAINID SWAP4 ADDRESS SWAP4 DUP13 SWAP3 NUMBER SWAP3 ADD SWAP6 DUP7 MSTORE PUSH1 0x60 SWAP5 DUP6 SHL PUSH12 0xFFFFFFFFFFFFFFFFFFFFFFFF NOT SWAP1 DUP2 AND PUSH1 0x20 DUP9 ADD MSTORE SWAP4 SWAP1 SWAP5 SHL SWAP1 SWAP3 AND PUSH1 0x34 DUP6 ADD MSTORE PUSH1 0x48 DUP5 ADD MSTORE PUSH1 0x68 DUP4 ADD MSTORE PUSH1 0x88 DUP3 ADD MSTORE PUSH1 0xA8 ADD SWAP1 JUMP JUMPDEST PUSH1 0x40 DUP1 MLOAD DUP1 DUP4 SUB PUSH1 0x1F NOT ADD DUP2 MSTORE SWAP2 SWAP1 MSTORE DUP1 MLOAD PUSH1 0x20 SWAP1 SWAP2 ADD KECCAK256 PUSH1 0x2 SLOAD DUP5 MLOAD SWAP2 SWAP3 POP PUSH2 0x5DB SWAP2 PUSH1 0x1 PUSH1 0x1 PUSH1 0xA0 SHL SUB PUSH32 0x0 DUP2 AND SWAP3 CALLER SWAP3 SWAP2 AND SWAP1 PUSH2 0x9E8 JUMP JUMPDEST PUSH1 0x2 SLOAD DUP4 MLOAD PUSH1 0x40 MLOAD PUSH4 0x2FFA3CE1 PUSH1 0xE0 SHL DUP2 MSTORE PUSH1 0x4 DUP2 ADD DUP5 SWAP1 MSTORE CALLER PUSH1 0x24 DUP3 ADD MSTORE PUSH1 0x44 DUP2 ADD SWAP2 SWAP1 SWAP2 MSTORE PUSH1 0x1 PUSH1 0x1 PUSH1 0xA0 SHL SUB SWAP1 SWAP2 AND SWAP1 PUSH4 0x2FFA3CE1 SWAP1 PUSH1 0x64 ADD PUSH1 0x0 PUSH1 0x40 MLOAD DUP1 DUP4 SUB DUP2 PUSH1 0x0 DUP8 DUP1 EXTCODESIZE ISZERO DUP1 ISZERO PUSH2 0x631 JUMPI PUSH1 0x0 DUP1 REVERT JUMPDEST POP GAS CALL ISZERO DUP1 ISZERO PUSH2 0x645 JUMPI RETURNDATASIZE PUSH1 0x0 DUP1 RETURNDATACOPY RETURNDATASIZE PUSH1 0x0 REVERT JUMPDEST POP POP CALLER PUSH1 0x0 DUP2 DUP2 MSTORE PUSH1 0x4 PUSH1 0x20 SWAP1 DUP2 MSTORE PUSH1 0x40 DUP1 DUP4 KECCAK256 DUP13 SWAP1 SSTORE DUP9 MLOAD PUSH1 0x5 DUP4 MSTORE SWAP3 DUP2 SWAP1 KECCAK256 SWAP3 SWAP1 SWAP3 SSTORE DUP8 MLOAD DUP3 MLOAD SWAP1 DUP2 MSTORE PUSH1 0x1 PUSH1 0x1 PUSH1 0xA0 SHL SUB DUP9 AND SWAP2 DUP2 ADD SWAP2 SWAP1 SWAP2 MSTORE SWAP1 DUP2 ADD DUP9 SWAP1 MSTORE DUP10 SWAP4 POP SWAP1 SWAP2 POP DUP4 SWAP1 PUSH32 0x9FA0A7CFF4E0FC146DEE3178CF33484B3AD3ABB6266AB2F2DFCCA541E6490703 SWAP1 PUSH1 0x60 ADD PUSH1 0x40 MLOAD DUP1 SWAP2 SUB SWAP1 LOG4 CALLER PUSH1 0x1 PUSH1 0x1 PUSH1 0xA0 SHL SUB AND DUP2 PUSH32 0x58F6FB519BF89DB3B04F7A6C34A2E0857ED55C00B6AD0051D8CF2D96470DBC7E DUP9 PUSH1 0x64 DUP8 PUSH1 0x0 ADD MLOAD PUSH1 0xF PUSH2 0x6FD SWAP2 SWAP1 PUSH2 0xDAF JUMP JUMPDEST PUSH2 0x707 SWAP2 SWAP1 PUSH2 0xDDA JUMP JUMPDEST DUP8 MLOAD PUSH1 0x64 SWAP1 PUSH2 0x717 SWAP1 PUSH1 0x1E PUSH2 0xDAF JUMP JUMPDEST PUSH2 0x721 SWAP2 SWAP1 PUSH2 0xDDA JUMP JUMPDEST DUP9 MLOAD PUSH1 0x64 SWAP1 PUSH2 0x731 SWAP1 PUSH1 0x1E PUSH2 0xDAF JUMP JUMPDEST PUSH2 0x73B SWAP2 SWAP1 PUSH2 0xDDA JUMP JUMPDEST DUP10 MLOAD PUSH1 0x64 SWAP1 PUSH2 0x74B SWAP1 PUSH1 0xA PUSH2 0xDAF JUMP JUMPDEST PUSH2 0x755 SWAP2 SWAP1 PUSH2 0xDDA JUMP JUMPDEST DUP11 MLOAD PUSH1 0x64 SWAP1 PUSH2 0x765 SWAP1 PUSH1 0xF PUSH2 0xDAF JUMP JUMPDEST PUSH2 0x76F SWAP2 SWAP1 PUSH2 0xDDA JUMP JUMPDEST PUSH1 0x40 DUP1 MLOAD SWAP7 DUP8 MSTORE PUSH1 0x20 DUP8 ADD SWAP6 SWAP1 SWAP6 MSTORE SWAP4 DUP6 ADD SWAP3 SWAP1 SWAP3 MSTORE PUSH1 0x60 DUP5 ADD MSTORE PUSH1 0x80 DUP4 ADD MSTORE PUSH1 0xA0 DUP3 ADD MSTORE PUSH1 0xC0 ADD PUSH1 0x40 MLOAD DUP1 SWAP2 SUB SWAP1 LOG3 POP POP POP PUSH2 0x7CB PUSH1 0x1 PUSH32 0x9B779B17422D0DF92223018B32B4D1FA46E071723D6817E2486D003BECC55F00 SSTORE JUMP JUMPDEST POP POP POP JUMP JUMPDEST PUSH2 0x7D8 PUSH2 0x90D JUMP JUMPDEST PUSH2 0x7CB DUP4 DUP4 DUP4 PUSH2 0xA24 JUMP JUMPDEST PUSH2 0x7EB PUSH2 0x90D JUMP JUMPDEST PUSH2 0x295 PUSH1 0x0 PUSH2 0xB20 JUMP JUMPDEST PUSH2 0x7FD PUSH2 0x90D JUMP JUMPDEST PUSH2 0x295 PUSH2 0xB70 JUMP JUMPDEST PUSH2 0x80D PUSH2 0x90D JUMP JUMPDEST PUSH1 0x1 PUSH1 0x1 PUSH1 0xA0 SHL SUB DUP3 AND PUSH2 0x857 JUMPI PUSH1 0x40 MLOAD PUSH3 0x461BCD PUSH1 0xE5 SHL DUP2 MSTORE PUSH1 0x20 PUSH1 0x4 DUP3 ADD MSTORE PUSH1 0x11 PUSH1 0x24 DUP3 ADD MSTORE PUSH17 0x48423A207265676973747279207A65726F PUSH1 0x78 SHL PUSH1 0x44 DUP3 ADD MSTORE PUSH1 0x64 ADD PUSH2 0x312 JUMP JUMPDEST PUSH1 0x1 PUSH1 0x1 PUSH1 0xA0 SHL SUB DUP2 AND PUSH2 0x8A1 JUMPI PUSH1 0x40 MLOAD PUSH3 0x461BCD PUSH1 0xE5 SHL DUP2 MSTORE PUSH1 0x20 PUSH1 0x4 DUP3 ADD MSTORE PUSH1 0x11 PUSH1 0x24 DUP3 ADD MSTORE PUSH17 0x48423A2073706C6974746572207A65726F PUSH1 0x78 SHL PUSH1 0x44 DUP3 ADD MSTORE PUSH1 0x64 ADD PUSH2 0x312 JUMP JUMPDEST PUSH1 0x1 DUP1 SLOAD PUSH1 0x1 PUSH1 0x1 PUSH1 0xA0 SHL SUB SWAP4 DUP5 AND PUSH1 0x1 PUSH1 0x1 PUSH1 0xA0 SHL SUB NOT SWAP2 DUP3 AND OR SWAP1 SWAP2 SSTORE PUSH1 0x2 DUP1 SLOAD SWAP3 SWAP1 SWAP4 AND SWAP2 AND OR SWAP1 SSTORE JUMP JUMPDEST PUSH2 0x8D7 PUSH2 0x90D JUMP JUMPDEST PUSH1 0x1 PUSH1 0x1 PUSH1 0xA0 SHL SUB DUP2 AND PUSH2 0x901 JUMPI PUSH1 0x40 MLOAD PUSH4 0x1E4FBDF7 PUSH1 0xE0 SHL DUP2 MSTORE PUSH1 0x0 PUSH1 0x4 DUP3 ADD MSTORE PUSH1 0x24 ADD PUSH2 0x312 JUMP JUMPDEST PUSH2 0x90A DUP2 PUSH2 0xB20 JUMP JUMPDEST POP JUMP JUMPDEST PUSH1 0x0 SLOAD PUSH1 0x1 PUSH1 0x1 PUSH1 0xA0 SHL SUB AND CALLER EQ PUSH2 0x295 JUMPI PUSH1 0x40 MLOAD PUSH4 0x118CDAA7 PUSH1 0xE0 SHL DUP2 MSTORE CALLER PUSH1 0x4 DUP3 ADD MSTORE PUSH1 0x24 ADD PUSH2 0x312 JUMP JUMPDEST PUSH2 0x942 PUSH2 0xBB3 JUMP JUMPDEST PUSH1 0x0 DUP1 SLOAD PUSH1 0xFF PUSH1 0xA0 SHL NOT AND SWAP1 SSTORE PUSH32 0x5DB9EE0A495BF2E6FF9C91A7834C1BA4FDD244A5E8AA4E537BD38AEAE4B073AA CALLER JUMPDEST PUSH1 0x40 MLOAD PUSH1 0x1 PUSH1 0x1 PUSH1 0xA0 SHL SUB SWAP1 SWAP2 AND DUP2 MSTORE PUSH1 0x20 ADD PUSH1 0x40 MLOAD DUP1 SWAP2 SUB SWAP1 LOG1 JUMP JUMPDEST PUSH2 0x997 PUSH2 0xBDD JUMP JUMPDEST PUSH1 0x2 PUSH32 0x9B779B17422D0DF92223018B32B4D1FA46E071723D6817E2486D003BECC55F00 SSTORE JUMP JUMPDEST PUSH1 0x0 SLOAD PUSH1 0x1 PUSH1 0xA0 SHL SWAP1 DIV PUSH1 0xFF AND ISZERO PUSH2 0x295 JUMPI PUSH1 0x40 MLOAD PUSH4 0xD93C0665 PUSH1 0xE0 SHL DUP2 MSTORE PUSH1 0x4 ADD PUSH1 0x40 MLOAD DUP1 SWAP2 SUB SWAP1 REVERT JUMPDEST PUSH2 0x9F6 DUP5 DUP5 DUP5 DUP5 PUSH1 0x1 PUSH2 0xC1F JUMP JUMPDEST PUSH2 0xA1E JUMPI PUSH1 0x40 MLOAD PUSH4 0x5274AFE7 PUSH1 0xE0 SHL DUP2 MSTORE PUSH1 0x1 PUSH1 0x1 PUSH1 0xA0 SHL SUB DUP6 AND PUSH1 0x4 DUP3 ADD MSTORE PUSH1 0x24 ADD PUSH2 0x312 JUMP JUMPDEST POP POP POP POP JUMP JUMPDEST PUSH1 0x0 DUP4 GT PUSH2 0xA67 JUMPI PUSH1 0x40 MLOAD PUSH3 0x461BCD PUSH1 0xE5 SHL DUP2 MSTORE PUSH1 0x20 PUSH1 0x4 DUP3 ADD MSTORE PUSH1 0x10 PUSH1 0x24 DUP3 ADD MSTORE PUSH16 0x48423A207061636B616765207A65726F PUSH1 0x80 SHL PUSH1 0x44 DUP3 ADD MSTORE PUSH1 0x64 ADD PUSH2 0x312 JUMP JUMPDEST PUSH1 0x0 DUP3 GT PUSH2 0xAA8 JUMPI PUSH1 0x40 MLOAD PUSH3 0x461BCD PUSH1 0xE5 SHL DUP2 MSTORE PUSH1 0x20 PUSH1 0x4 DUP3 ADD MSTORE PUSH1 0xE PUSH1 0x24 DUP3 ADD MSTORE PUSH14 0x48423A207072696365207A65726F PUSH1 0x90 SHL PUSH1 0x44 DUP3 ADD MSTORE PUSH1 0x64 ADD PUSH2 0x312 JUMP JUMPDEST PUSH1 0x40 DUP1 MLOAD DUP1 DUP3 ADD DUP3 MSTORE DUP4 DUP2 MSTORE DUP3 ISZERO ISZERO PUSH1 0x20 DUP1 DUP4 ADD DUP3 DUP2 MSTORE PUSH1 0x0 DUP9 DUP2 MSTORE PUSH1 0x3 DUP4 MSTORE DUP6 SWAP1 KECCAK256 SWAP4 MLOAD DUP5 SSTORE MLOAD PUSH1 0x1 SWAP1 SWAP4 ADD DUP1 SLOAD PUSH1 0xFF NOT AND SWAP4 ISZERO ISZERO SWAP4 SWAP1 SWAP4 OR SWAP1 SWAP3 SSTORE DUP3 MLOAD DUP6 DUP2 MSTORE SWAP2 DUP3 ADD MSTORE DUP5 SWAP2 PUSH32 0xBCF71C11D7EEBE400B8D795C951DE0289247C17AF6A78342577367BCB4CDA9C8 SWAP2 ADD PUSH1 0x40 MLOAD DUP1 SWAP2 SUB SWAP1 LOG2 POP POP POP JUMP JUMPDEST PUSH1 0x0 DUP1 SLOAD PUSH1 0x1 PUSH1 0x1 PUSH1 0xA0 SHL SUB DUP4 DUP2 AND PUSH1 0x1 PUSH1 0x1 PUSH1 0xA0 SHL SUB NOT DUP4 AND DUP2 OR DUP5 SSTORE PUSH1 0x40 MLOAD SWAP2 SWAP1 SWAP3 AND SWAP3 DUP4 SWAP2 PUSH32 0x8BE0079C531659141344CD1FD0A4F28419497F9722A3DAAFE3B4186F6B6457E0 SWAP2 SWAP1 LOG3 POP POP JUMP JUMPDEST PUSH2 0xB78 PUSH2 0x9BD JUMP JUMPDEST PUSH1 0x0 DUP1 SLOAD PUSH1 0xFF PUSH1 0xA0 SHL NOT AND PUSH1 0x1 PUSH1 0xA0 SHL OR SWAP1 SSTORE PUSH32 0x62E78CEA01BEE320CD4E420270B5EA74000D11B0C9F74754EBDBFC544B05A258 PUSH2 0x972 CALLER SWAP1 JUMP JUMPDEST PUSH1 0x0 SLOAD PUSH1 0x1 PUSH1 0xA0 SHL SWAP1 DIV PUSH1 0xFF AND PUSH2 0x295 JUMPI PUSH1 0x40 MLOAD PUSH4 0x8DFC202B PUSH1 0xE0 SHL DUP2 MSTORE PUSH1 0x4 ADD PUSH1 0x40 MLOAD DUP1 SWAP2 SUB SWAP1 REVERT JUMPDEST PUSH32 0x9B779B17422D0DF92223018B32B4D1FA46E071723D6817E2486D003BECC55F00 SLOAD PUSH1 0x2 SUB PUSH2 0x295 JUMPI PUSH1 0x40 MLOAD PUSH4 0x3EE5AEB5 PUSH1 0xE0 SHL DUP2 MSTORE PUSH1 0x4 ADD PUSH1 0x40 MLOAD DUP1 SWAP2 SUB SWAP1 REVERT JUMPDEST PUSH1 0x40 MLOAD PUSH4 0x23B872DD PUSH1 0xE0 SHL PUSH1 0x0 DUP2 DUP2 MSTORE PUSH1 0x1 PUSH1 0x1 PUSH1 0xA0 SHL SUB DUP8 DUP2 AND PUSH1 0x4 MSTORE DUP7 AND PUSH1 0x24 MSTORE PUSH1 0x44 DUP6 SWAP1 MSTORE SWAP2 PUSH1 0x20 DUP4 PUSH1 0x64 DUP2 DUP1 DUP13 GAS CALL SWAP3 POP PUSH1 0x1 PUSH1 0x0 MLOAD EQ DUP4 AND PUSH2 0xC7F JUMPI DUP4 DUP4 ISZERO AND ISZERO PUSH2 0xC72 JUMPI RETURNDATASIZE PUSH1 0x0 DUP3 RETURNDATACOPY RETURNDATASIZE DUP2 REVERT JUMPDEST PUSH1 0x0 DUP9 EXTCODESIZE GT RETURNDATASIZE ISZERO AND DUP4 AND SWAP3 POP JUMPDEST PUSH1 0x40 MSTORE POP PUSH1 0x0 PUSH1 0x60 MSTORE SWAP6 SWAP5 POP POP POP POP POP JUMP JUMPDEST PUSH1 0x1 PUSH1 0x1 PUSH1 0xA0 SHL SUB DUP2 AND DUP2 EQ PUSH2 0x90A JUMPI PUSH1 0x0 DUP1 REVERT JUMPDEST PUSH1 0x0 PUSH1 0x20 DUP3 DUP5 SUB SLT ISZERO PUSH2 0xCB8 JUMPI PUSH1 0x0 DUP1 REVERT JUMPDEST DUP2 CALLDATALOAD PUSH2 0xCC3 DUP2 PUSH2 0xC91 JUMP JUMPDEST SWAP4 SWAP3 POP POP POP JUMP JUMPDEST PUSH1 0x0 DUP1 PUSH1 0x0 PUSH1 0x60 DUP5 DUP7 SUB SLT ISZERO PUSH2 0xCDF JUMPI PUSH1 0x0 DUP1 REVERT JUMPDEST DUP4 CALLDATALOAD SWAP3 POP PUSH1 0x20 DUP5 ADD CALLDATALOAD PUSH2 0xCF1 DUP2 PUSH2 0xC91 JUMP JUMPDEST SWAP3 SWAP6 SWAP3 SWAP5 POP POP POP PUSH1 0x40 SWAP2 SWAP1 SWAP2 ADD CALLDATALOAD SWAP1 JUMP JUMPDEST PUSH1 0x0 DUP1 PUSH1 0x0 PUSH1 0x60 DUP5 DUP7 SUB SLT ISZERO PUSH2 0xD17 JUMPI PUSH1 0x0 DUP1 REVERT JUMPDEST DUP4 CALLDATALOAD SWAP3 POP PUSH1 0x20 DUP5 ADD CALLDATALOAD SWAP2 POP PUSH1 0x40 DUP5 ADD CALLDATALOAD DUP1 ISZERO ISZERO DUP2 EQ PUSH2 0xD35 JUMPI PUSH1 0x0 DUP1 REVERT JUMPDEST DUP1 SWAP2 POP POP SWAP3 POP SWAP3 POP SWAP3 JUMP JUMPDEST PUSH1 0x0 PUSH1 0x20 DUP3 DUP5 SUB SLT ISZERO PUSH2 0xD52 JUMPI PUSH1 0x0 DUP1 REVERT JUMPDEST POP CALLDATALOAD SWAP2 SWAP1 POP JUMP JUMPDEST PUSH1 0x0 DUP1 PUSH1 0x40 DUP4 DUP6 SUB SLT ISZERO PUSH2 0xD6C JUMPI PUSH1 0x0 DUP1 REVERT JUMPDEST DUP3 CALLDATALOAD PUSH2 0xD77 DUP2 PUSH2 0xC91 JUMP JUMPDEST SWAP2 POP PUSH1 0x20 DUP4 ADD CALLDATALOAD PUSH2 0xD87 DUP2 PUSH2 0xC91 JUMP JUMPDEST DUP1 SWAP2 POP POP SWAP3 POP SWAP3 SWAP1 POP JUMP JUMPDEST PUSH1 0x0 PUSH1 0x20 DUP3 DUP5 SUB SLT ISZERO PUSH2 0xDA4 JUMPI PUSH1 0x0 DUP1 REVERT JUMPDEST DUP2 MLOAD PUSH2 0xCC3 DUP2 PUSH2 0xC91 JUMP JUMPDEST DUP1 DUP3 MUL DUP2 ISZERO DUP3 DUP3 DIV DUP5 EQ OR PUSH2 0xDD4 JUMPI PUSH4 0x4E487B71 PUSH1 0xE0 SHL PUSH1 0x0 MSTORE PUSH1 0x11 PUSH1 0x4 MSTORE PUSH1 0x24 PUSH1 0x0 REVERT JUMPDEST SWAP3 SWAP2 POP POP JUMP JUMPDEST PUSH1 0x0 DUP3 PUSH2 0xDF7 JUMPI PUSH4 0x4E487B71 PUSH1 0xE0 SHL PUSH1 0x0 MSTORE PUSH1 0x12 PUSH1 0x4 MSTORE PUSH1 0x24 PUSH1 0x0 REVERT JUMPDEST POP DIV SWAP1 JUMP INVALID LOG2 PUSH5 0x6970667358 0x22 SLT KECCAK256 0xE5 NOT INVALID 0x4D PUSH19 0x706D37506BF95C06CB05DA9942F2F95348C7E5 RETURNDATACOPY ADDMOD LT PUSH28 0x90C6491F64736F6C6343000818003300000000000000000000000000 "},"methodIdentifiers":{"buyPackage(uint256,address,bytes32)":"54b8cf6d","currentPackageId(address)":"5b5d06cc","currentPackagePrice(address)":"3c942a08","owner()":"8da5cb5b","packages(uint256)":"c216212a","pause()":"8456cb59","paused()":"5c975abb","paymentToken()":"3013ce29","referralRegistry()":"4e627e62","renounceOwnership()":"715018a6","setDependencies(address,address)":"e87c28a7","setPackage(uint256,uint256,bool)":"57aed207","transferOwnership(address)":"f2fde38b","treasurySplitter()":"8b1b3866","unpause()":"3f4ba83a"}}}}}