{
  "_format": "hh-sol-artifact-1",
  "contractName": "HBTreasurySplitter",
  "sourceName": "contracts/HBTreasurySplitter.sol",
  "abi": [
    {
      "inputs": [
        {
          "internalType": "contract IERC20",
          "name": "token",
          "type": "address"
        },
        {
          "internalType": "address",
          "name": "initialOwner",
          "type": "address"
        }
      ],
      "stateMutability": "nonpayable",
      "type": "constructor"
    },
    {
      "inputs": [],
      "name": "EnforcedPause",
      "type": "error"
    },
    {
      "inputs": [],
      "name": "ExpectedPause",
      "type": "error"
    },
    {
      "inputs": [
        {
          "internalType": "address",
          "name": "owner",
          "type": "address"
        }
      ],
      "name": "OwnableInvalidOwner",
      "type": "error"
    },
    {
      "inputs": [
        {
          "internalType": "address",
          "name": "account",
          "type": "address"
        }
      ],
      "name": "OwnableUnauthorizedAccount",
      "type": "error"
    },
    {
      "inputs": [],
      "name": "ReentrancyGuardReentrantCall",
      "type": "error"
    },
    {
      "inputs": [
        {
          "internalType": "address",
          "name": "token",
          "type": "address"
        }
      ],
      "name": "SafeERC20FailedOperation",
      "type": "error"
    },
    {
      "anonymous": false,
      "inputs": [
        {
          "indexed": true,
          "internalType": "bytes32",
          "name": "purchaseId",
          "type": "bytes32"
        },
        {
          "indexed": true,
          "internalType": "address",
          "name": "buyer",
          "type": "address"
        },
        {
          "indexed": false,
          "internalType": "uint256",
          "name": "amount",
          "type": "uint256"
        },
        {
          "indexed": false,
          "internalType": "uint256",
          "name": "directAmount",
          "type": "uint256"
        },
        {
          "indexed": false,
          "internalType": "uint256",
          "name": "levelAmount",
          "type": "uint256"
        },
        {
          "indexed": false,
          "internalType": "uint256",
          "name": "treasuryHoldAmount",
          "type": "uint256"
        }
      ],
      "name": "DistributionCreated",
      "type": "event"
    },
    {
      "anonymous": false,
      "inputs": [
        {
          "indexed": true,
          "internalType": "address",
          "name": "previousOwner",
          "type": "address"
        },
        {
          "indexed": true,
          "internalType": "address",
          "name": "newOwner",
          "type": "address"
        }
      ],
      "name": "OwnershipTransferStarted",
      "type": "event"
    },
    {
      "anonymous": false,
      "inputs": [
        {
          "indexed": true,
          "internalType": "address",
          "name": "previousOwner",
          "type": "address"
        },
        {
          "indexed": true,
          "internalType": "address",
          "name": "newOwner",
          "type": "address"
        }
      ],
      "name": "OwnershipTransferred",
      "type": "event"
    },
    {
      "anonymous": false,
      "inputs": [
        {
          "indexed": false,
          "internalType": "address",
          "name": "account",
          "type": "address"
        }
      ],
      "name": "Paused",
      "type": "event"
    },
    {
      "anonymous": false,
      "inputs": [
        {
          "indexed": true,
          "internalType": "bytes32",
          "name": "key",
          "type": "bytes32"
        },
        {
          "indexed": true,
          "internalType": "address",
          "name": "wallet",
          "type": "address"
        }
      ],
      "name": "TreasuryUpdated",
      "type": "event"
    },
    {
      "anonymous": false,
      "inputs": [
        {
          "indexed": false,
          "internalType": "address",
          "name": "account",
          "type": "address"
        }
      ],
      "name": "Unpaused",
      "type": "event"
    },
    {
      "inputs": [],
      "name": "acceptOwnership",
      "outputs": [],
      "stateMutability": "nonpayable",
      "type": "function"
    },
    {
      "inputs": [],
      "name": "companyReserveTreasury",
      "outputs": [
        {
          "internalType": "address",
          "name": "",
          "type": "address"
        }
      ],
      "stateMutability": "view",
      "type": "function"
    },
    {
      "inputs": [],
      "name": "directIncomeTreasury",
      "outputs": [
        {
          "internalType": "address",
          "name": "",
          "type": "address"
        }
      ],
      "stateMutability": "view",
      "type": "function"
    },
    {
      "inputs": [],
      "name": "levelIncomeTreasury",
      "outputs": [
        {
          "internalType": "address",
          "name": "",
          "type": "address"
        }
      ],
      "stateMutability": "view",
      "type": "function"
    },
    {
      "inputs": [],
      "name": "owner",
      "outputs": [
        {
          "internalType": "address",
          "name": "",
          "type": "address"
        }
      ],
      "stateMutability": "view",
      "type": "function"
    },
    {
      "inputs": [],
      "name": "pause",
      "outputs": [],
      "stateMutability": "nonpayable",
      "type": "function"
    },
    {
      "inputs": [],
      "name": "paused",
      "outputs": [
        {
          "internalType": "bool",
          "name": "",
          "type": "bool"
        }
      ],
      "stateMutability": "view",
      "type": "function"
    },
    {
      "inputs": [],
      "name": "paymentToken",
      "outputs": [
        {
          "internalType": "contract IERC20",
          "name": "",
          "type": "address"
        }
      ],
      "stateMutability": "view",
      "type": "function"
    },
    {
      "inputs": [],
      "name": "pendingOwner",
      "outputs": [
        {
          "internalType": "address",
          "name": "",
          "type": "address"
        }
      ],
      "stateMutability": "view",
      "type": "function"
    },
    {
      "inputs": [],
      "name": "renounceOwnership",
      "outputs": [],
      "stateMutability": "nonpayable",
      "type": "function"
    },
    {
      "inputs": [
        {
          "internalType": "address",
          "name": "directWallet",
          "type": "address"
        },
        {
          "internalType": "address",
          "name": "levelWallet",
          "type": "address"
        },
        {
          "internalType": "address",
          "name": "companyWallet",
          "type": "address"
        }
      ],
      "name": "setTreasuries",
      "outputs": [],
      "stateMutability": "nonpayable",
      "type": "function"
    },
    {
      "inputs": [
        {
          "internalType": "bytes32",
          "name": "purchaseId",
          "type": "bytes32"
        },
        {
          "internalType": "address",
          "name": "buyer",
          "type": "address"
        },
        {
          "internalType": "uint256",
          "name": "amount",
          "type": "uint256"
        }
      ],
      "name": "split",
      "outputs": [],
      "stateMutability": "nonpayable",
      "type": "function"
    },
    {
      "inputs": [
        {
          "internalType": "address",
          "name": "newOwner",
          "type": "address"
        }
      ],
      "name": "transferOwnership",
      "outputs": [],
      "stateMutability": "nonpayable",
      "type": "function"
    },
    {
      "inputs": [],
      "name": "unpause",
      "outputs": [],
      "stateMutability": "nonpayable",
      "type": "function"
    }
  ],
  "bytecode": "0x60a060405234801561001057600080fd5b50604051610bef380380610bef83398101604081905261002f91610167565b806001600160a01b03811661005f57604051631e4fbdf760e01b8152600060048201526024015b60405180910390fd5b610068816100e6565b5060017f9b779b17422d0df92223018b32b4d1fa46e071723d6817e2486d003becc55f00556001600160a01b0382166100d45760405162461bcd60e51b815260206004820152600e60248201526d48423a20746f6b656e207a65726f60901b6044820152606401610056565b506001600160a01b03166080526101a1565b600180546001600160a01b03191690556100ff81610102565b50565b600080546001600160a01b038381166001600160a01b0319831681178455604051919092169283917f8be0079c531659141344cd1fd0a4f28419497f9722a3daafe3b4186f6b6457e09190a35050565b6001600160a01b03811681146100ff57600080fd5b6000806040838503121561017a57600080fd5b825161018581610152565b602084015190925061019681610152565b809150509250929050565b608051610a1e6101d16000396000818161013901528181610287015281816102c101526102fb0152610a1e6000f3fe608060405234801561001057600080fd5b50600436106100ea5760003560e01c806383ee2b7c1161008c578063af46b76211610066578063af46b762146101bc578063e30c3978146101cf578063e91621fb146101e0578063f2fde38b146101f357600080fd5b806383ee2b7c146101905780638456cb59146101a35780638da5cb5b146101ab57600080fd5b80633f4ba83a116100c85780633f4ba83a1461015b5780635c975abb14610163578063715018a61461018057806379ba50971461018857600080fd5b80631f226590146100ef5780632ffa3ce11461011f5780633013ce2914610134575b600080fd5b600454610102906001600160a01b031681565b6040516001600160a01b0390911681526020015b60405180910390f35b61013261012d3660046108e6565b610206565b005b6101027f000000000000000000000000000000000000000000000000000000000000000081565b6101326103aa565b600154600160a01b900460ff166040519015158152602001610116565b6101326103bc565b6101326103ce565b600254610102906001600160a01b031681565b610132610417565b6000546001600160a01b0316610102565b6101326101ca36600461091b565b610427565b6001546001600160a01b0316610102565b600354610102906001600160a01b031681565b61013261020136600461095e565b610542565b61020e6105b3565b6102166105e0565b61021e61060e565b610226610639565b60006064610235836014610996565b61023f91906109b3565b90506000606461025084601e610996565b61025a91906109b3565b905060008161026984866109d5565b61027391906109d5565b6002549091506102b0906001600160a01b037f00000000000000000000000000000000000000000000000000000000000000008116911685610678565b6003546102ea906001600160a01b037f00000000000000000000000000000000000000000000000000000000000000008116911684610678565b600454610324906001600160a01b037f00000000000000000000000000000000000000000000000000000000000000008116911683610678565b6040805185815260208101859052908101839052606081018290526001600160a01b0386169087907fcd2209be608aa4198957f61d2bd6fcfe06f69be35179df3a5a3a0b9d7c73a3ce9060800160405180910390a35050506103a560017f9b779b17422d0df92223018b32b4d1fa46e071723d6817e2486d003becc55f0055565b505050565b6103b26105b3565b6103ba6106ad565b565b6103c46105b3565b6103ba6000610702565b60015433906001600160a01b0316811461040b5760405163118cdaa760e01b81526001600160a01b03821660048201526024015b60405180910390fd5b61041481610702565b50565b61041f6105b3565b6103ba61071b565b61042f6105b3565b6104388361075e565b6104418261075e565b61044a8161075e565b600280546001600160a01b038086166001600160a01b0319928316811790935560038054868316908416179055600480549185169190921617905560405165191a5c9958dd60d21b907f6410ac85c52ba3fd27b10ab68388b073fb2da3e49390e48506118349eba4a83d90600090a36040516001600160a01b03831690641b195d995b60da1b907f6410ac85c52ba3fd27b10ab68388b073fb2da3e49390e48506118349eba4a83d90600090a36040516001600160a01b038216906c1d1c99585cdd5c9e57da1bdb19609a1b907f6410ac85c52ba3fd27b10ab68388b073fb2da3e49390e48506118349eba4a83d90600090a3505050565b61054a6105b3565b600180546001600160a01b0383166001600160a01b0319909116811790915561057b6000546001600160a01b031690565b6001600160a01b03167f38d16b8cac22d99fc7c124b9cd0de2d3fa1faef420bfe791d8c362d765e2270060405160405180910390a350565b6000546001600160a01b031633146103ba5760405163118cdaa760e01b8152336004820152602401610402565b6105e86107a8565b60027f9b779b17422d0df92223018b32b4d1fa46e071723d6817e2486d003becc55f0055565b600154600160a01b900460ff16156103ba5760405163d93c066560e01b815260040160405180910390fd5b60025461064e906001600160a01b031661075e565b600354610663906001600160a01b031661075e565b6004546103ba906001600160a01b031661075e565b61068583838360016107ea565b6103a557604051635274afe760e01b81526001600160a01b0384166004820152602401610402565b6106b5610850565b6001805460ff60a01b191690557f5db9ee0a495bf2e6ff9c91a7834c1ba4fdd244a5e8aa4e537bd38aeae4b073aa335b6040516001600160a01b03909116815260200160405180910390a1565b600180546001600160a01b03191690556104148161087a565b61072361060e565b6001805460ff60a01b1916600160a01b1790557f62e78cea01bee320cd4e420270b5ea74000d11b0c9f74754ebdbfc544b05a2586106e53390565b6001600160a01b0381166104145760405162461bcd60e51b815260206004820152601160248201527048423a207472656173757279207a65726f60781b6044820152606401610402565b7f9b779b17422d0df92223018b32b4d1fa46e071723d6817e2486d003becc55f00546002036103ba57604051633ee5aeb560e01b815260040160405180910390fd5b60405163a9059cbb60e01b60008181526001600160a01b038616600452602485905291602083604481808b5af192506001600051148316610844578383151615610837573d6000823e3d81fd5b6000873b113d1516831692505b60405250949350505050565b600154600160a01b900460ff166103ba57604051638dfc202b60e01b815260040160405180910390fd5b600080546001600160a01b038381166001600160a01b0319831681178455604051919092169283917f8be0079c531659141344cd1fd0a4f28419497f9722a3daafe3b4186f6b6457e09190a35050565b80356001600160a01b03811681146108e157600080fd5b919050565b6000806000606084860312156108fb57600080fd5b8335925061090b602085016108ca565b9150604084013590509250925092565b60008060006060848603121561093057600080fd5b610939846108ca565b9250610947602085016108ca565b9150610955604085016108ca565b90509250925092565b60006020828403121561097057600080fd5b610979826108ca565b9392505050565b634e487b7160e01b600052601160045260246000fd5b80820281158282048414176109ad576109ad610980565b92915050565b6000826109d057634e487b7160e01b600052601260045260246000fd5b500490565b818103818111156109ad576109ad61098056fea2646970667358221220ca10e6622cb78531d918f5f9b844eb8dc627762e6c4a4ba13552f9799ac8401964736f6c63430008180033",
  "linkReferences": {},
  "deployedLinkReferences": {}
}