{
  "_format": "hh-sol-artifact-1",
  "contractName": "HBReferralRegistry",
  "sourceName": "contracts/HBReferralRegistry.sol",
  "abi": [
    {
      "inputs": [
        {
          "internalType": "address",
          "name": "initialOwner",
          "type": "address"
        }
      ],
      "stateMutability": "nonpayable",
      "type": "constructor"
    },
    {
      "inputs": [
        {
          "internalType": "address",
          "name": "owner",
          "type": "address"
        }
      ],
      "name": "OwnableInvalidOwner",
      "type": "error"
    },
    {
      "inputs": [
        {
          "internalType": "address",
          "name": "account",
          "type": "address"
        }
      ],
      "name": "OwnableUnauthorizedAccount",
      "type": "error"
    },
    {
      "anonymous": false,
      "inputs": [
        {
          "indexed": true,
          "internalType": "address",
          "name": "previousOwner",
          "type": "address"
        },
        {
          "indexed": true,
          "internalType": "address",
          "name": "newOwner",
          "type": "address"
        }
      ],
      "name": "OwnershipTransferred",
      "type": "event"
    },
    {
      "anonymous": false,
      "inputs": [
        {
          "indexed": true,
          "internalType": "address",
          "name": "user",
          "type": "address"
        },
        {
          "indexed": true,
          "internalType": "bytes32",
          "name": "referralCode",
          "type": "bytes32"
        }
      ],
      "name": "ReferralCodeRegistered",
      "type": "event"
    },
    {
      "anonymous": false,
      "inputs": [
        {
          "indexed": true,
          "internalType": "address",
          "name": "user",
          "type": "address"
        },
        {
          "indexed": true,
          "internalType": "address",
          "name": "sponsor",
          "type": "address"
        },
        {
          "indexed": true,
          "internalType": "bytes32",
          "name": "referralCode",
          "type": "bytes32"
        }
      ],
      "name": "SponsorLinked",
      "type": "event"
    },
    {
      "inputs": [
        {
          "internalType": "address",
          "name": "user",
          "type": "address"
        },
        {
          "internalType": "address",
          "name": "sponsor",
          "type": "address"
        },
        {
          "internalType": "bytes32",
          "name": "referralCode",
          "type": "bytes32"
        }
      ],
      "name": "linkSponsor",
      "outputs": [],
      "stateMutability": "nonpayable",
      "type": "function"
    },
    {
      "inputs": [],
      "name": "owner",
      "outputs": [
        {
          "internalType": "address",
          "name": "",
          "type": "address"
        }
      ],
      "stateMutability": "view",
      "type": "function"
    },
    {
      "inputs": [
        {
          "internalType": "address",
          "name": "",
          "type": "address"
        }
      ],
      "name": "referralCodeOf",
      "outputs": [
        {
          "internalType": "bytes32",
          "name": "",
          "type": "bytes32"
        }
      ],
      "stateMutability": "view",
      "type": "function"
    },
    {
      "inputs": [
        {
          "internalType": "bytes32",
          "name": "",
          "type": "bytes32"
        }
      ],
      "name": "referralCodeOwner",
      "outputs": [
        {
          "internalType": "address",
          "name": "",
          "type": "address"
        }
      ],
      "stateMutability": "view",
      "type": "function"
    },
    {
      "inputs": [
        {
          "internalType": "bytes32",
          "name": "referralCode",
          "type": "bytes32"
        }
      ],
      "name": "registerCode",
      "outputs": [],
      "stateMutability": "nonpayable",
      "type": "function"
    },
    {
      "inputs": [],
      "name": "renounceOwnership",
      "outputs": [],
      "stateMutability": "nonpayable",
      "type": "function"
    },
    {
      "inputs": [
        {
          "internalType": "address",
          "name": "",
          "type": "address"
        }
      ],
      "name": "sponsorOf",
      "outputs": [
        {
          "internalType": "address",
          "name": "",
          "type": "address"
        }
      ],
      "stateMutability": "view",
      "type": "function"
    },
    {
      "inputs": [
        {
          "internalType": "address",
          "name": "newOwner",
          "type": "address"
        }
      ],
      "name": "transferOwnership",
      "outputs": [],
      "stateMutability": "nonpayable",
      "type": "function"
    }
  ],
  "bytecode": "0x608060405234801561001057600080fd5b506040516106fa3803806106fa83398101604081905261002f916100be565b806001600160a01b03811661005e57604051631e4fbdf760e01b81526000600482015260240160405180910390fd5b6100678161006e565b50506100ee565b600080546001600160a01b038381166001600160a01b0319831681178455604051919092169283917f8be0079c531659141344cd1fd0a4f28419497f9722a3daafe3b4186f6b6457e09190a35050565b6000602082840312156100d057600080fd5b81516001600160a01b03811681146100e757600080fd5b9392505050565b6105fd806100fd6000396000f3fe608060405234801561001057600080fd5b50600436106100885760003560e01c80638da5cb5b1161005b5780638da5cb5b1461011e578063c4f343fd1461012f578063ce900f5714610158578063f2fde38b1461016b57600080fd5b806334e108a61461008d57806336def2c8146100d357806344af2edb146100e8578063715018a614610116575b600080fd5b6100b661009b366004610550565b6001602052600090815260409020546001600160a01b031681565b6040516001600160a01b0390911681526020015b60405180910390f35b6100e66100e1366004610572565b61017e565b005b6101086100f6366004610550565b60036020526000908152604090205481565b6040519081526020016100ca565b6100e66102c2565b6000546001600160a01b03166100b6565b6100b661013d366004610572565b6002602052600090815260409020546001600160a01b031681565b6100e661016636600461058b565b6102d6565b6100e6610179366004610550565b610479565b806101c15760405162461bcd60e51b815260206004820152600e60248201526d48423a20656d70747920636f646560901b60448201526064015b60405180910390fd5b6000818152600260205260409020546001600160a01b0316156102165760405162461bcd60e51b815260206004820152600d60248201526c12108e8818dbd919481d5cd959609a1b60448201526064016101b8565b33600090815260036020526040902054156102675760405162461bcd60e51b815260206004820152601160248201527048423a20757365722068617320636f646560781b60448201526064016101b8565b600081815260026020908152604080832080546001600160a01b0319163390811790915580845260039092528083208490555183927f2a805eee9f529910e307c2e6bb571997f184bde717e120b09d9a116365f2c41391a350565b6102ca6104b7565b6102d460006104e4565b565b6102de6104b7565b6001600160a01b0383166103245760405162461bcd60e51b815260206004820152600d60248201526c48423a2075736572207a65726f60981b60448201526064016101b8565b6001600160a01b03821661036d5760405162461bcd60e51b815260206004820152601060248201526f48423a2073706f6e736f72207a65726f60801b60448201526064016101b8565b816001600160a01b0316836001600160a01b0316036103c15760405162461bcd60e51b815260206004820152601060248201526f24211d1039b2b6331039b837b739b7b960811b60448201526064016101b8565b6001600160a01b03838116600090815260016020526040902054161561041e5760405162461bcd60e51b815260206004820152601260248201527112108e881cdc1bdb9cdbdc881b1bd8dad95960721b60448201526064016101b8565b6001600160a01b0383811660008181526001602052604080822080546001600160a01b031916948716948517905551849392917f50db5bae9e391b946ce57405afd82a03203aebc4af75e18b7285fb0c76b9d91f91a4505050565b6104816104b7565b6001600160a01b0381166104ab57604051631e4fbdf760e01b8152600060048201526024016101b8565b6104b4816104e4565b50565b6000546001600160a01b031633146102d45760405163118cdaa760e01b81523360048201526024016101b8565b600080546001600160a01b038381166001600160a01b0319831681178455604051919092169283917f8be0079c531659141344cd1fd0a4f28419497f9722a3daafe3b4186f6b6457e09190a35050565b80356001600160a01b038116811461054b57600080fd5b919050565b60006020828403121561056257600080fd5b61056b82610534565b9392505050565b60006020828403121561058457600080fd5b5035919050565b6000806000606084860312156105a057600080fd5b6105a984610534565b92506105b760208501610534565b915060408401359050925092509256fea2646970667358221220f443dedf2999813ad44ba0a0d4865f09f5c66a10dc9e48e7d35a7c57ef75316064736f6c63430008180033",
  "linkReferences": {},
  "deployedLinkReferences": {}
}