{
  "_format": "hh-sol-artifact-1",
  "contractName": "HalalBusinessPackageManager",
  "sourceName": "contracts/HalalBusinessPackageManager.sol",
  "abi": [
    {
      "inputs": [
        {
          "internalType": "contract IERC20",
          "name": "token",
          "type": "address"
        },
        {
          "internalType": "contract HBReferralRegistry",
          "name": "registry",
          "type": "address"
        },
        {
          "internalType": "contract HBTreasurySplitter",
          "name": "splitter",
          "type": "address"
        },
        {
          "internalType": "address",
          "name": "initialOwner",
          "type": "address"
        }
      ],
      "stateMutability": "nonpayable",
      "type": "constructor"
    },
    {
      "inputs": [],
      "name": "EnforcedPause",
      "type": "error"
    },
    {
      "inputs": [],
      "name": "ExpectedPause",
      "type": "error"
    },
    {
      "inputs": [
        {
          "internalType": "address",
          "name": "owner",
          "type": "address"
        }
      ],
      "name": "OwnableInvalidOwner",
      "type": "error"
    },
    {
      "inputs": [
        {
          "internalType": "address",
          "name": "account",
          "type": "address"
        }
      ],
      "name": "OwnableUnauthorizedAccount",
      "type": "error"
    },
    {
      "inputs": [],
      "name": "ReentrancyGuardReentrantCall",
      "type": "error"
    },
    {
      "inputs": [
        {
          "internalType": "address",
          "name": "token",
          "type": "address"
        }
      ],
      "name": "SafeERC20FailedOperation",
      "type": "error"
    },
    {
      "anonymous": false,
      "inputs": [
        {
          "indexed": true,
          "internalType": "bytes32",
          "name": "purchaseId",
          "type": "bytes32"
        },
        {
          "indexed": true,
          "internalType": "address",
          "name": "buyer",
          "type": "address"
        },
        {
          "indexed": false,
          "internalType": "uint256",
          "name": "packageId",
          "type": "uint256"
        },
        {
          "indexed": false,
          "internalType": "uint256",
          "name": "directAmount",
          "type": "uint256"
        },
        {
          "indexed": false,
          "internalType": "uint256",
          "name": "levelAmount",
          "type": "uint256"
        },
        {
          "indexed": false,
          "internalType": "uint256",
          "name": "treasuryHoldAmount",
          "type": "uint256"
        }
      ],
      "name": "DistributionCreated",
      "type": "event"
    },
    {
      "anonymous": false,
      "inputs": [
        {
          "indexed": true,
          "internalType": "address",
          "name": "previousOwner",
          "type": "address"
        },
        {
          "indexed": true,
          "internalType": "address",
          "name": "newOwner",
          "type": "address"
        }
      ],
      "name": "OwnershipTransferStarted",
      "type": "event"
    },
    {
      "anonymous": false,
      "inputs": [
        {
          "indexed": true,
          "internalType": "address",
          "name": "previousOwner",
          "type": "address"
        },
        {
          "indexed": true,
          "internalType": "address",
          "name": "newOwner",
          "type": "address"
        }
      ],
      "name": "OwnershipTransferred",
      "type": "event"
    },
    {
      "anonymous": false,
      "inputs": [
        {
          "indexed": true,
          "internalType": "uint256",
          "name": "packageId",
          "type": "uint256"
        },
        {
          "indexed": false,
          "internalType": "uint256",
          "name": "price",
          "type": "uint256"
        },
        {
          "indexed": false,
          "internalType": "bool",
          "name": "active",
          "type": "bool"
        }
      ],
      "name": "PackageConfigured",
      "type": "event"
    },
    {
      "anonymous": false,
      "inputs": [
        {
          "indexed": true,
          "internalType": "bytes32",
          "name": "purchaseId",
          "type": "bytes32"
        },
        {
          "indexed": true,
          "internalType": "address",
          "name": "buyer",
          "type": "address"
        },
        {
          "indexed": true,
          "internalType": "uint256",
          "name": "packageId",
          "type": "uint256"
        },
        {
          "indexed": false,
          "internalType": "uint256",
          "name": "price",
          "type": "uint256"
        },
        {
          "indexed": false,
          "internalType": "address",
          "name": "sponsor",
          "type": "address"
        },
        {
          "indexed": false,
          "internalType": "bytes32",
          "name": "referralCode",
          "type": "bytes32"
        }
      ],
      "name": "PackagePurchased",
      "type": "event"
    },
    {
      "anonymous": false,
      "inputs": [
        {
          "indexed": false,
          "internalType": "address",
          "name": "account",
          "type": "address"
        }
      ],
      "name": "Paused",
      "type": "event"
    },
    {
      "anonymous": false,
      "inputs": [
        {
          "indexed": true,
          "internalType": "address",
          "name": "buyer",
          "type": "address"
        },
        {
          "indexed": true,
          "internalType": "address",
          "name": "sponsor",
          "type": "address"
        },
        {
          "indexed": true,
          "internalType": "bytes32",
          "name": "referralCode",
          "type": "bytes32"
        }
      ],
      "name": "SponsorLinked",
      "type": "event"
    },
    {
      "anonymous": false,
      "inputs": [
        {
          "indexed": false,
          "internalType": "address",
          "name": "account",
          "type": "address"
        }
      ],
      "name": "Unpaused",
      "type": "event"
    },
    {
      "inputs": [],
      "name": "acceptOwnership",
      "outputs": [],
      "stateMutability": "nonpayable",
      "type": "function"
    },
    {
      "inputs": [],
      "name": "acceptTreasurySplitterOwnership",
      "outputs": [],
      "stateMutability": "nonpayable",
      "type": "function"
    },
    {
      "inputs": [
        {
          "internalType": "uint256",
          "name": "packageId",
          "type": "uint256"
        },
        {
          "internalType": "address",
          "name": "sponsorAddress",
          "type": "address"
        },
        {
          "internalType": "bytes32",
          "name": "referralCode",
          "type": "bytes32"
        }
      ],
      "name": "buyPackage",
      "outputs": [],
      "stateMutability": "nonpayable",
      "type": "function"
    },
    {
      "inputs": [
        {
          "internalType": "address",
          "name": "",
          "type": "address"
        }
      ],
      "name": "currentPackageId",
      "outputs": [
        {
          "internalType": "uint256",
          "name": "",
          "type": "uint256"
        }
      ],
      "stateMutability": "view",
      "type": "function"
    },
    {
      "inputs": [
        {
          "internalType": "address",
          "name": "",
          "type": "address"
        }
      ],
      "name": "currentPackagePrice",
      "outputs": [
        {
          "internalType": "uint256",
          "name": "",
          "type": "uint256"
        }
      ],
      "stateMutability": "view",
      "type": "function"
    },
    {
      "inputs": [],
      "name": "owner",
      "outputs": [
        {
          "internalType": "address",
          "name": "",
          "type": "address"
        }
      ],
      "stateMutability": "view",
      "type": "function"
    },
    {
      "inputs": [
        {
          "internalType": "uint256",
          "name": "",
          "type": "uint256"
        }
      ],
      "name": "packages",
      "outputs": [
        {
          "internalType": "uint256",
          "name": "price",
          "type": "uint256"
        },
        {
          "internalType": "bool",
          "name": "active",
          "type": "bool"
        }
      ],
      "stateMutability": "view",
      "type": "function"
    },
    {
      "inputs": [],
      "name": "pause",
      "outputs": [],
      "stateMutability": "nonpayable",
      "type": "function"
    },
    {
      "inputs": [],
      "name": "pauseTreasurySplitter",
      "outputs": [],
      "stateMutability": "nonpayable",
      "type": "function"
    },
    {
      "inputs": [],
      "name": "paused",
      "outputs": [
        {
          "internalType": "bool",
          "name": "",
          "type": "bool"
        }
      ],
      "stateMutability": "view",
      "type": "function"
    },
    {
      "inputs": [],
      "name": "paymentToken",
      "outputs": [
        {
          "internalType": "contract IERC20",
          "name": "",
          "type": "address"
        }
      ],
      "stateMutability": "view",
      "type": "function"
    },
    {
      "inputs": [],
      "name": "pendingOwner",
      "outputs": [
        {
          "internalType": "address",
          "name": "",
          "type": "address"
        }
      ],
      "stateMutability": "view",
      "type": "function"
    },
    {
      "inputs": [],
      "name": "referralRegistry",
      "outputs": [
        {
          "internalType": "contract HBReferralRegistry",
          "name": "",
          "type": "address"
        }
      ],
      "stateMutability": "view",
      "type": "function"
    },
    {
      "inputs": [],
      "name": "renounceOwnership",
      "outputs": [],
      "stateMutability": "nonpayable",
      "type": "function"
    },
    {
      "inputs": [
        {
          "internalType": "contract HBReferralRegistry",
          "name": "registry",
          "type": "address"
        },
        {
          "internalType": "contract HBTreasurySplitter",
          "name": "splitter",
          "type": "address"
        }
      ],
      "name": "setDependencies",
      "outputs": [],
      "stateMutability": "nonpayable",
      "type": "function"
    },
    {
      "inputs": [
        {
          "internalType": "uint256",
          "name": "packageId",
          "type": "uint256"
        },
        {
          "internalType": "uint256",
          "name": "price",
          "type": "uint256"
        },
        {
          "internalType": "bool",
          "name": "active",
          "type": "bool"
        }
      ],
      "name": "setPackage",
      "outputs": [],
      "stateMutability": "nonpayable",
      "type": "function"
    },
    {
      "inputs": [
        {
          "internalType": "address",
          "name": "newOwner",
          "type": "address"
        }
      ],
      "name": "transferOwnership",
      "outputs": [],
      "stateMutability": "nonpayable",
      "type": "function"
    },
    {
      "inputs": [],
      "name": "treasurySplitter",
      "outputs": [
        {
          "internalType": "contract HBTreasurySplitter",
          "name": "",
          "type": "address"
        }
      ],
      "stateMutability": "view",
      "type": "function"
    },
    {
      "inputs": [],
      "name": "unpause",
      "outputs": [],
      "stateMutability": "nonpayable",
      "type": "function"
    },
    {
      "inputs": [],
      "name": "unpauseTreasurySplitter",
      "outputs": [],
      "stateMutability": "nonpayable",
      "type": "function"
    }
  ],
  "bytecode": "0x60a06040523480156200001157600080fd5b50604051620014a3380380620014a38339810160408190526200003491620003c8565b806001600160a01b0381166200006557604051631e4fbdf760e01b8152600060048201526024015b60405180910390fd5b620000708162000244565b5060017f9b779b17422d0df92223018b32b4d1fa46e071723d6817e2486d003becc55f00556001600160a01b038416620000de5760405162461bcd60e51b815260206004820152600e60248201526d48423a20746f6b656e207a65726f60901b60448201526064016200005c565b6001600160a01b0383166200012a5760405162461bcd60e51b815260206004820152601160248201527048423a207265676973747279207a65726f60781b60448201526064016200005c565b6001600160a01b038216620001765760405162461bcd60e51b815260206004820152601160248201527048423a2073706c6974746572207a65726f60781b60448201526064016200005c565b6001600160a01b03848116608052600280546001600160a01b03199081168684161790915560038054909116918416919091179055620001c16001673782dace9d9000008162000262565b620001d960026801158e460913d00000600162000262565b620001f1600368056bc75e2d63100000600162000262565b620002096004681b1ae4d6e2ef500000600162000262565b62000221600568878678326eac900000600162000262565b6200023a60066902a5a058fc295ed00000600162000262565b5050505062000430565b600180546001600160a01b03191690556200025f8162000362565b50565b60008311620002a75760405162461bcd60e51b815260206004820152601060248201526f48423a207061636b616765207a65726f60801b60448201526064016200005c565b60008211620002ea5760405162461bcd60e51b815260206004820152600e60248201526d48423a207072696365207a65726f60901b60448201526064016200005c565b604080518082018252838152821515602080830182815260008881526004835285902093518455516001909301805460ff19169315159390931790925582518581529182015284917fbcf71c11d7eebe400b8d795c951de0289247c17af6a78342577367bcb4cda9c8910160405180910390a2505050565b600080546001600160a01b038381166001600160a01b0319831681178455604051919092169283917f8be0079c531659141344cd1fd0a4f28419497f9722a3daafe3b4186f6b6457e09190a35050565b6001600160a01b03811681146200025f57600080fd5b60008060008060808587031215620003df57600080fd5b8451620003ec81620003b2565b6020860151909450620003ff81620003b2565b60408601519093506200041281620003b2565b60608601519092506200042581620003b2565b939692955090935050565b608051611050620004536000396000818161014801526106e101526110506000f3fe608060405234801561001057600080fd5b506004361061012c5760003560e01c8063715018a6116100ad578063c01f760811610071578063c01f76081461026f578063c216212a14610277578063e30c3978146102b6578063e87c28a7146102c7578063f2fde38b146102da57600080fd5b8063715018a61461023357806379ba50971461023b5780638456cb59146102435780638b1b38661461024b5780638da5cb5b1461025e57600080fd5b80634e627e62116100f45780634e627e62146101bd57806354b8cf6d146101d057806357aed207146101e35780635b5d06cc146101f65780635c975abb1461021657600080fd5b8063022f7a0414610131578063234d61091461013b5780633013ce29146101435780633c942a08146101875780633f4ba83a146101b5575b600080fd5b6101396102ed565b005b61013961035f565b61016a7f000000000000000000000000000000000000000000000000000000000000000081565b6040516001600160a01b0390911681526020015b60405180910390f35b6101a7610195366004610ea9565b60066020526000908152604090205481565b60405190815260200161017e565b6101396103b7565b60025461016a906001600160a01b031681565b6101396101de366004610ecd565b6103c9565b6101396101f1366004610f05565b6108f1565b6101a7610204366004610ea9565b60056020526000908152604090205481565b600154600160a01b900460ff16604051901515815260200161017e565b610139610904565b610139610916565b61013961095a565b60035461016a906001600160a01b031681565b6000546001600160a01b031661016a565b61013961096a565b6102a1610285366004610f43565b6004602052600090815260409020805460019091015460ff1682565b6040805192835290151560208301520161017e565b6001546001600160a01b031661016a565b6101396102d5366004610f5c565b6109c2565b6101396102e8366004610ea9565b610a8c565b6102f5610afd565b600360009054906101000a90046001600160a01b03166001600160a01b0316638456cb596040518163ffffffff1660e01b8152600401600060405180830381600087803b15801561034557600080fd5b505af1158015610359573d6000803e3d6000fd5b50505050565b610367610afd565b600360009054906101000a90046001600160a01b03166001600160a01b03166379ba50976040518163ffffffff1660e01b8152600401600060405180830381600087803b15801561034557600080fd5b6103bf610afd565b6103c7610b2a565b565b6103d1610b7f565b6103d9610bad565b6000838152600460209081526040918290208251808401909352805483526001015460ff16151590820181905261044d5760405162461bcd60e51b815260206004820152601360248201527248423a20696e76616c6964207061636b61676560681b60448201526064015b60405180910390fd5b805161048f5760405162461bcd60e51b815260206004820152601160248201527048423a207072696365206d697373696e6760781b6044820152606401610444565b826001600160a01b0381161580156104a657508215155b1561051b5760025460405163c4f343fd60e01b8152600481018590526001600160a01b039091169063c4f343fd90602401602060405180830381865afa1580156104f4573d6000803e3d6000fd5b505050506040513d601f19601f820116820180604052508101906105189190610f95565b90505b6001600160a01b038116158015906105a65750600254604051631a70845360e11b81523360048201526000916001600160a01b0316906334e108a690602401602060405180830381865afa158015610577573d6000803e3d6000fd5b505050506040513d601f19601f8201168201806040525081019061059b9190610f95565b6001600160a01b0316145b156106505760025460405163ce900f5760e01b81523360048201526001600160a01b038381166024830152604482018690529091169063ce900f5790606401600060405180830381600087803b1580156105ff57600080fd5b505af1158015610613573d6000803e3d6000fd5b50506040518592506001600160a01b038416915033907f50db5bae9e391b946ce57405afd82a03203aebc4af75e18b7285fb0c76b9d91f90600090a45b33600081815260066020908152604080832054905192936106b393469330938c92439201958652606094851b6bffffffffffffffffffffffff1990811660208801529390941b909216603485015260488401526068830152608882015260a80190565b60408051808303601f190181529190528051602090910120600354845191925061070d916001600160a01b037f00000000000000000000000000000000000000000000000000000000000000008116923392911690610bd8565b6003548351604051632ffa3ce160e01b81526004810184905233602482015260448101919091526001600160a01b0390911690632ffa3ce190606401600060405180830381600087803b15801561076357600080fd5b505af1158015610777573d6000803e3d6000fd5b50503360008181526005602090815260408083208c90558851600683529281902092909255875182519081526001600160a01b0388169181019190915290810188905289935090915083907f9fa0a7cff4e0fc146dee3178cf33484b3ad3abb6266ab2f2dfcca541e64907039060600160405180910390a4336001600160a01b0316817fcd2209be608aa4198957f61d2bd6fcfe06f69be35179df3a5a3a0b9d7c73a3ce8860648760000151601461082f9190610fc8565b6108399190610fe5565b875160649061084990601e610fc8565b6108539190610fe5565b885160649061086390601e610fc8565b61086d9190610fe5565b895160649061087d906014610fc8565b6108879190610fe5565b8a516108939190611007565b61089d9190611007565b60408051948552602085019390935291830152606082015260800160405180910390a35050506108ec60017f9b779b17422d0df92223018b32b4d1fa46e071723d6817e2486d003becc55f0055565b505050565b6108f9610afd565b6108ec838383610c0e565b61090c610afd565b6103c76000610d0a565b60015433906001600160a01b0316811461094e5760405163118cdaa760e01b81526001600160a01b0382166004820152602401610444565b61095781610d0a565b50565b610962610afd565b6103c7610d23565b610972610afd565b600360009054906101000a90046001600160a01b03166001600160a01b0316633f4ba83a6040518163ffffffff1660e01b8152600401600060405180830381600087803b15801561034557600080fd5b6109ca610afd565b6001600160a01b038216610a145760405162461bcd60e51b815260206004820152601160248201527048423a207265676973747279207a65726f60781b6044820152606401610444565b6001600160a01b038116610a5e5760405162461bcd60e51b815260206004820152601160248201527048423a2073706c6974746572207a65726f60781b6044820152606401610444565b600280546001600160a01b039384166001600160a01b03199182161790915560038054929093169116179055565b610a94610afd565b600180546001600160a01b0383166001600160a01b03199091168117909155610ac56000546001600160a01b031690565b6001600160a01b03167f38d16b8cac22d99fc7c124b9cd0de2d3fa1faef420bfe791d8c362d765e2270060405160405180910390a350565b6000546001600160a01b031633146103c75760405163118cdaa760e01b8152336004820152602401610444565b610b32610d66565b6001805460ff60a01b191690557f5db9ee0a495bf2e6ff9c91a7834c1ba4fdd244a5e8aa4e537bd38aeae4b073aa335b6040516001600160a01b03909116815260200160405180910390a1565b610b87610d90565b60027f9b779b17422d0df92223018b32b4d1fa46e071723d6817e2486d003becc55f0055565b600154600160a01b900460ff16156103c75760405163d93c066560e01b815260040160405180910390fd5b610be6848484846001610dd2565b61035957604051635274afe760e01b81526001600160a01b0385166004820152602401610444565b60008311610c515760405162461bcd60e51b815260206004820152601060248201526f48423a207061636b616765207a65726f60801b6044820152606401610444565b60008211610c925760405162461bcd60e51b815260206004820152600e60248201526d48423a207072696365207a65726f60901b6044820152606401610444565b604080518082018252838152821515602080830182815260008881526004835285902093518455516001909301805460ff19169315159390931790925582518581529182015284917fbcf71c11d7eebe400b8d795c951de0289247c17af6a78342577367bcb4cda9c8910160405180910390a2505050565b600180546001600160a01b031916905561095781610e44565b610d2b610bad565b6001805460ff60a01b1916600160a01b1790557f62e78cea01bee320cd4e420270b5ea74000d11b0c9f74754ebdbfc544b05a258610b623390565b600154600160a01b900460ff166103c757604051638dfc202b60e01b815260040160405180910390fd5b7f9b779b17422d0df92223018b32b4d1fa46e071723d6817e2486d003becc55f00546002036103c757604051633ee5aeb560e01b815260040160405180910390fd5b6040516323b872dd60e01b60008181526001600160a01b038781166004528616602452604485905291602083606481808c5af192506001600051148316610e32578383151615610e25573d6000823e3d81fd5b6000883b113d1516831692505b60405250600060605295945050505050565b600080546001600160a01b038381166001600160a01b0319831681178455604051919092169283917f8be0079c531659141344cd1fd0a4f28419497f9722a3daafe3b4186f6b6457e09190a35050565b6001600160a01b038116811461095757600080fd5b600060208284031215610ebb57600080fd5b8135610ec681610e94565b9392505050565b600080600060608486031215610ee257600080fd5b833592506020840135610ef481610e94565b929592945050506040919091013590565b600080600060608486031215610f1a57600080fd5b833592506020840135915060408401358015158114610f3857600080fd5b809150509250925092565b600060208284031215610f5557600080fd5b5035919050565b60008060408385031215610f6f57600080fd5b8235610f7a81610e94565b91506020830135610f8a81610e94565b809150509250929050565b600060208284031215610fa757600080fd5b8151610ec681610e94565b634e487b7160e01b600052601160045260246000fd5b8082028115828204841417610fdf57610fdf610fb2565b92915050565b60008261100257634e487b7160e01b600052601260045260246000fd5b500490565b81810381811115610fdf57610fdf610fb256fea26469706673582212203ec23ae639092167eefc42bc833a7f0b2a6e13fecd507ea70598453672311a5d64736f6c63430008180033",
  "linkReferences": {},
  "deployedLinkReferences": {}
}